{
  "contractName": "englishAuction",
  "abi": [
    {
      "constant": true,
      "inputs": [],
      "name": "minIcrement",
      "outputs": [
        {
          "name": "",
          "type": "uint256"
        }
      ],
      "payable": false,
      "stateMutability": "view",
      "type": "function"
    },
    {
      "constant": true,
      "inputs": [],
      "name": "buyer",
      "outputs": [
        {
          "name": "",
          "type": "address"
        }
      ],
      "payable": false,
      "stateMutability": "view",
      "type": "function"
    },
    {
      "constant": true,
      "inputs": [],
      "name": "buyoutPrice",
      "outputs": [
        {
          "name": "",
          "type": "uint256"
        }
      ],
      "payable": false,
      "stateMutability": "view",
      "type": "function"
    },
    {
      "constant": true,
      "inputs": [],
      "name": "highestBidder",
      "outputs": [
        {
          "name": "",
          "type": "address"
        }
      ],
      "payable": false,
      "stateMutability": "view",
      "type": "function"
    },
    {
      "constant": true,
      "inputs": [],
      "name": "highestBid",
      "outputs": [
        {
          "name": "",
          "type": "uint256"
        }
      ],
      "payable": false,
      "stateMutability": "view",
      "type": "function"
    },
    {
      "constant": true,
      "inputs": [],
      "name": "reservePrice",
      "outputs": [
        {
          "name": "",
          "type": "uint256"
        }
      ],
      "payable": false,
      "stateMutability": "view",
      "type": "function"
    },
    {
      "constant": true,
      "inputs": [],
      "name": "minBlocks",
      "outputs": [
        {
          "name": "",
          "type": "uint256"
        }
      ],
      "payable": false,
      "stateMutability": "view",
      "type": "function"
    },
    {
      "inputs": [
        {
          "name": "_title",
          "type": "string"
        },
        {
          "name": "_URL",
          "type": "string"
        },
        {
          "name": "_reservePrice",
          "type": "uint256"
        },
        {
          "name": "_minIcrement",
          "type": "uint256"
        },
        {
          "name": "_buyoutPrice",
          "type": "uint256"
        },
        {
          "name": "_minBlocks",
          "type": "uint256"
        }
      ],
      "payable": true,
      "stateMutability": "payable",
      "type": "constructor"
    },
    {
      "anonymous": false,
      "inputs": [
        {
          "indexed": false,
          "name": "bidder",
          "type": "address"
        },
        {
          "indexed": false,
          "name": "amount",
          "type": "uint256"
        }
      ],
      "name": "HighestBidIncreased",
      "type": "event"
    },
    {
      "anonymous": false,
      "inputs": [
        {
          "indexed": false,
          "name": "winner",
          "type": "address"
        },
        {
          "indexed": false,
          "name": "amount",
          "type": "uint256"
        }
      ],
      "name": "AuctionEnded",
      "type": "event"
    },
    {
      "constant": false,
      "inputs": [],
      "name": "openAuction",
      "outputs": [],
      "payable": false,
      "stateMutability": "nonpayable",
      "type": "function"
    },
    {
      "constant": false,
      "inputs": [],
      "name": "acquistoDiretto",
      "outputs": [],
      "payable": true,
      "stateMutability": "payable",
      "type": "function"
    },
    {
      "constant": false,
      "inputs": [],
      "name": "bid",
      "outputs": [],
      "payable": true,
      "stateMutability": "payable",
      "type": "function"
    },
    {
      "constant": false,
      "inputs": [],
      "name": "finalize",
      "outputs": [],
      "payable": true,
      "stateMutability": "payable",
      "type": "function"
    },
    {
      "constant": true,
      "inputs": [],
      "name": "getHighestBidder",
      "outputs": [
        {
          "name": "",
          "type": "address"
        }
      ],
      "payable": false,
      "stateMutability": "view",
      "type": "function"
    },
    {
      "constant": true,
      "inputs": [],
      "name": "getHighestBid",
      "outputs": [
        {
          "name": "",
          "type": "uint256"
        }
      ],
      "payable": false,
      "stateMutability": "view",
      "type": "function"
    },
    {
      "constant": true,
      "inputs": [],
      "name": "getBuyoutPrice",
      "outputs": [
        {
          "name": "",
          "type": "uint256"
        }
      ],
      "payable": false,
      "stateMutability": "view",
      "type": "function"
    },
    {
      "constant": true,
      "inputs": [],
      "name": "getMinIncrement",
      "outputs": [
        {
          "name": "",
          "type": "uint256"
        }
      ],
      "payable": false,
      "stateMutability": "view",
      "type": "function"
    }
  ],
  "bytecode": "0x60806040526000600760146101000a81548160ff0219169083151502179055506000600760156101000a81548160ff0219169083151502179055506000600760166101000a81548160ff0219169083151502179055506040516200138e3803806200138e833981018060405260c08110156200007a57600080fd5b8101908080516401000000008111156200009357600080fd5b82810190506020810184811115620000aa57600080fd5b8151856001820283011164010000000082111715620000c857600080fd5b50509291906020018051640100000000811115620000e557600080fd5b82810190506020810184811115620000fc57600080fd5b81518560018202830111640100000000821117156200011a57600080fd5b505092919060200180519060200190929190805190602001909291908051906020019092919080519060200190929190505050600084116200015b57600080fd5b600082116200016957600080fd5b8360008190555082600181905550600182026002819055508060038190555033600760006101000a81548173ffffffffffffffffffffffffffffffffffffffff021916908373ffffffffffffffffffffffffffffffffffffffff1602179055508560099080519060200190620001e192919062000207565b5084600a9080519060200190620001fa92919062000207565b50505050505050620002b6565b828054600181600116156101000203166002900490600052602060002090601f016020900481019282601f106200024a57805160ff19168380011785556200027b565b828001600101855582156200027b579182015b828111156200027a5782518255916020019190600101906200025d565b5b5090506200028a91906200028e565b5090565b620002b391905b80821115620002af57600081600090555060010162000295565b5090565b90565b6110c880620002c66000396000f3fe6080604052600436106100e75760003560e01c80637150d8ae1161008a578063ade751bd11610059578063ade751bd146102d2578063d57bde79146102fd578063db2e1eed14610328578063ff21d1e514610353576100e7565b80637150d8ae146101ef5780637f3d06a61461024657806391f9015714610271578063acaee58f146102c8576100e7565b80634979440a116100c65780634979440a146101645780634bb278f31461018f5780636560cb30146101995780636c2b707a146101c4576100e7565b80623495a4146100ec57806304cb72f9146101435780631998aeef1461015a575b600080fd5b3480156100f857600080fd5b5061010161037e565b604051808273ffffffffffffffffffffffffffffffffffffffff1673ffffffffffffffffffffffffffffffffffffffff16815260200191505060405180910390f35b34801561014f57600080fd5b506101586103a8565b005b6101626104a8565b005b34801561017057600080fd5b50610179610869565b6040518082815260200191505060405180910390f35b610197610873565b005b3480156101a557600080fd5b506101ae610c35565b6040518082815260200191505060405180910390f35b3480156101d057600080fd5b506101d9610c3b565b6040518082815260200191505060405180910390f35b3480156101fb57600080fd5b50610204610c45565b604051808273ffffffffffffffffffffffffffffffffffffffff1673ffffffffffffffffffffffffffffffffffffffff16815260200191505060405180910390f35b34801561025257600080fd5b5061025b610c6b565b6040518082815260200191505060405180910390f35b34801561027d57600080fd5b50610286610c71565b604051808273ffffffffffffffffffffffffffffffffffffffff1673ffffffffffffffffffffffffffffffffffffffff16815260200191505060405180910390f35b6102d0610c97565b005b3480156102de57600080fd5b506102e7610ff8565b6040518082815260200191505060405180910390f35b34801561030957600080fd5b50610312611002565b6040518082815260200191505060405180910390f35b34801561033457600080fd5b5061033d611008565b6040518082815260200191505060405180910390f35b34801561035f57600080fd5b5061036861100e565b6040518082815260200191505060405180910390f35b6000600560009054906101000a900473ffffffffffffffffffffffffffffffffffffffff16905090565b600760009054906101000a900473ffffffffffffffffffffffffffffffffffffffff1673ffffffffffffffffffffffffffffffffffffffff163373ffffffffffffffffffffffffffffffffffffffff161461046b576040517f08c379a00000000000000000000000000000000000000000000000000000000081526004018080602001828103825260148152602001807f4e6f6e20736569206c2761756374696f6e65657200000000000000000000000081525060200191505060405180910390fd5b60001515600760169054906101000a900460ff1615151461048b57600080fd5b6001600760166101000a81548160ff021916908315150217905550565b600760149054906101000a900460ff161561052b576040517f08c379a000000000000000000000000000000000000000000000000000000000815260040180806020018281038252600e8152602001807f41737461207465726d696e61746100000000000000000000000000000000000081525060200191505060405180910390fd5b34803373ffffffffffffffffffffffffffffffffffffffff163110156105b9576040517f08c379a00000000000000000000000000000000000000000000000000000000081526004018080602001828103825260178152602001807f42616c616e6365206e6f6e2073756666696369656e746500000000000000000081525060200191505060405180910390fd5b600760169054906101000a900460ff1661063b576040517f08c379a00000000000000000000000000000000000000000000000000000000081526004018080602001828103825260108152602001807f41737461206e6f6e20617676696174610000000000000000000000000000000081525060200191505060405180910390fd5b60001515600760159054906101000a900460ff16151514156106865760005434101561066657600080fd5b6001600760156101000a81548160ff0219169083151502179055506106cd565b61069d60035460085461101490919063ffffffff16565b4311156106a957600080fd5b6106c060015460045461101490919063ffffffff16565b3410156106cc57600080fd5b5b600060045490506000600560009054906101000a900473ffffffffffffffffffffffffffffffffffffffff1690503460048190555033600560006101000a81548173ffffffffffffffffffffffffffffffffffffffff021916908373ffffffffffffffffffffffffffffffffffffffff160217905550436008819055507ff4757a49b326036464bec6fe419a4ae38c8a02ce3e68bf0809674f6aab8ad300600560009054906101000a900473ffffffffffffffffffffffffffffffffffffffff16600454604051808373ffffffffffffffffffffffffffffffffffffffff1673ffffffffffffffffffffffffffffffffffffffff1681526020018281526020019250505060405180910390a1600082141580156108175750600073ffffffffffffffffffffffffffffffffffffffff168173ffffffffffffffffffffffffffffffffffffffff1614155b15610864578073ffffffffffffffffffffffffffffffffffffffff166108fc839081150290604051600060405180830381858888f19350505050158015610862573d6000803e3d6000fd5b505b505050565b6000600454905090565b600760149054906101000a900460ff16156108f6576040517f08c379a000000000000000000000000000000000000000000000000000000000815260040180806020018281038252600e8152602001807f41737461207465726d696e61746100000000000000000000000000000000000081525060200191505060405180910390fd5b600760009054906101000a900473ffffffffffffffffffffffffffffffffffffffff1673ffffffffffffffffffffffffffffffffffffffff163373ffffffffffffffffffffffffffffffffffffffff16148061099f5750600560009054906101000a900473ffffffffffffffffffffffffffffffffffffffff1673ffffffffffffffffffffffffffffffffffffffff163373ffffffffffffffffffffffffffffffffffffffff16145b610a11576040517f08c379a000000000000000000000000000000000000000000000000000000000815260040180806020018281038252600f8152602001807f4e6f6e206175746f72697a7a61746f000000000000000000000000000000000081525060200191505060405180910390fd5b43610a2960035460085461101490919063ffffffff16565b10610a9c576040517f08c379a00000000000000000000000000000000000000000000000000000000081526004018080602001828103825260128152602001807f41737461206e6f6e207465726d696e617461000000000000000000000000000081525060200191505060405180910390fd5b600760169054906101000a900460ff16610b1e576040517f08c379a00000000000000000000000000000000000000000000000000000000081526004018080602001828103825260108152602001807f41737461206e6f6e20617676696174610000000000000000000000000000000081525060200191505060405180910390fd5b6001600760146101000a81548160ff0219169083151502179055507fdaec4582d5d9595688c8c98545fdd1c696d41c6aeaeb636737e84ed2f5c00eda600560009054906101000a900473ffffffffffffffffffffffffffffffffffffffff16600454604051808373ffffffffffffffffffffffffffffffffffffffff1673ffffffffffffffffffffffffffffffffffffffff1681526020018281526020019250505060405180910390a1600760009054906101000a900473ffffffffffffffffffffffffffffffffffffffff1673ffffffffffffffffffffffffffffffffffffffff166108fc6004549081150290604051600060405180830381858888f19350505050158015610c32573d6000803e3d6000fd5b50565b60015481565b6000600254905090565b600660009054906101000a900473ffffffffffffffffffffffffffffffffffffffff1681565b60025481565b600560009054906101000a900473ffffffffffffffffffffffffffffffffffffffff1681565b600760149054906101000a900460ff1615610d1a576040517f08c379a000000000000000000000000000000000000000000000000000000000815260040180806020018281038252600e8152602001807f41737461207465726d696e61746100000000000000000000000000000000000081525060200191505060405180910390fd5b60001515600760159054906101000a900460ff16151514610da3576040517f08c379a000000000000000000000000000000000000000000000000000000000815260040180806020018281038252601d8152602001807f4e6f6e20616371756973746162696c6520646972657474616d656e746500000081525060200191505060405180910390fd5b600254803373ffffffffffffffffffffffffffffffffffffffff16311015610e33576040517f08c379a00000000000000000000000000000000000000000000000000000000081526004018080602001828103825260178152602001807f42616c616e6365206e6f6e2073756666696369656e746500000000000000000081525060200191505060405180910390fd5b600760169054906101000a900460ff16610eb5576040517f08c379a00000000000000000000000000000000000000000000000000000000081526004018080602001828103825260108152602001807f41737461206e6f6e20617676696174610000000000000000000000000000000081525060200191505060405180910390fd5b6002543414610ec357600080fd5b7fdaec4582d5d9595688c8c98545fdd1c696d41c6aeaeb636737e84ed2f5c00eda3334604051808373ffffffffffffffffffffffffffffffffffffffff1673ffffffffffffffffffffffffffffffffffffffff1681526020018281526020019250505060405180910390a16001600760146101000a81548160ff02191690831515021790555033600660006101000a81548173ffffffffffffffffffffffffffffffffffffffff021916908373ffffffffffffffffffffffffffffffffffffffff160217905550600760009054906101000a900473ffffffffffffffffffffffffffffffffffffffff1673ffffffffffffffffffffffffffffffffffffffff166108fc6002549081150290604051600060405180830381858888f19350505050158015610ff4573d6000803e3d6000fd5b5050565b6000600154905090565b60045481565b60005481565b60035481565b600080828401905083811015611092576040517f08c379a000000000000000000000000000000000000000000000000000000000815260040180806020018281038252601b8152602001807f536166654d6174683a206164646974696f6e206f766572666c6f77000000000081525060200191505060405180910390fd5b809150509291505056fea165627a7a72305820d7640293eb54b240b8c7e7083432a9a037f306eee4b9286fd1e6fb95011ba6400029",
  "source": "pragma solidity ^0.5.1;\nimport \"node_modules/openzeppelin-solidity/contracts/math/SafeMath.sol\";\n\ncontract englishAuction {\n    using SafeMath for uint;\n    \n    // Offerta minima che deve essere fatta\n    uint public reservePrice;\n    \n    uint public minIcrement;\n    // Prezzo per l'acquisto diretto senza asta\n    uint public buyoutPrice;\n    \n    // Numero di blocchi che devono passare prima di terminare l'asta\n    uint public minBlocks;\n    \n    // Indirizzo che ha fatto l'offerta più alta e offerta più alta ricevuta\n    uint public highestBid;\n    address payable public highestBidder;\n    \n    // Indirizzo che ha comprato direttamente senza asta\n    address public buyer;\n    // Creatore dell'asta\n    address payable auctioneer;\n    \n    // Booleano usato per capire se l'asta è terminata o no\n    bool ended = false;\n    // booleano per capire se è stato fatto l'acquisto diretto senza asta\n    bool buyoutEnded = false;\n    \n    // usato per capire se l'asta è iniziata\n    bool started = false;\n    \n    // Blocco in cui è stata eseguita l'ultima offerta\n    uint startingBlock;\n    \n    // Due eventi, uno per dire che ho aumentato l'offerta e uno \n    // per indicare che l'asta è terminata\n    event HighestBidIncreased(address bidder, uint amount);\n    event AuctionEnded(address winner, uint amount);\n    \n    // titolo dell'asta e url di una foto del prodotto che voglio vendere\n    string title;\n    string URL;\n    \n    /*\n        Parametri:\n        - _title: nome del prodotto che vogliamo mettere in vendita\n        - _URL: url di una immagine del prodotto che vogliamo vendere\n        - _reservePrice: prezzo base dell'asta \n        - _minIcrement: incremento minimo che deve esserci tra un'offerta e l'altra\n        - _buyoutPrice: prezzo per l'acquisto diretto \n        - _minBlocks: numero minimo di blocchi che devono passare prima di decretare il vincitore dell'asta\n    */\n    constructor(string memory _title, string memory _URL, uint _reservePrice, uint _minIcrement, uint _buyoutPrice, uint _minBlocks) public payable{\n        require(_reservePrice > 0);\n        require(_buyoutPrice > 0);\n        reservePrice = _reservePrice;\n        minIcrement = _minIcrement;\n        buyoutPrice = _buyoutPrice * 1 wei;\n        minBlocks = _minBlocks;\n        auctioneer = msg.sender;\n        title = _title;\n        URL = _URL;\n    }\n    \n    // Controllo che l'asta non sia terminata\n    modifier only_notEnded(){\n        require(!ended, \"Asta terminata\"); _;\n    }\n    \n    // Controllo che sia ancora possibile acquistare il prodotto\n    // direttamente e senza fare l'asta\n    modifier buyout_available(){\n        require(buyoutEnded == false, \"Non acquistabile direttamente\"); _;\n    }\n    \n    // Controllo che tra l'ultima offerta e quella che provo a fare\n    // non siano passati troppi blocchi\n    modifier bidAvailable(){\n        require(startingBlock < startingBlock.add(minBlocks), \"Bid Phase terminata\"); _;\n    }\n    \n    // Controlla che chi fa l'offerta abbia a disposizione un balance maggiore di \n    // quanto offre\n    modifier balanceAvailable(uint price){\n        require(msg.sender.balance >= price, \"Balance non sufficiente\"); _;\n    }\n    \n    /*\n        Controlla che il chiamante della funzione sia il creatore del contratto\n        oppure quello che ha vinto l'asta.\n    */\n    modifier onlyAuthorized() {\n         require(msg.sender == auctioneer || msg.sender == highestBidder, \"Non autorizzato\"); _;\n    }\n    \n    modifier only_when_FinalizePhase(){\n        require(startingBlock.add(minBlocks) < uint(block.number), \"Asta non terminata\"); _;\n    }\n    \n    // Controlla che la funzione sia stata chiamata dal creatore dell'asta\n    modifier only_auctioneer(){\n        require(msg.sender == auctioneer, \"Non sei l'auctioneer\"); _;\n    }\n    \n     // Controllo che l'asta sia stata avviata\n    modifier only_when_started(){\n        require(started, \"Asta non avviata\"); _;\n    }\n    \n    \n    /*\n        Inizio dell'asta, solamente il creatore dell'asta può avviarla\n    */\n    function openAuction() public only_auctioneer(){\n        require(started == false);\n        started = true;\n    }\n    \n\n    /*\n        Funzione che permette di acquistare direttamente il prodotto senza \n        dover svolgere l'asta pagando il buyoutPrice.\n        Può essere chiamata solamente se:\n        - l'asta non è terminata\n        - è ancora disponibile la possibilità di acquistare direttamente\n        - ho un balance sufficiente per acquistare\n        - Il valore di buyout è uguale a quello che invio\n        \n        Alla fine il valore che invio viene trasferito al creatore dell'asta.\n    */\n    function acquistoDiretto() public payable only_notEnded() buyout_available() balanceAvailable(buyoutPrice) only_when_started(){\n        \n        require(msg.value == buyoutPrice);\n        \n        emit AuctionEnded(msg.sender, msg.value);\n        ended = true;\n        buyer = msg.sender;\n        auctioneer.transfer(buyoutPrice);\n        \n    }\n    \n    /*\n        Funzione che permette di eseguire un'offerta.\n        Viene eseguita se:\n        - l'asta non è già terminata\n        - chi invia l'offerta ha un balance maggiore di quello che offre\n        - Se tra il bid precedente e il successivo non sono passati troppi blocchi\n    */\n    function bid() public payable only_notEnded() balanceAvailable(msg.value) only_when_started(){\n        \n        // Prima offerta che arriva, in questo caso posso fare un'offerta pari al minimo\n        // e non devo controllare che sia terminata la fase di bid\n        if(buyoutEnded == false){\n           \n            require(msg.value >= reservePrice);\n            buyoutEnded = true;\n        }\n        else{\n            // offerte successive alla prima, in questo caso devo fare un'offerta maggiore della precedente più il minimo incremento\n            // una volta ricevuta l'offerta devo anche restituire i soldi al precedente bidder\n            require(block.number <= startingBlock.add(minBlocks));\n            require(msg.value >= highestBid.add(minIcrement));\n        }\n        \n        uint value = highestBid;\n        address payable receiver = highestBidder;\n        \n        highestBid = msg.value;\n        highestBidder = msg.sender;\n        startingBlock = uint(block.number);\n        emit HighestBidIncreased(highestBidder, highestBid);\n        \n        // Serve l'if perchè alla prima offerta che ricevo non devo restituire soldi\n        if(value != 0 && receiver != address(0)){\n            receiver.transfer(value);\n        }\n    }\n    \n    /*\n        Funzione che può essere chiamata solamente se:\n        - l'asta non è già terminata\n        - solo dal vincitore o da chi ha creato l'asta\n        - solamente dopo che non posso fare altre offerte\n        Qua trasferisco i soldi che sono stati offerti al creatore del contratto e \n        termino l'asta emettendo anche un evento.\n    */\n    function finalize() external payable only_notEnded() onlyAuthorized() only_when_FinalizePhase() only_when_started(){\n        ended = true;\n        emit AuctionEnded(highestBidder, highestBid);\n        auctioneer.transfer(highestBid);\n    }\n    \n    /*\n        Funzione che restituisce l'address che ha fatto l'offerta più alta\n    */\n    function getHighestBidder() public view returns(address){\n        return highestBidder;\n    }\n    \n    /*\n        Funzione che restituisce l'offerta più alta\n    */\n    function getHighestBid() public view returns(uint){\n        return highestBid;\n    }\n    \n    /*\n        Funzione che restituisce il prezzo dell'acquisto diretto\n    */ \n    function getBuyoutPrice() public view returns(uint){\n        return buyoutPrice;\n    }\n    \n    /*\n        Funzione che restituisce l'incremento minimo da fare rispetto all'offerta più alta\n    */\n    function getMinIncrement() public view returns(uint){\n        return minIcrement;\n    }\n    \n}",
  "sourcePath": "/Users/lucacorbucci/Dropbox/Università/Magistrale/Peer To Peer/Progetto Finale/contracts/English.sol",
  "compiler": {
    "name": "solc",
    "version": "0.5.8+commit.23d335f2.Emscripten.clang"
  },
  "schemaVersion": "3.0.11",
  "updatedAt": "2019-06-18T09:25:10.877Z",
  "devdoc": {
    "methods": {}
  },
  "userdoc": {
    "methods": {}
  }
}