{
  "contractName": "englishAuction",
  "abi": [
    {
      "constant": true,
      "inputs": [],
      "name": "minIcrement",
      "outputs": [
        {
          "name": "",
          "type": "uint256"
        }
      ],
      "payable": false,
      "stateMutability": "view",
      "type": "function"
    },
    {
      "constant": true,
      "inputs": [],
      "name": "buyer",
      "outputs": [
        {
          "name": "",
          "type": "address"
        }
      ],
      "payable": false,
      "stateMutability": "view",
      "type": "function"
    },
    {
      "constant": true,
      "inputs": [],
      "name": "buyoutPrice",
      "outputs": [
        {
          "name": "",
          "type": "uint256"
        }
      ],
      "payable": false,
      "stateMutability": "view",
      "type": "function"
    },
    {
      "constant": true,
      "inputs": [],
      "name": "highestBidder",
      "outputs": [
        {
          "name": "",
          "type": "address"
        }
      ],
      "payable": false,
      "stateMutability": "view",
      "type": "function"
    },
    {
      "constant": true,
      "inputs": [],
      "name": "highestBid",
      "outputs": [
        {
          "name": "",
          "type": "uint256"
        }
      ],
      "payable": false,
      "stateMutability": "view",
      "type": "function"
    },
    {
      "constant": true,
      "inputs": [],
      "name": "reservePrice",
      "outputs": [
        {
          "name": "",
          "type": "uint256"
        }
      ],
      "payable": false,
      "stateMutability": "view",
      "type": "function"
    },
    {
      "constant": true,
      "inputs": [],
      "name": "minBlocks",
      "outputs": [
        {
          "name": "",
          "type": "uint256"
        }
      ],
      "payable": false,
      "stateMutability": "view",
      "type": "function"
    },
    {
      "inputs": [
        {
          "name": "_title",
          "type": "string"
        },
        {
          "name": "_URL",
          "type": "string"
        },
        {
          "name": "_reservePrice",
          "type": "uint256"
        },
        {
          "name": "_minIcrement",
          "type": "uint256"
        },
        {
          "name": "_buyoutPrice",
          "type": "uint256"
        },
        {
          "name": "_minBlocks",
          "type": "uint256"
        },
        {
          "name": "_numBlockStart",
          "type": "uint256"
        }
      ],
      "payable": true,
      "stateMutability": "payable",
      "type": "constructor"
    },
    {
      "anonymous": false,
      "inputs": [
        {
          "indexed": false,
          "name": "bidder",
          "type": "address"
        },
        {
          "indexed": false,
          "name": "amount",
          "type": "uint256"
        }
      ],
      "name": "HighestBidIncreased",
      "type": "event"
    },
    {
      "anonymous": false,
      "inputs": [
        {
          "indexed": false,
          "name": "winner",
          "type": "address"
        },
        {
          "indexed": false,
          "name": "amount",
          "type": "uint256"
        }
      ],
      "name": "AuctionEnded",
      "type": "event"
    },
    {
      "constant": false,
      "inputs": [
        {
          "name": "sender",
          "type": "address"
        },
        {
          "name": "contractAddress",
          "type": "address"
        }
      ],
      "name": "addToStorage",
      "outputs": [
        {
          "name": "success",
          "type": "bool"
        }
      ],
      "payable": false,
      "stateMutability": "nonpayable",
      "type": "function"
    },
    {
      "constant": false,
      "inputs": [],
      "name": "removeFromStorage",
      "outputs": [
        {
          "name": "success",
          "type": "bool"
        }
      ],
      "payable": false,
      "stateMutability": "nonpayable",
      "type": "function"
    },
    {
      "constant": false,
      "inputs": [],
      "name": "acquistoDiretto",
      "outputs": [],
      "payable": true,
      "stateMutability": "payable",
      "type": "function"
    },
    {
      "constant": false,
      "inputs": [],
      "name": "bid",
      "outputs": [],
      "payable": true,
      "stateMutability": "payable",
      "type": "function"
    },
    {
      "constant": false,
      "inputs": [],
      "name": "finalize",
      "outputs": [],
      "payable": true,
      "stateMutability": "payable",
      "type": "function"
    },
    {
      "constant": true,
      "inputs": [],
      "name": "getHighestBidder",
      "outputs": [
        {
          "name": "",
          "type": "address"
        }
      ],
      "payable": false,
      "stateMutability": "view",
      "type": "function"
    },
    {
      "constant": true,
      "inputs": [],
      "name": "getHighestBid",
      "outputs": [
        {
          "name": "",
          "type": "uint256"
        }
      ],
      "payable": false,
      "stateMutability": "view",
      "type": "function"
    },
    {
      "constant": true,
      "inputs": [],
      "name": "getBuyoutPrice",
      "outputs": [
        {
          "name": "",
          "type": "uint256"
        }
      ],
      "payable": false,
      "stateMutability": "view",
      "type": "function"
    },
    {
      "constant": true,
      "inputs": [],
      "name": "getMinIncrement",
      "outputs": [
        {
          "name": "",
          "type": "uint256"
        }
      ],
      "payable": false,
      "stateMutability": "view",
      "type": "function"
    },
    {
      "constant": true,
      "inputs": [],
      "name": "getAllData",
      "outputs": [
        {
          "name": "",
          "type": "uint256"
        },
        {
          "name": "",
          "type": "uint256"
        },
        {
          "name": "",
          "type": "uint256"
        },
        {
          "name": "",
          "type": "uint256"
        },
        {
          "name": "",
          "type": "bool"
        },
        {
          "name": "",
          "type": "bool"
        },
        {
          "name": "",
          "type": "uint256"
        },
        {
          "name": "",
          "type": "uint256"
        },
        {
          "name": "",
          "type": "uint256"
        },
        {
          "name": "",
          "type": "uint256"
        },
        {
          "name": "",
          "type": "address"
        },
        {
          "name": "",
          "type": "string"
        }
      ],
      "payable": false,
      "stateMutability": "view",
      "type": "function"
    },
    {
      "constant": true,
      "inputs": [],
      "name": "getURL",
      "outputs": [
        {
          "name": "",
          "type": "string"
        }
      ],
      "payable": false,
      "stateMutability": "view",
      "type": "function"
    }
  ],
  "bytecode": "0x608060405260006004556000600760146101000a81548160ff0219169083151502179055506000600760156101000a81548160ff0219169083151502179055506000600760166101000a81548160ff02191690831515021790555060405162001f4c38038062001f4c83398101806040526200007f91908101906200039c565b600085116200008d57600080fd5b600083116200009b57600080fd5b8460008190555083600181905550600183026002819055508160038190555033600760006101000a81548173ffffffffffffffffffffffffffffffffffffffff021916908373ffffffffffffffffffffffffffffffffffffffff16021790555086600a9080519060200190620001139291906200027a565b5085600b90805190602001906200012c9291906200027a565b5080600c81905550436009819055506200014d33306200016460201b60201c565b6200015757600080fd5b5050505050505062000748565b600080731a02f38fad2b0fffd4662c6df1157937673aefca90508073ffffffffffffffffffffffffffffffffffffffff1663cc71d90a8585600b600a6000620001c0600c546009546200022260201b620010171790919060201c565b6040518763ffffffff1660e01b8152600401620001e3969594939291906200058b565b600060405180830381600087803b158015620001fe57600080fd5b505af115801562000213573d6000803e3d6000fd5b50505050600191505092915050565b60008082840190508381101562000270576040517f08c379a0000000000000000000000000000000000000000000000000000000008152600401620002679062000606565b60405180910390fd5b8091505092915050565b828054600181600116156101000203166002900490600052602060002090601f016020900481019282601f10620002bd57805160ff1916838001178555620002ee565b82800160010185558215620002ee579182015b82811115620002ed578251825591602001919060010190620002d0565b5b509050620002fd919062000301565b5090565b6200032691905b808211156200032257600081600090555060010162000308565b5090565b90565b600082601f8301126200033b57600080fd5b8151620003526200034c8262000656565b62000628565b915080825260208301602083018583830111156200036f57600080fd5b6200037c838284620006f8565b50505092915050565b60008151905062000396816200072e565b92915050565b600080600080600080600060e0888a031215620003b857600080fd5b600088015167ffffffffffffffff811115620003d357600080fd5b620003e18a828b0162000329565b975050602088015167ffffffffffffffff811115620003ff57600080fd5b6200040d8a828b0162000329565b9650506040620004208a828b0162000385565b9550506060620004338a828b0162000385565b9450506080620004468a828b0162000385565b93505060a0620004598a828b0162000385565b92505060c06200046c8a828b0162000385565b91505092959891949750929550565b6200048681620006a6565b82525050565b6200049781620006e4565b82525050565b600081546001811660008114620004bd5760018114620004e65762000530565b607f6002830416620004d0818762000695565b955060ff19831686526020860193505062000530565b60028204620004f6818762000695565b9550620005038562000683565b60005b82811015620005275781548189015260018201915060208101905062000506565b80880195505050505b505092915050565b600062000547601b8362000695565b91507f536166654d6174683a206164646974696f6e206f766572666c6f7700000000006000830152602082019050919050565b6200058581620006da565b82525050565b600060c082019050620005a260008301896200047b565b620005b160208301886200047b565b8181036040830152620005c581876200049d565b90508181036060830152620005db81866200049d565b9050620005ec60808301856200048c565b620005fb60a08301846200057a565b979650505050505050565b60006020820190508181036000830152620006218162000538565b9050919050565b6000604051905081810181811067ffffffffffffffff821117156200064c57600080fd5b8060405250919050565b600067ffffffffffffffff8211156200066e57600080fd5b601f19601f8301169050602081019050919050565b60008160005260206000209050919050565b600082825260208201905092915050565b6000620006b382620006ba565b9050919050565b600073ffffffffffffffffffffffffffffffffffffffff82169050919050565b6000819050919050565b6000620006f182620006da565b9050919050565b60005b8381101562000718578082015181840152602081019050620006fb565b8381111562000728576000848401525b50505050565b6200073981620006da565b81146200074557600080fd5b50565b6117f480620007586000396000f3fe6080604052600436106101085760003560e01c80637f3d06a611610095578063ade751bd11610064578063ade751bd146102e4578063d57bde791461030f578063db2e1eed1461033a578063ff21d1e514610365578063ff2905991461039057610108565b80637f3d06a6146102595780638025856f1461028457806391f90157146102af578063acaee58f146102da57610108565b80634979440a116100dc5780634979440a146101a35780634bb278f3146101ce5780636560cb30146101d85780636c2b707a146102035780637150d8ae1461022e57610108565b80623495a41461010d5780631998aeef146101385780632d10fa281461014257806338bcdc1c14610178575b600080fd5b34801561011957600080fd5b506101226103cd565b60405161012f919061139f565b60405180910390f35b6101406103f7565b005b34801561014e57600080fd5b506101576106f7565b60405161016f9c9b9a999897969594939291906115ce565b60405180910390f35b34801561018457600080fd5b5061018d61082c565b60405161019a91906114b1565b60405180910390f35b3480156101af57600080fd5b506101b86108ce565b6040516101c591906115b3565b60405180910390f35b6101d66108d8565b005b3480156101e457600080fd5b506101ed610bb7565b6040516101fa91906115b3565b60405180910390f35b34801561020f57600080fd5b50610218610bbd565b60405161022591906115b3565b60405180910390f35b34801561023a57600080fd5b50610243610bc7565b604051610250919061139f565b60405180910390f35b34801561026557600080fd5b5061026e610bed565b60405161027b91906115b3565b60405180910390f35b34801561029057600080fd5b50610299610bf3565b6040516102a69190611496565b60405180910390f35b3480156102bb57600080fd5b506102c4610ca4565b6040516102d191906113ba565b60405180910390f35b6102e2610cca565b005b3480156102f057600080fd5b506102f9610f48565b60405161030691906115b3565b60405180910390f35b34801561031b57600080fd5b50610324610f52565b60405161033191906115b3565b60405180910390f35b34801561034657600080fd5b5061034f610f58565b60405161035c91906115b3565b60405180910390f35b34801561037157600080fd5b5061037a610f5e565b60405161038791906115b3565b60405180910390f35b34801561039c57600080fd5b506103b760048036036103b29190810190611081565b610f64565b6040516103c49190611496565b60405180910390f35b6000600560009054906101000a900473ffffffffffffffffffffffffffffffffffffffff16905090565b600760149054906101000a900460ff1615610447576040517f08c379a000000000000000000000000000000000000000000000000000000000815260040161043e90611553565b60405180910390fd5b34803373ffffffffffffffffffffffffffffffffffffffff163110156104a2576040517f08c379a000000000000000000000000000000000000000000000000000000000815260040161049990611513565b60405180910390fd5b436104ba600c5460095461101790919063ffffffff16565b11156104fb576040517f08c379a00000000000000000000000000000000000000000000000000000000081526004016104f290611593565b60405180910390fd5b60001515600760159054906101000a900460ff16151514156105465760005434101561052657600080fd5b6001600760156101000a81548160ff02191690831515021790555061058d565b61055d60035460085461101790919063ffffffff16565b43111561056957600080fd5b61058060015460045461101790919063ffffffff16565b34101561058c57600080fd5b5b600060045490506000600560009054906101000a900473ffffffffffffffffffffffffffffffffffffffff1690503460048190555033600560006101000a81548173ffffffffffffffffffffffffffffffffffffffff021916908373ffffffffffffffffffffffffffffffffffffffff160217905550436008819055507ff4757a49b326036464bec6fe419a4ae38c8a02ce3e68bf0809674f6aab8ad300600560009054906101000a900473ffffffffffffffffffffffffffffffffffffffff1660045460405161065f9291906113d5565b60405180910390a1600082141580156106a55750600073ffffffffffffffffffffffffffffffffffffffff168173ffffffffffffffffffffffffffffffffffffffff1614155b156106f2578073ffffffffffffffffffffffffffffffffffffffff166108fc839081150290604051600060405180830381858888f193505050501580156106f0573d6000803e3d6000fd5b505b505050565b60008060008060008060008060008060006060600154600454600254600054600760149054906101000a900460ff16600760159054906101000a900460ff16600954600c54600854600354600560009054906101000a900473ffffffffffffffffffffffffffffffffffffffff16600a819150808054600181600116156101000203166002900480601f0160208091040260200160405190810160405280929190818152602001828054600181600116156101000203166002900480156107ff5780601f106107d4576101008083540402835291602001916107ff565b820191906000526020600020905b8154815290600101906020018083116107e257829003601f168201915b505050505090509b509b509b509b509b509b509b509b509b509b509b509b50909192939495969798999a9b565b6060600b8054600181600116156101000203166002900480601f0160208091040260200160405190810160405280929190818152602001828054600181600116156101000203166002900480156108c45780601f10610899576101008083540402835291602001916108c4565b820191906000526020600020905b8154815290600101906020018083116108a757829003601f168201915b5050505050905090565b6000600454905090565b600760149054906101000a900460ff1615610928576040517f08c379a000000000000000000000000000000000000000000000000000000000815260040161091f90611553565b60405180910390fd5b600760009054906101000a900473ffffffffffffffffffffffffffffffffffffffff1673ffffffffffffffffffffffffffffffffffffffff163373ffffffffffffffffffffffffffffffffffffffff1614806109d15750600560009054906101000a900473ffffffffffffffffffffffffffffffffffffffff1673ffffffffffffffffffffffffffffffffffffffff163373ffffffffffffffffffffffffffffffffffffffff16145b610a10576040517f08c379a0000000000000000000000000000000000000000000000000000000008152600401610a0790611573565b60405180910390fd5b43610a2860035460085461101790919063ffffffff16565b10610a68576040517f08c379a0000000000000000000000000000000000000000000000000000000008152600401610a5f906114d3565b60405180910390fd5b43610a80600c5460095461101790919063ffffffff16565b1115610ac1576040517f08c379a0000000000000000000000000000000000000000000000000000000008152600401610ab890611593565b60405180910390fd5b6001600760146101000a81548160ff0219169083151502179055507fdaec4582d5d9595688c8c98545fdd1c696d41c6aeaeb636737e84ed2f5c00eda600560009054906101000a900473ffffffffffffffffffffffffffffffffffffffff16600454604051610b319291906113d5565b60405180910390a1610b41610bf3565b610b4a57600080fd5b600760009054906101000a900473ffffffffffffffffffffffffffffffffffffffff1673ffffffffffffffffffffffffffffffffffffffff166108fc6004549081150290604051600060405180830381858888f19350505050158015610bb4573d6000803e3d6000fd5b50565b60015481565b6000600254905090565b600660009054906101000a900473ffffffffffffffffffffffffffffffffffffffff1681565b60025481565b600080731a02f38fad2b0fffd4662c6df1157937673aefca90508073ffffffffffffffffffffffffffffffffffffffff1663de0f725d30600560009054906101000a900473ffffffffffffffffffffffffffffffffffffffff166040518363ffffffff1660e01b8152600401610c6a9291906113fe565b600060405180830381600087803b158015610c8457600080fd5b505af1158015610c98573d6000803e3d6000fd5b50505050600191505090565b600560009054906101000a900473ffffffffffffffffffffffffffffffffffffffff1681565b600760149054906101000a900460ff1615610d1a576040517f08c379a0000000000000000000000000000000000000000000000000000000008152600401610d1190611553565b60405180910390fd5b60001515600760159054906101000a900460ff16151514610d70576040517f08c379a0000000000000000000000000000000000000000000000000000000008152600401610d6790611533565b60405180910390fd5b600254803373ffffffffffffffffffffffffffffffffffffffff16311015610dcd576040517f08c379a0000000000000000000000000000000000000000000000000000000008152600401610dc490611513565b60405180910390fd5b43610de5600c5460095461101790919063ffffffff16565b1115610e26576040517f08c379a0000000000000000000000000000000000000000000000000000000008152600401610e1d90611593565b60405180910390fd5b6002543414610e3457600080fd5b7fdaec4582d5d9595688c8c98545fdd1c696d41c6aeaeb636737e84ed2f5c00eda3334604051610e659291906113d5565b60405180910390a16001600760146101000a81548160ff02191690831515021790555033600660006101000a81548173ffffffffffffffffffffffffffffffffffffffff021916908373ffffffffffffffffffffffffffffffffffffffff160217905550610ed1610bf3565b610eda57600080fd5b600760009054906101000a900473ffffffffffffffffffffffffffffffffffffffff1673ffffffffffffffffffffffffffffffffffffffff166108fc6002549081150290604051600060405180830381858888f19350505050158015610f44573d6000803e3d6000fd5b5050565b6000600154905090565b60045481565b60005481565b60035481565b600080731a02f38fad2b0fffd4662c6df1157937673aefca90508073ffffffffffffffffffffffffffffffffffffffff1663cc71d90a8585600b600a6000610fb9600c5460095461101790919063ffffffff16565b6040518763ffffffff1660e01b8152600401610fda96959493929190611427565b600060405180830381600087803b158015610ff457600080fd5b505af1158015611008573d6000803e3d6000fd5b50505050600191505092915050565b600080828401905083811015611062576040517f08c379a0000000000000000000000000000000000000000000000000000000008152600401611059906114f3565b60405180910390fd5b8091505092915050565b60008135905061107b816117a3565b92915050565b6000806040838503121561109457600080fd5b60006110a28582860161106c565b92505060206110b38582860161106c565b9150509250929050565b6110c681611717565b82525050565b6110d5816116cf565b82525050565b6110e4816116bd565b82525050565b6110f3816116e1565b82525050565b61110281611729565b82525050565b6000611113826116a1565b61111d81856116ac565b935061112d81856020860161175f565b61113681611792565b840191505092915050565b60008154600181166000811461115e5760018114611184576111c8565b607f600283041661116f81876116ac565b955060ff1983168652602086019350506111c8565b6002820461119281876116ac565b955061119d8561168f565b60005b828110156111bf578154818901526001820191506020810190506111a0565b80880195505050505b505092915050565b60006111dd6012836116ac565b91507f41737461206e6f6e207465726d696e61746100000000000000000000000000006000830152602082019050919050565b600061121d601b836116ac565b91507f536166654d6174683a206164646974696f6e206f766572666c6f7700000000006000830152602082019050919050565b600061125d6017836116ac565b91507f42616c616e6365206e6f6e2073756666696369656e74650000000000000000006000830152602082019050919050565b600061129d601d836116ac565b91507f4e6f6e20616371756973746162696c6520646972657474616d656e74650000006000830152602082019050919050565b60006112dd600e836116ac565b91507f41737461207465726d696e6174610000000000000000000000000000000000006000830152602082019050919050565b600061131d600f836116ac565b91507f4e6f6e206175746f72697a7a61746f00000000000000000000000000000000006000830152602082019050919050565b600061135d6010836116ac565b91507f41737461206e6f6e2061767669617461000000000000000000000000000000006000830152602082019050919050565b6113998161170d565b82525050565b60006020820190506113b460008301846110db565b92915050565b60006020820190506113cf60008301846110cc565b92915050565b60006040820190506113ea60008301856110bd565b6113f76020830184611390565b9392505050565b600060408201905061141360008301856110db565b61142060208301846110bd565b9392505050565b600060c08201905061143c60008301896110db565b61144960208301886110db565b818103604083015261145b8187611141565b9050818103606083015261146f8186611141565b905061147e60808301856110f9565b61148b60a0830184611390565b979650505050505050565b60006020820190506114ab60008301846110ea565b92915050565b600060208201905081810360008301526114cb8184611108565b905092915050565b600060208201905081810360008301526114ec816111d0565b9050919050565b6000602082019050818103600083015261150c81611210565b9050919050565b6000602082019050818103600083015261152c81611250565b9050919050565b6000602082019050818103600083015261154c81611290565b9050919050565b6000602082019050818103600083015261156c816112d0565b9050919050565b6000602082019050818103600083015261158c81611310565b9050919050565b600060208201905081810360008301526115ac81611350565b9050919050565b60006020820190506115c86000830184611390565b92915050565b6000610180820190506115e4600083018f611390565b6115f1602083018e611390565b6115fe604083018d611390565b61160b606083018c611390565b611618608083018b6110ea565b61162560a083018a6110ea565b61163260c0830189611390565b61163f60e0830188611390565b61164d610100830187611390565b61165b610120830186611390565b6116696101408301856110db565b81810361016083015261167c8184611108565b90509d9c50505050505050505050505050565b60008160005260206000209050919050565b600081519050919050565b600082825260208201905092915050565b60006116c8826116ed565b9050919050565b60006116da826116ed565b9050919050565b60008115159050919050565b600073ffffffffffffffffffffffffffffffffffffffff82169050919050565b6000819050919050565b60006117228261173b565b9050919050565b60006117348261170d565b9050919050565b60006117468261174d565b9050919050565b6000611758826116ed565b9050919050565b60005b8381101561177d578082015181840152602081019050611762565b8381111561178c576000848401525b50505050565b6000601f19601f8301169050919050565b6117ac816116bd565b81146117b757600080fd5b5056fea265627a7a723058203292ca3be493d9746fa5ae0a6fd66ae53d6dab0a857a147a9c0216366557256a6c6578706572696d656e74616cf50037",
  "source": "pragma solidity ^0.5.1;\nimport \"node_modules/openzeppelin-solidity/contracts/math/SafeMath.sol\";\npragma experimental ABIEncoderV2;\n\ncontract StorageInterface{\n    \n    function addContract(address creator, address contratto, string memory _url, string memory _titolo, uint tipo, uint bloccoInizio) public;\n    \n    function removeContract(address contrAddress, address winner) public;\n    \n    function getAllContracts() public view returns(address[] memory, address[] memory);\n    \n}\n\n\n\n\ncontract englishAuction {\n    using SafeMath for uint;\n    \n    // Offerta minima che deve essere fatta\n    uint public reservePrice;\n    \n    uint public minIcrement;\n    // Prezzo per l'acquisto diretto senza asta\n    uint public buyoutPrice;\n    \n    // Numero di blocchi che devono passare prima di terminare l'asta\n    uint public minBlocks;\n\n    \n    // Indirizzo che ha fatto l'offerta pi alta e offerta pi alta ricevuta\n    uint public highestBid=0;\n    address payable public highestBidder;\n    \n    // Indirizzo che ha comprato direttamente senza asta\n    address public buyer;\n    // Creatore dell'asta\n    address payable auctioneer;\n    \n    // Booleano usato per capire se l'asta  terminata o no\n    bool ended = false;\n    // booleano per capire se  stato fatto l'acquisto diretto senza asta\n    bool buyoutEnded = false;\n    \n    // usato per capire se l'asta  iniziata\n    bool started = false;\n    \n    // Blocco in cui  stata eseguita l'ultima offerta\n    uint startingBlock;\n    // blocco in cui creo l'asta\n    uint auctionStart;\n    // Due eventi, uno per dire che ho aumentato l'offerta e uno \n    // per indicare che l'asta  terminata\n    event HighestBidIncreased(address bidder, uint amount);\n    event AuctionEnded(address winner, uint amount);\n    \n    // titolo dell'asta e url di una foto del prodotto che voglio vendere\n    string title;\n    string URL;\n\n    // numero di blocchi che devono passare prima di iniziare l'asta\n    uint numBlockStart;\n    \n    /*\n        Parametri:\n        - _title: nome del prodotto che vogliamo mettere in vendita\n        - _URL: url di una immagine del prodotto che vogliamo vendere\n        - _reservePrice: prezzo base dell'asta \n        - _minIcrement: incremento minimo che deve esserci tra un'offerta e l'altra\n        - _buyoutPrice: prezzo per l'acquisto diretto \n        - _minBlocks: numero minimo di blocchi che devono passare prima di decretare il vincitore dell'asta\n    */\n    constructor(string memory _title, string memory _URL, uint _reservePrice, uint _minIcrement, uint _buyoutPrice, uint _minBlocks, uint _numBlockStart) public payable{\n        require(_reservePrice > 0);\n        require(_buyoutPrice > 0);\n        reservePrice = _reservePrice;\n        minIcrement = _minIcrement;\n        buyoutPrice = _buyoutPrice * 1 wei;\n        minBlocks = _minBlocks;\n        auctioneer = msg.sender;\n        title = _title;\n        URL = _URL;\n        numBlockStart = _numBlockStart;\n        auctionStart = block.number;\n        require(addToStorage(msg.sender, address(this)));\n    }\n    \n    function addToStorage(address sender, address contractAddress) public returns(bool success){\n        StorageInterface s = StorageInterface(0x1a02F38FAd2B0fffd4662C6DF1157937673AefcA);\n        s.addContract(sender, contractAddress, URL, title, 0, auctionStart.add(numBlockStart));\n        return true;\n    }\n\n    function removeFromStorage() public returns(bool success){\n        StorageInterface s = StorageInterface(0x1a02F38FAd2B0fffd4662C6DF1157937673AefcA);\n        s.removeContract(address(this), address(highestBidder));\n        return true;\n    }\n    \n    // Controllo che l'asta non sia terminata\n    modifier only_notEnded(){\n        require(!ended, \"Asta terminata\"); _;\n    }\n    \n    // Controllo che sia ancora possibile acquistare il prodotto\n    // direttamente e senza fare l'asta\n    modifier buyout_available(){\n        require(buyoutEnded == false, \"Non acquistabile direttamente\"); _;\n    }\n    \n    // Controllo che tra l'ultima offerta e quella che provo a fare\n    // non siano passati troppi blocchi\n    modifier bidAvailable(){\n        require(startingBlock < startingBlock.add(minBlocks), \"Bid Phase terminata\"); _;\n    }\n    \n    // Controlla che chi fa l'offerta abbia a disposizione un balance maggiore di \n    // quanto offre\n    modifier balanceAvailable(uint price){\n        require(msg.sender.balance >= price, \"Balance non sufficiente\"); _;\n    }\n    \n    /*\n        Controlla che il chiamante della funzione sia il creatore del contratto\n        oppure quello che ha vinto l'asta.\n    */\n    modifier onlyAuthorized() {\n         require(msg.sender == auctioneer || msg.sender == highestBidder, \"Non autorizzato\"); _;\n    }\n    \n    modifier only_when_FinalizePhase(){\n        require(startingBlock.add(minBlocks) < uint(block.number), \"Asta non terminata\"); _;\n    }\n    \n    // Controlla che la funzione sia stata chiamata dal creatore dell'asta\n    modifier only_auctioneer(){\n        require(msg.sender == auctioneer, \"Non sei l'auctioneer\"); _;\n    }\n    \n     // Controllo che l'asta sia stata avviata\n    modifier only_when_started(){\n        require(auctionStart.add(numBlockStart) <= block.number, \"Asta non avviata\"); _;\n    }\n    \n    \n    /*\n        Inizio dell'asta, solamente il creatore dell'asta pu avviarla\n    function openAuction() public only_auctioneer(){\n        require(started == false);\n        started = true;\n    \n    }\n    */\n    \n\n    /*\n        Funzione che permette di acquistare direttamente il prodotto senza \n        dover svolgere l'asta pagando il buyoutPrice.\n        Pu essere chiamata solamente se:\n        - l'asta non  terminata\n        -  ancora disponibile la possibilit di acquistare direttamente\n        - ho un balance sufficiente per acquistare\n        - Il valore di buyout  uguale a quello che invio\n        \n        Alla fine il valore che invio viene trasferito al creatore dell'asta.\n    */\n    function acquistoDiretto() public payable only_notEnded() buyout_available() balanceAvailable(buyoutPrice) only_when_started(){\n        \n        require(msg.value == buyoutPrice);\n        \n        emit AuctionEnded(msg.sender, msg.value);\n        ended = true;\n        buyer = msg.sender;\n        require(removeFromStorage());\n        auctioneer.transfer(buyoutPrice);\n        \n    }\n    \n    /*\n        Funzione che permette di eseguire un'offerta.\n        Viene eseguita se:\n        - l'asta non  gi terminata\n        - chi invia l'offerta ha un balance maggiore di quello che offre\n        - Se tra il bid precedente e il successivo non sono passati troppi blocchi\n    */\n    function bid() public payable only_notEnded() balanceAvailable(msg.value) only_when_started(){\n        \n        // Prima offerta che arriva, in questo caso posso fare un'offerta pari al minimo\n        // e non devo controllare che sia terminata la fase di bid\n        if(buyoutEnded == false){\n           \n            require(msg.value >= reservePrice);\n            buyoutEnded = true;\n        }\n        else{\n            // offerte successive alla prima, in questo caso devo fare un'offerta maggiore della precedente pi il minimo incremento\n            // una volta ricevuta l'offerta devo anche restituire i soldi al precedente bidder\n            require(block.number <= startingBlock.add(minBlocks));\n            require(msg.value >= highestBid.add(minIcrement));\n        }\n        \n        uint value = highestBid;\n        address payable receiver = highestBidder;\n        \n        highestBid = msg.value;\n        highestBidder = msg.sender;\n        startingBlock = uint(block.number);\n        emit HighestBidIncreased(highestBidder, highestBid);\n        \n        // Serve l'if perch alla prima offerta che ricevo non devo restituire soldi\n        if(value != 0 && receiver != address(0)){\n            receiver.transfer(value);\n        }\n    }\n    \n    \n    /*\n        Funzione che pu essere chiamata solamente se:\n        - l'asta non  gi terminata\n        - solo dal vincitore o da chi ha creato l'asta\n        - solamente dopo che non posso fare altre offerte\n        Qua trasferisco i soldi che sono stati offerti al creatore del contratto e \n        termino l'asta emettendo anche un evento.\n    */\n    function finalize() external payable only_notEnded() onlyAuthorized() only_when_FinalizePhase() only_when_started(){\n        ended = true;\n        emit AuctionEnded(highestBidder, highestBid);\n        require(removeFromStorage());\n        auctioneer.transfer(highestBid);\n    }\n    \n    /*\n        Funzione che restituisce l'address che ha fatto l'offerta pi alta\n    */\n    function getHighestBidder() public view returns(address){\n        return highestBidder;\n    }\n    \n    /*\n        Funzione che restituisce l'offerta pi alta\n    */\n    function getHighestBid() public view returns(uint){\n        return highestBid;\n    }\n    \n    /*\n        Funzione che restituisce il prezzo dell'acquisto diretto\n    */ \n    function getBuyoutPrice() public view returns(uint){\n        return buyoutPrice;\n    }\n    \n    /*\n        Funzione che restituisce l'incremento minimo da fare rispetto all'offerta pi alta\n    */\n    function getMinIncrement() public view returns(uint){\n        return minIcrement;\n    }\n\n    function getAllData() public view returns(uint, uint, uint, uint, bool, bool, uint, uint, uint, uint, address, string memory){\n        \n        return (minIcrement, highestBid, buyoutPrice, reservePrice, ended, buyoutEnded, auctionStart, numBlockStart, startingBlock, minBlocks, highestBidder, title);\n    }\n\n    function getURL() public view returns(string memory){\n        return URL;\n    }\n\n\n    \n}",
  "sourcePath": "/Users/lucacorbucci/Documents/GitHub/SmartAuctions/Frontend/contracts/English.sol",
  "compiler": {
    "name": "solc",
    "version": "0.5.8+commit.23d335f2.Emscripten.clang"
  },
  "schemaVersion": "3.0.11",
  "updatedAt": "2019-06-25T16:32:33.884Z",
  "devdoc": {
    "methods": {}
  },
  "userdoc": {
    "methods": {}
  }
}