{
  "contractName": "englishAuction",
  "abi": [
    {
      "constant": true,
      "inputs": [],
      "name": "minIcrement",
      "outputs": [
        {
          "name": "",
          "type": "uint256"
        }
      ],
      "payable": false,
      "stateMutability": "view",
      "type": "function"
    },
    {
      "constant": true,
      "inputs": [],
      "name": "buyer",
      "outputs": [
        {
          "name": "",
          "type": "address"
        }
      ],
      "payable": false,
      "stateMutability": "view",
      "type": "function"
    },
    {
      "constant": true,
      "inputs": [],
      "name": "buyoutPrice",
      "outputs": [
        {
          "name": "",
          "type": "uint256"
        }
      ],
      "payable": false,
      "stateMutability": "view",
      "type": "function"
    },
    {
      "constant": true,
      "inputs": [],
      "name": "highestBidder",
      "outputs": [
        {
          "name": "",
          "type": "address"
        }
      ],
      "payable": false,
      "stateMutability": "view",
      "type": "function"
    },
    {
      "constant": true,
      "inputs": [],
      "name": "highestBid",
      "outputs": [
        {
          "name": "",
          "type": "uint256"
        }
      ],
      "payable": false,
      "stateMutability": "view",
      "type": "function"
    },
    {
      "constant": true,
      "inputs": [],
      "name": "reservePrice",
      "outputs": [
        {
          "name": "",
          "type": "uint256"
        }
      ],
      "payable": false,
      "stateMutability": "view",
      "type": "function"
    },
    {
      "constant": true,
      "inputs": [],
      "name": "minBlocks",
      "outputs": [
        {
          "name": "",
          "type": "uint256"
        }
      ],
      "payable": false,
      "stateMutability": "view",
      "type": "function"
    },
    {
      "inputs": [
        {
          "name": "_title",
          "type": "string"
        },
        {
          "name": "_URL",
          "type": "string"
        },
        {
          "name": "_reservePrice",
          "type": "uint256"
        },
        {
          "name": "_minIcrement",
          "type": "uint256"
        },
        {
          "name": "_buyoutPrice",
          "type": "uint256"
        },
        {
          "name": "_minBlocks",
          "type": "uint256"
        },
        {
          "name": "_numBlockStart",
          "type": "uint256"
        }
      ],
      "payable": true,
      "stateMutability": "payable",
      "type": "constructor"
    },
    {
      "anonymous": false,
      "inputs": [
        {
          "indexed": false,
          "name": "bidder",
          "type": "address"
        },
        {
          "indexed": false,
          "name": "amount",
          "type": "uint256"
        }
      ],
      "name": "HighestBidIncreased",
      "type": "event"
    },
    {
      "anonymous": false,
      "inputs": [
        {
          "indexed": false,
          "name": "winner",
          "type": "address"
        },
        {
          "indexed": false,
          "name": "amount",
          "type": "uint256"
        }
      ],
      "name": "AuctionEnded",
      "type": "event"
    },
    {
      "constant": false,
      "inputs": [
        {
          "name": "sender",
          "type": "address"
        },
        {
          "name": "contractAddress",
          "type": "address"
        }
      ],
      "name": "addToStorage",
      "outputs": [
        {
          "name": "success",
          "type": "bool"
        }
      ],
      "payable": false,
      "stateMutability": "nonpayable",
      "type": "function"
    },
    {
      "constant": false,
      "inputs": [],
      "name": "removeFromStorage",
      "outputs": [
        {
          "name": "success",
          "type": "bool"
        }
      ],
      "payable": false,
      "stateMutability": "nonpayable",
      "type": "function"
    },
    {
      "constant": false,
      "inputs": [],
      "name": "acquistoDiretto",
      "outputs": [],
      "payable": true,
      "stateMutability": "payable",
      "type": "function"
    },
    {
      "constant": false,
      "inputs": [],
      "name": "bid",
      "outputs": [],
      "payable": true,
      "stateMutability": "payable",
      "type": "function"
    },
    {
      "constant": false,
      "inputs": [],
      "name": "finalize",
      "outputs": [],
      "payable": true,
      "stateMutability": "payable",
      "type": "function"
    },
    {
      "constant": true,
      "inputs": [],
      "name": "getHighestBidder",
      "outputs": [
        {
          "name": "",
          "type": "address"
        }
      ],
      "payable": false,
      "stateMutability": "view",
      "type": "function"
    },
    {
      "constant": true,
      "inputs": [],
      "name": "getHighestBid",
      "outputs": [
        {
          "name": "",
          "type": "uint256"
        }
      ],
      "payable": false,
      "stateMutability": "view",
      "type": "function"
    },
    {
      "constant": true,
      "inputs": [],
      "name": "getBuyoutPrice",
      "outputs": [
        {
          "name": "",
          "type": "uint256"
        }
      ],
      "payable": false,
      "stateMutability": "view",
      "type": "function"
    },
    {
      "constant": true,
      "inputs": [],
      "name": "getMinIncrement",
      "outputs": [
        {
          "name": "",
          "type": "uint256"
        }
      ],
      "payable": false,
      "stateMutability": "view",
      "type": "function"
    },
    {
      "constant": true,
      "inputs": [],
      "name": "getAllData",
      "outputs": [
        {
          "name": "",
          "type": "uint256"
        },
        {
          "name": "",
          "type": "uint256"
        },
        {
          "name": "",
          "type": "uint256"
        },
        {
          "name": "",
          "type": "uint256"
        },
        {
          "name": "",
          "type": "bool"
        },
        {
          "name": "",
          "type": "bool"
        }
      ],
      "payable": false,
      "stateMutability": "view",
      "type": "function"
    }
  ],
  "bytecode": "0x608060405260006004556000600760146101000a81548160ff0219169083151502179055506000600760156101000a81548160ff0219169083151502179055506000600760166101000a81548160ff02191690831515021790555060405162001b0938038062001b0983398101806040526200007f919081019062000325565b600085116200008d57600080fd5b600083116200009b57600080fd5b8460008190555083600181905550600183026002819055508160038190555033600760006101000a81548173ffffffffffffffffffffffffffffffffffffffff021916908373ffffffffffffffffffffffffffffffffffffffff16021790555086600a90805190602001906200011392919062000203565b5085600b90805190602001906200012c92919062000203565b5080600c81905550436009819055506200014d33306200016460201b60201c565b6200015757600080fd5b505050505050506200064c565b6000807347308f0d2437043ce8d76cf5821bc275ec75553790508073ffffffffffffffffffffffffffffffffffffffff1663b906c6b58585600b600a60006040518663ffffffff1660e01b8152600401620001c4959493929190620004c1565b600060405180830381600087803b158015620001df57600080fd5b505af1158015620001f4573d6000803e3d6000fd5b50505050600191505092915050565b828054600181600116156101000203166002900490600052602060002090601f016020900481019282601f106200024657805160ff191683800117855562000277565b8280016001018555821562000277579182015b828111156200027657825182559160200191906001019062000259565b5b5090506200028691906200028a565b5090565b620002af91905b80821115620002ab57600081600090555060010162000291565b5090565b90565b600082601f830112620002c457600080fd5b8151620002db620002d5826200055a565b6200052c565b91508082526020830160208301858383011115620002f857600080fd5b62000305838284620005fc565b50505092915050565b6000815190506200031f8162000632565b92915050565b600080600080600080600060e0888a0312156200034157600080fd5b600088015167ffffffffffffffff8111156200035c57600080fd5b6200036a8a828b01620002b2565b975050602088015167ffffffffffffffff8111156200038857600080fd5b620003968a828b01620002b2565b9650506040620003a98a828b016200030e565b9550506060620003bc8a828b016200030e565b9450506080620003cf8a828b016200030e565b93505060a0620003e28a828b016200030e565b92505060c0620003f58a828b016200030e565b91505092959891949750929550565b6200040f81620005aa565b82525050565b6200042081620005e8565b82525050565b6000815460018116600081146200044657600181146200046f57620004b9565b607f600283041662000459818762000599565b955060ff198316865260208601935050620004b9565b600282046200047f818762000599565b95506200048c8562000587565b60005b82811015620004b0578154818901526001820191506020810190506200048f565b80880195505050505b505092915050565b600060a082019050620004d8600083018862000404565b620004e7602083018762000404565b8181036040830152620004fb818662000426565b9050818103606083015262000511818562000426565b905062000522608083018462000415565b9695505050505050565b6000604051905081810181811067ffffffffffffffff821117156200055057600080fd5b8060405250919050565b600067ffffffffffffffff8211156200057257600080fd5b601f19601f8301169050602081019050919050565b60008160005260206000209050919050565b600082825260208201905092915050565b6000620005b782620005be565b9050919050565b600073ffffffffffffffffffffffffffffffffffffffff82169050919050565b6000819050919050565b6000620005f582620005de565b9050919050565b60005b838110156200061c578082015181840152602081019050620005ff565b838111156200062c576000848401525b50505050565b6200063d81620005de565b81146200064957600080fd5b50565b6114ad806200065c6000396000f3fe6080604052600436106100fd5760003560e01c80637f3d06a611610095578063ade751bd11610064578063ade751bd146102a8578063d57bde79146102d3578063db2e1eed146102fe578063ff21d1e514610329578063ff29059914610354576100fd565b80637f3d06a61461021d5780638025856f1461024857806391f9015714610273578063acaee58f1461029e576100fd565b80634bb278f3116100d15780634bb278f3146101925780636560cb301461019c5780636c2b707a146101c75780637150d8ae146101f2576100fd565b80623495a4146101025780631998aeef1461012d5780632d10fa28146101375780634979440a14610167575b600080fd5b34801561010e57600080fd5b50610117610391565b6040516101249190611160565b60405180910390f35b6101356103bb565b005b34801561014357600080fd5b5061014c6106bb565b60405161015e96959493929190611336565b60405180910390f35b34801561017357600080fd5b5061017c610704565b604051610189919061131b565b60405180910390f35b61019a61070e565b005b3480156101a857600080fd5b506101b16109ed565b6040516101be919061131b565b60405180910390f35b3480156101d357600080fd5b506101dc6109f3565b6040516101e9919061131b565b60405180910390f35b3480156101fe57600080fd5b506102076109fd565b6040516102149190611160565b60405180910390f35b34801561022957600080fd5b50610232610a23565b60405161023f919061131b565b60405180910390f35b34801561025457600080fd5b5061025d610a29565b60405161026a9190611220565b60405180910390f35b34801561027f57600080fd5b50610288610ab6565b604051610295919061117b565b60405180910390f35b6102a6610adc565b005b3480156102b457600080fd5b506102bd610d5a565b6040516102ca919061131b565b60405180910390f35b3480156102df57600080fd5b506102e8610d64565b6040516102f5919061131b565b60405180910390f35b34801561030a57600080fd5b50610313610d6a565b604051610320919061131b565b60405180910390f35b34801561033557600080fd5b5061033e610d70565b60405161034b919061131b565b60405180910390f35b34801561036057600080fd5b5061037b60048036036103769190810190610e7b565b610d76565b6040516103889190611220565b60405180910390f35b6000600560009054906101000a900473ffffffffffffffffffffffffffffffffffffffff16905090565b600760149054906101000a900460ff161561040b576040517f08c379a0000000000000000000000000000000000000000000000000000000008152600401610402906112bb565b60405180910390fd5b34803373ffffffffffffffffffffffffffffffffffffffff16311015610466576040517f08c379a000000000000000000000000000000000000000000000000000000000815260040161045d9061127b565b60405180910390fd5b4361047e600c54600954610e1190919063ffffffff16565b11156104bf576040517f08c379a00000000000000000000000000000000000000000000000000000000081526004016104b6906112fb565b60405180910390fd5b60001515600760159054906101000a900460ff161515141561050a576000543410156104ea57600080fd5b6001600760156101000a81548160ff021916908315150217905550610551565b610521600354600854610e1190919063ffffffff16565b43111561052d57600080fd5b610544600154600454610e1190919063ffffffff16565b34101561055057600080fd5b5b600060045490506000600560009054906101000a900473ffffffffffffffffffffffffffffffffffffffff1690503460048190555033600560006101000a81548173ffffffffffffffffffffffffffffffffffffffff021916908373ffffffffffffffffffffffffffffffffffffffff160217905550436008819055507ff4757a49b326036464bec6fe419a4ae38c8a02ce3e68bf0809674f6aab8ad300600560009054906101000a900473ffffffffffffffffffffffffffffffffffffffff16600454604051610623929190611196565b60405180910390a1600082141580156106695750600073ffffffffffffffffffffffffffffffffffffffff168173ffffffffffffffffffffffffffffffffffffffff1614155b156106b6578073ffffffffffffffffffffffffffffffffffffffff166108fc839081150290604051600060405180830381858888f193505050501580156106b4573d6000803e3d6000fd5b505b505050565b600080600080600080600154600454600254600054600760149054906101000a900460ff16600760159054906101000a900460ff16955095509550955095509550909192939495565b6000600454905090565b600760149054906101000a900460ff161561075e576040517f08c379a0000000000000000000000000000000000000000000000000000000008152600401610755906112bb565b60405180910390fd5b600760009054906101000a900473ffffffffffffffffffffffffffffffffffffffff1673ffffffffffffffffffffffffffffffffffffffff163373ffffffffffffffffffffffffffffffffffffffff1614806108075750600560009054906101000a900473ffffffffffffffffffffffffffffffffffffffff1673ffffffffffffffffffffffffffffffffffffffff163373ffffffffffffffffffffffffffffffffffffffff16145b610846576040517f08c379a000000000000000000000000000000000000000000000000000000000815260040161083d906112db565b60405180910390fd5b4361085e600354600854610e1190919063ffffffff16565b1061089e576040517f08c379a00000000000000000000000000000000000000000000000000000000081526004016108959061123b565b60405180910390fd5b436108b6600c54600954610e1190919063ffffffff16565b11156108f7576040517f08c379a00000000000000000000000000000000000000000000000000000000081526004016108ee906112fb565b60405180910390fd5b6001600760146101000a81548160ff0219169083151502179055507fdaec4582d5d9595688c8c98545fdd1c696d41c6aeaeb636737e84ed2f5c00eda600560009054906101000a900473ffffffffffffffffffffffffffffffffffffffff16600454604051610967929190611196565b60405180910390a1610977610a29565b61098057600080fd5b600760009054906101000a900473ffffffffffffffffffffffffffffffffffffffff1673ffffffffffffffffffffffffffffffffffffffff166108fc6004549081150290604051600060405180830381858888f193505050501580156109ea573d6000803e3d6000fd5b50565b60015481565b6000600254905090565b600660009054906101000a900473ffffffffffffffffffffffffffffffffffffffff1681565b60025481565b6000807347308f0d2437043ce8d76cf5821bc275ec75553790508073ffffffffffffffffffffffffffffffffffffffff1663c375c2ef306040518263ffffffff1660e01b8152600401610a7c9190611160565b600060405180830381600087803b158015610a9657600080fd5b505af1158015610aaa573d6000803e3d6000fd5b50505050600191505090565b600560009054906101000a900473ffffffffffffffffffffffffffffffffffffffff1681565b600760149054906101000a900460ff1615610b2c576040517f08c379a0000000000000000000000000000000000000000000000000000000008152600401610b23906112bb565b60405180910390fd5b60001515600760159054906101000a900460ff16151514610b82576040517f08c379a0000000000000000000000000000000000000000000000000000000008152600401610b799061129b565b60405180910390fd5b600254803373ffffffffffffffffffffffffffffffffffffffff16311015610bdf576040517f08c379a0000000000000000000000000000000000000000000000000000000008152600401610bd69061127b565b60405180910390fd5b43610bf7600c54600954610e1190919063ffffffff16565b1115610c38576040517f08c379a0000000000000000000000000000000000000000000000000000000008152600401610c2f906112fb565b60405180910390fd5b6002543414610c4657600080fd5b7fdaec4582d5d9595688c8c98545fdd1c696d41c6aeaeb636737e84ed2f5c00eda3334604051610c77929190611196565b60405180910390a16001600760146101000a81548160ff02191690831515021790555033600660006101000a81548173ffffffffffffffffffffffffffffffffffffffff021916908373ffffffffffffffffffffffffffffffffffffffff160217905550610ce3610a29565b610cec57600080fd5b600760009054906101000a900473ffffffffffffffffffffffffffffffffffffffff1673ffffffffffffffffffffffffffffffffffffffff166108fc6002549081150290604051600060405180830381858888f19350505050158015610d56573d6000803e3d6000fd5b5050565b6000600154905090565b60045481565b60005481565b60035481565b6000807347308f0d2437043ce8d76cf5821bc275ec75553790508073ffffffffffffffffffffffffffffffffffffffff1663b906c6b58585600b600a60006040518663ffffffff1660e01b8152600401610dd49594939291906111bf565b600060405180830381600087803b158015610dee57600080fd5b505af1158015610e02573d6000803e3d6000fd5b50505050600191505092915050565b600080828401905083811015610e5c576040517f08c379a0000000000000000000000000000000000000000000000000000000008152600401610e539061125b565b60405180910390fd5b8091505092915050565b600081359050610e758161145c565b92915050565b60008060408385031215610e8e57600080fd5b6000610e9c85828601610e66565b9250506020610ead85828601610e66565b9150509250929050565b610ec081611414565b82525050565b610ecf816113cc565b82525050565b610ede816113ba565b82525050565b610eed816113de565b82525050565b610efc81611426565b82525050565b600081546001811660008114610f1f5760018114610f4557610f89565b607f6002830416610f3081876113a9565b955060ff198316865260208601935050610f89565b60028204610f5381876113a9565b9550610f5e85611397565b60005b82811015610f8057815481890152600182019150602081019050610f61565b80880195505050505b505092915050565b6000610f9e6012836113a9565b91507f41737461206e6f6e207465726d696e61746100000000000000000000000000006000830152602082019050919050565b6000610fde601b836113a9565b91507f536166654d6174683a206164646974696f6e206f766572666c6f7700000000006000830152602082019050919050565b600061101e6017836113a9565b91507f42616c616e6365206e6f6e2073756666696369656e74650000000000000000006000830152602082019050919050565b600061105e601d836113a9565b91507f4e6f6e20616371756973746162696c6520646972657474616d656e74650000006000830152602082019050919050565b600061109e600e836113a9565b91507f41737461207465726d696e6174610000000000000000000000000000000000006000830152602082019050919050565b60006110de600f836113a9565b91507f4e6f6e206175746f72697a7a61746f00000000000000000000000000000000006000830152602082019050919050565b600061111e6010836113a9565b91507f41737461206e6f6e2061767669617461000000000000000000000000000000006000830152602082019050919050565b61115a8161140a565b82525050565b60006020820190506111756000830184610ed5565b92915050565b60006020820190506111906000830184610ec6565b92915050565b60006040820190506111ab6000830185610eb7565b6111b86020830184611151565b9392505050565b600060a0820190506111d46000830188610ed5565b6111e16020830187610ed5565b81810360408301526111f38186610f02565b905081810360608301526112078185610f02565b90506112166080830184610ef3565b9695505050505050565b60006020820190506112356000830184610ee4565b92915050565b6000602082019050818103600083015261125481610f91565b9050919050565b6000602082019050818103600083015261127481610fd1565b9050919050565b6000602082019050818103600083015261129481611011565b9050919050565b600060208201905081810360008301526112b481611051565b9050919050565b600060208201905081810360008301526112d481611091565b9050919050565b600060208201905081810360008301526112f4816110d1565b9050919050565b6000602082019050818103600083015261131481611111565b9050919050565b60006020820190506113306000830184611151565b92915050565b600060c08201905061134b6000830189611151565b6113586020830188611151565b6113656040830187611151565b6113726060830186611151565b61137f6080830185610ee4565b61138c60a0830184610ee4565b979650505050505050565b60008160005260206000209050919050565b600082825260208201905092915050565b60006113c5826113ea565b9050919050565b60006113d7826113ea565b9050919050565b60008115159050919050565b600073ffffffffffffffffffffffffffffffffffffffff82169050919050565b6000819050919050565b600061141f82611438565b9050919050565b60006114318261140a565b9050919050565b60006114438261144a565b9050919050565b6000611455826113ea565b9050919050565b611465816113ba565b811461147057600080fd5b5056fea265627a7a723058204725c40b43ae212b447a850ecb7cbe834f348afc26664cdd792f560efbd1ee6e6c6578706572696d656e74616cf50037",
  "source": "pragma solidity ^0.5.1;\nimport \"node_modules/openzeppelin-solidity/contracts/math/SafeMath.sol\";\npragma experimental ABIEncoderV2;\n\ncontract StorageInterface{\n    \n    function addContract(address creator, address contratto, string memory _url, string memory _titolo, uint tipo) public;\n    \n    function removeContract(address contr) public;\n    \n    function getAllContracts() public view returns(address[] memory, address[] memory);\n    \n}\n\n\n\n\ncontract englishAuction {\n    using SafeMath for uint;\n    \n    // Offerta minima che deve essere fatta\n    uint public reservePrice;\n    \n    uint public minIcrement;\n    // Prezzo per l'acquisto diretto senza asta\n    uint public buyoutPrice;\n    \n    // Numero di blocchi che devono passare prima di terminare l'asta\n    uint public minBlocks;\n\n    \n    // Indirizzo che ha fatto l'offerta pi alta e offerta pi alta ricevuta\n    uint public highestBid=0;\n    address payable public highestBidder;\n    \n    // Indirizzo che ha comprato direttamente senza asta\n    address public buyer;\n    // Creatore dell'asta\n    address payable auctioneer;\n    \n    // Booleano usato per capire se l'asta  terminata o no\n    bool ended = false;\n    // booleano per capire se  stato fatto l'acquisto diretto senza asta\n    bool buyoutEnded = false;\n    \n    // usato per capire se l'asta  iniziata\n    bool started = false;\n    \n    // Blocco in cui  stata eseguita l'ultima offerta\n    uint startingBlock;\n    uint auctionStart;\n    // Due eventi, uno per dire che ho aumentato l'offerta e uno \n    // per indicare che l'asta  terminata\n    event HighestBidIncreased(address bidder, uint amount);\n    event AuctionEnded(address winner, uint amount);\n    \n    // titolo dell'asta e url di una foto del prodotto che voglio vendere\n    string title;\n    string URL;\n\n    // numero di blocchi che devono passare prima di iniziare l'asta\n    uint numBlockStart;\n    \n    /*\n        Parametri:\n        - _title: nome del prodotto che vogliamo mettere in vendita\n        - _URL: url di una immagine del prodotto che vogliamo vendere\n        - _reservePrice: prezzo base dell'asta \n        - _minIcrement: incremento minimo che deve esserci tra un'offerta e l'altra\n        - _buyoutPrice: prezzo per l'acquisto diretto \n        - _minBlocks: numero minimo di blocchi che devono passare prima di decretare il vincitore dell'asta\n    */\n    constructor(string memory _title, string memory _URL, uint _reservePrice, uint _minIcrement, uint _buyoutPrice, uint _minBlocks, uint _numBlockStart) public payable{\n        require(_reservePrice > 0);\n        require(_buyoutPrice > 0);\n        reservePrice = _reservePrice;\n        minIcrement = _minIcrement;\n        buyoutPrice = _buyoutPrice * 1 wei;\n        minBlocks = _minBlocks;\n        auctioneer = msg.sender;\n        title = _title;\n        URL = _URL;\n        numBlockStart = _numBlockStart;\n        auctionStart = block.number;\n        require(addToStorage(msg.sender, address(this)));\n    }\n    \n    function addToStorage(address sender, address contractAddress) public returns(bool success){\n        StorageInterface s = StorageInterface(0x47308F0D2437043cE8D76cf5821BC275eC755537);\n        s.addContract(sender, contractAddress, URL, title, 0);\n        return true;\n    }\n\n    function removeFromStorage() public returns(bool success){\n        StorageInterface s = StorageInterface(0x47308F0D2437043cE8D76cf5821BC275eC755537);\n        s.removeContract(address(this));\n        return true;\n    }\n    \n    // Controllo che l'asta non sia terminata\n    modifier only_notEnded(){\n        require(!ended, \"Asta terminata\"); _;\n    }\n    \n    // Controllo che sia ancora possibile acquistare il prodotto\n    // direttamente e senza fare l'asta\n    modifier buyout_available(){\n        require(buyoutEnded == false, \"Non acquistabile direttamente\"); _;\n    }\n    \n    // Controllo che tra l'ultima offerta e quella che provo a fare\n    // non siano passati troppi blocchi\n    modifier bidAvailable(){\n        require(startingBlock < startingBlock.add(minBlocks), \"Bid Phase terminata\"); _;\n    }\n    \n    // Controlla che chi fa l'offerta abbia a disposizione un balance maggiore di \n    // quanto offre\n    modifier balanceAvailable(uint price){\n        require(msg.sender.balance >= price, \"Balance non sufficiente\"); _;\n    }\n    \n    /*\n        Controlla che il chiamante della funzione sia il creatore del contratto\n        oppure quello che ha vinto l'asta.\n    */\n    modifier onlyAuthorized() {\n         require(msg.sender == auctioneer || msg.sender == highestBidder, \"Non autorizzato\"); _;\n    }\n    \n    modifier only_when_FinalizePhase(){\n        require(startingBlock.add(minBlocks) < uint(block.number), \"Asta non terminata\"); _;\n    }\n    \n    // Controlla che la funzione sia stata chiamata dal creatore dell'asta\n    modifier only_auctioneer(){\n        require(msg.sender == auctioneer, \"Non sei l'auctioneer\"); _;\n    }\n    \n     // Controllo che l'asta sia stata avviata\n    modifier only_when_started(){\n        require(auctionStart.add(numBlockStart) <= block.number, \"Asta non avviata\"); _;\n    }\n    \n    \n    /*\n        Inizio dell'asta, solamente il creatore dell'asta pu avviarla\n    function openAuction() public only_auctioneer(){\n        require(started == false);\n        started = true;\n    \n    }\n    */\n    \n\n    /*\n        Funzione che permette di acquistare direttamente il prodotto senza \n        dover svolgere l'asta pagando il buyoutPrice.\n        Pu essere chiamata solamente se:\n        - l'asta non  terminata\n        -  ancora disponibile la possibilit di acquistare direttamente\n        - ho un balance sufficiente per acquistare\n        - Il valore di buyout  uguale a quello che invio\n        \n        Alla fine il valore che invio viene trasferito al creatore dell'asta.\n    */\n    function acquistoDiretto() public payable only_notEnded() buyout_available() balanceAvailable(buyoutPrice) only_when_started(){\n        \n        require(msg.value == buyoutPrice);\n        \n        emit AuctionEnded(msg.sender, msg.value);\n        ended = true;\n        buyer = msg.sender;\n        require(removeFromStorage());\n        auctioneer.transfer(buyoutPrice);\n        \n    }\n    \n    /*\n        Funzione che permette di eseguire un'offerta.\n        Viene eseguita se:\n        - l'asta non  gi terminata\n        - chi invia l'offerta ha un balance maggiore di quello che offre\n        - Se tra il bid precedente e il successivo non sono passati troppi blocchi\n    */\n    function bid() public payable only_notEnded() balanceAvailable(msg.value) only_when_started(){\n        \n        // Prima offerta che arriva, in questo caso posso fare un'offerta pari al minimo\n        // e non devo controllare che sia terminata la fase di bid\n        if(buyoutEnded == false){\n           \n            require(msg.value >= reservePrice);\n            buyoutEnded = true;\n        }\n        else{\n            // offerte successive alla prima, in questo caso devo fare un'offerta maggiore della precedente pi il minimo incremento\n            // una volta ricevuta l'offerta devo anche restituire i soldi al precedente bidder\n            require(block.number <= startingBlock.add(minBlocks));\n            require(msg.value >= highestBid.add(minIcrement));\n        }\n        \n        uint value = highestBid;\n        address payable receiver = highestBidder;\n        \n        highestBid = msg.value;\n        highestBidder = msg.sender;\n        startingBlock = uint(block.number);\n        emit HighestBidIncreased(highestBidder, highestBid);\n        \n        // Serve l'if perch alla prima offerta che ricevo non devo restituire soldi\n        if(value != 0 && receiver != address(0)){\n            receiver.transfer(value);\n        }\n    }\n    \n    /*\n        Funzione che pu essere chiamata solamente se:\n        - l'asta non  gi terminata\n        - solo dal vincitore o da chi ha creato l'asta\n        - solamente dopo che non posso fare altre offerte\n        Qua trasferisco i soldi che sono stati offerti al creatore del contratto e \n        termino l'asta emettendo anche un evento.\n    */\n    function finalize() external payable only_notEnded() onlyAuthorized() only_when_FinalizePhase() only_when_started(){\n        ended = true;\n        emit AuctionEnded(highestBidder, highestBid);\n        require(removeFromStorage());\n        auctioneer.transfer(highestBid);\n    }\n    \n    /*\n        Funzione che restituisce l'address che ha fatto l'offerta pi alta\n    */\n    function getHighestBidder() public view returns(address){\n        return highestBidder;\n    }\n    \n    /*\n        Funzione che restituisce l'offerta pi alta\n    */\n    function getHighestBid() public view returns(uint){\n        return highestBid;\n    }\n    \n    /*\n        Funzione che restituisce il prezzo dell'acquisto diretto\n    */ \n    function getBuyoutPrice() public view returns(uint){\n        return buyoutPrice;\n    }\n    \n    /*\n        Funzione che restituisce l'incremento minimo da fare rispetto all'offerta pi alta\n    */\n    function getMinIncrement() public view returns(uint){\n        return minIcrement;\n    }\n\n    function getAllData() public view returns(uint, uint, uint, uint, bool, bool){\n        \n        return (minIcrement, highestBid, buyoutPrice, reservePrice, ended, buyoutEnded);\n    }\n\n\n    \n}",
  "sourcePath": "/Users/lucacorbucci/Documents/GitHub/SmartAuctions/Frontend/contracts/English.sol",
  "compiler": {
    "name": "solc",
    "version": "0.5.8+commit.23d335f2.Emscripten.clang"
  },
  "schemaVersion": "3.0.11",
  "updatedAt": "2019-06-21T20:49:41.865Z",
  "devdoc": {
    "methods": {}
  },
  "userdoc": {
    "methods": {}
  }
}