{
  "contractName": "englishAuction",
  "abi": [
    {
      "constant": true,
      "inputs": [],
      "name": "minIcrement",
      "outputs": [
        {
          "name": "",
          "type": "uint256"
        }
      ],
      "payable": false,
      "stateMutability": "view",
      "type": "function"
    },
    {
      "constant": true,
      "inputs": [],
      "name": "buyer",
      "outputs": [
        {
          "name": "",
          "type": "address"
        }
      ],
      "payable": false,
      "stateMutability": "view",
      "type": "function"
    },
    {
      "constant": true,
      "inputs": [],
      "name": "buyoutPrice",
      "outputs": [
        {
          "name": "",
          "type": "uint256"
        }
      ],
      "payable": false,
      "stateMutability": "view",
      "type": "function"
    },
    {
      "constant": true,
      "inputs": [],
      "name": "highestBidder",
      "outputs": [
        {
          "name": "",
          "type": "address"
        }
      ],
      "payable": false,
      "stateMutability": "view",
      "type": "function"
    },
    {
      "constant": true,
      "inputs": [],
      "name": "highestBid",
      "outputs": [
        {
          "name": "",
          "type": "uint256"
        }
      ],
      "payable": false,
      "stateMutability": "view",
      "type": "function"
    },
    {
      "constant": true,
      "inputs": [],
      "name": "reservePrice",
      "outputs": [
        {
          "name": "",
          "type": "uint256"
        }
      ],
      "payable": false,
      "stateMutability": "view",
      "type": "function"
    },
    {
      "constant": true,
      "inputs": [],
      "name": "minBlocks",
      "outputs": [
        {
          "name": "",
          "type": "uint256"
        }
      ],
      "payable": false,
      "stateMutability": "view",
      "type": "function"
    },
    {
      "inputs": [
        {
          "name": "_title",
          "type": "string"
        },
        {
          "name": "_URL",
          "type": "string"
        },
        {
          "name": "_reservePrice",
          "type": "uint256"
        },
        {
          "name": "_minIcrement",
          "type": "uint256"
        },
        {
          "name": "_buyoutPrice",
          "type": "uint256"
        },
        {
          "name": "_minBlocks",
          "type": "uint256"
        }
      ],
      "payable": true,
      "stateMutability": "payable",
      "type": "constructor"
    },
    {
      "anonymous": false,
      "inputs": [
        {
          "indexed": false,
          "name": "bidder",
          "type": "address"
        },
        {
          "indexed": false,
          "name": "amount",
          "type": "uint256"
        }
      ],
      "name": "HighestBidIncreased",
      "type": "event"
    },
    {
      "anonymous": false,
      "inputs": [
        {
          "indexed": false,
          "name": "winner",
          "type": "address"
        },
        {
          "indexed": false,
          "name": "amount",
          "type": "uint256"
        }
      ],
      "name": "AuctionEnded",
      "type": "event"
    },
    {
      "constant": false,
      "inputs": [
        {
          "name": "sender",
          "type": "address"
        },
        {
          "name": "contractAddress",
          "type": "address"
        }
      ],
      "name": "addToStorage",
      "outputs": [
        {
          "name": "success",
          "type": "bool"
        }
      ],
      "payable": false,
      "stateMutability": "nonpayable",
      "type": "function"
    },
    {
      "constant": false,
      "inputs": [],
      "name": "openAuction",
      "outputs": [],
      "payable": false,
      "stateMutability": "nonpayable",
      "type": "function"
    },
    {
      "constant": false,
      "inputs": [],
      "name": "acquistoDiretto",
      "outputs": [],
      "payable": true,
      "stateMutability": "payable",
      "type": "function"
    },
    {
      "constant": false,
      "inputs": [],
      "name": "bid",
      "outputs": [],
      "payable": true,
      "stateMutability": "payable",
      "type": "function"
    },
    {
      "constant": false,
      "inputs": [],
      "name": "finalize",
      "outputs": [],
      "payable": true,
      "stateMutability": "payable",
      "type": "function"
    },
    {
      "constant": true,
      "inputs": [],
      "name": "getHighestBidder",
      "outputs": [
        {
          "name": "",
          "type": "address"
        }
      ],
      "payable": false,
      "stateMutability": "view",
      "type": "function"
    },
    {
      "constant": true,
      "inputs": [],
      "name": "getHighestBid",
      "outputs": [
        {
          "name": "",
          "type": "uint256"
        }
      ],
      "payable": false,
      "stateMutability": "view",
      "type": "function"
    },
    {
      "constant": true,
      "inputs": [],
      "name": "getBuyoutPrice",
      "outputs": [
        {
          "name": "",
          "type": "uint256"
        }
      ],
      "payable": false,
      "stateMutability": "view",
      "type": "function"
    },
    {
      "constant": true,
      "inputs": [],
      "name": "getMinIncrement",
      "outputs": [
        {
          "name": "",
          "type": "uint256"
        }
      ],
      "payable": false,
      "stateMutability": "view",
      "type": "function"
    },
    {
      "constant": true,
      "inputs": [],
      "name": "getAllData",
      "outputs": [
        {
          "name": "",
          "type": "uint256"
        },
        {
          "name": "",
          "type": "uint256"
        },
        {
          "name": "",
          "type": "uint256"
        },
        {
          "name": "",
          "type": "uint256"
        },
        {
          "name": "",
          "type": "bool"
        },
        {
          "name": "",
          "type": "bool"
        }
      ],
      "payable": false,
      "stateMutability": "view",
      "type": "function"
    }
  ],
  "bytecode": "0x608060405260006004556000600760146101000a81548160ff0219169083151502179055506000600760156101000a81548160ff0219169083151502179055506000600760166101000a81548160ff02191690831515021790555060405162001b2f38038062001b2f83398101806040526200007f919081019062000316565b600084116200008d57600080fd5b600082116200009b57600080fd5b8360008190555082600181905550600182026002819055508060038190555033600760006101000a81548173ffffffffffffffffffffffffffffffffffffffff021916908373ffffffffffffffffffffffffffffffffffffffff160217905550856009908051906020019062000113929190620001f4565b5084600a90805190602001906200012c929190620001f4565b506200013f33306200015560201b60201c565b6200014957600080fd5b50505050505062000626565b6000807368add98af4952f1f996a220259716c52f43c8dc190508073ffffffffffffffffffffffffffffffffffffffff1663b906c6b58585600a600960006040518663ffffffff1660e01b8152600401620001b59594939291906200049b565b600060405180830381600087803b158015620001d057600080fd5b505af1158015620001e5573d6000803e3d6000fd5b50505050600191505092915050565b828054600181600116156101000203166002900490600052602060002090601f016020900481019282601f106200023757805160ff191683800117855562000268565b8280016001018555821562000268579182015b82811115620002675782518255916020019190600101906200024a565b5b5090506200027791906200027b565b5090565b620002a091905b808211156200029c57600081600090555060010162000282565b5090565b90565b600082601f830112620002b557600080fd5b8151620002cc620002c68262000534565b62000506565b91508082526020830160208301858383011115620002e957600080fd5b620002f6838284620005d6565b50505092915050565b60008151905062000310816200060c565b92915050565b60008060008060008060c087890312156200033057600080fd5b600087015167ffffffffffffffff8111156200034b57600080fd5b6200035989828a01620002a3565b965050602087015167ffffffffffffffff8111156200037757600080fd5b6200038589828a01620002a3565b95505060406200039889828a01620002ff565b9450506060620003ab89828a01620002ff565b9350506080620003be89828a01620002ff565b92505060a0620003d189828a01620002ff565b9150509295509295509295565b620003e98162000584565b82525050565b620003fa81620005c2565b82525050565b600081546001811660008114620004205760018114620004495762000493565b607f600283041662000433818762000573565b955060ff19831686526020860193505062000493565b6002820462000459818762000573565b9550620004668562000561565b60005b828110156200048a5781548189015260018201915060208101905062000469565b80880195505050505b505092915050565b600060a082019050620004b26000830188620003de565b620004c16020830187620003de565b8181036040830152620004d5818662000400565b90508181036060830152620004eb818562000400565b9050620004fc6080830184620003ef565b9695505050505050565b6000604051905081810181811067ffffffffffffffff821117156200052a57600080fd5b8060405250919050565b600067ffffffffffffffff8211156200054c57600080fd5b601f19601f8301169050602081019050919050565b60008160005260206000209050919050565b600082825260208201905092915050565b6000620005918262000598565b9050919050565b600073ffffffffffffffffffffffffffffffffffffffff82169050919050565b6000819050919050565b6000620005cf82620005b8565b9050919050565b60005b83811015620005f6578082015181840152602081019050620005d9565b8381111562000606576000848401525b50505050565b6200061781620005b8565b81146200062357600080fd5b50565b6114f980620006366000396000f3fe6080604052600436106100fd5760003560e01c80637150d8ae11610095578063ade751bd11610064578063ade751bd14610294578063d57bde79146102bf578063db2e1eed146102ea578063ff21d1e514610315578063ff29059914610340576100fd565b80637150d8ae146102095780637f3d06a61461023457806391f901571461025f578063acaee58f1461028a576100fd565b80634979440a116100d15780634979440a1461017e5780634bb278f3146101a95780636560cb30146101b35780636c2b707a146101de576100fd565b80623495a41461010257806304cb72f91461012d5780631998aeef146101445780632d10fa281461014e575b600080fd5b34801561010e57600080fd5b5061011761037d565b604051610124919061118c565b60405180910390f35b34801561013957600080fd5b506101426103a7565b005b61014c610474565b005b34801561015a57600080fd5b5061016361076a565b60405161017596959493929190611382565b60405180910390f35b34801561018a57600080fd5b506101936107b3565b6040516101a09190611367565b60405180910390f35b6101b16107bd565b005b3480156101bf57600080fd5b506101c8610a81565b6040516101d59190611367565b60405180910390f35b3480156101ea57600080fd5b506101f3610a87565b6040516102009190611367565b60405180910390f35b34801561021557600080fd5b5061021e610a91565b60405161022b919061118c565b60405180910390f35b34801561024057600080fd5b50610249610ab7565b6040516102569190611367565b60405180910390f35b34801561026b57600080fd5b50610274610abd565b60405161028191906111a7565b60405180910390f35b610292610ae3565b005b3480156102a057600080fd5b506102a9610d46565b6040516102b69190611367565b60405180910390f35b3480156102cb57600080fd5b506102d4610d50565b6040516102e19190611367565b60405180910390f35b3480156102f657600080fd5b506102ff610d56565b60405161030c9190611367565b60405180910390f35b34801561032157600080fd5b5061032a610d5c565b6040516103379190611367565b60405180910390f35b34801561034c57600080fd5b5061036760048036036103629190810190610e67565b610d62565b604051610374919061124c565b60405180910390f35b6000600560009054906101000a900473ffffffffffffffffffffffffffffffffffffffff16905090565b600760009054906101000a900473ffffffffffffffffffffffffffffffffffffffff1673ffffffffffffffffffffffffffffffffffffffff163373ffffffffffffffffffffffffffffffffffffffff1614610437576040517f08c379a000000000000000000000000000000000000000000000000000000000815260040161042e90611307565b60405180910390fd5b60001515600760169054906101000a900460ff1615151461045757600080fd5b6001600760166101000a81548160ff021916908315150217905550565b600760149054906101000a900460ff16156104c4576040517f08c379a00000000000000000000000000000000000000000000000000000000081526004016104bb906112e7565b60405180910390fd5b34803373ffffffffffffffffffffffffffffffffffffffff1631101561051f576040517f08c379a0000000000000000000000000000000000000000000000000000000008152600401610516906112a7565b60405180910390fd5b600760169054906101000a900460ff1661056e576040517f08c379a000000000000000000000000000000000000000000000000000000000815260040161056590611347565b60405180910390fd5b60001515600760159054906101000a900460ff16151514156105b95760005434101561059957600080fd5b6001600760156101000a81548160ff021916908315150217905550610600565b6105d0600354600854610dfd90919063ffffffff16565b4311156105dc57600080fd5b6105f3600154600454610dfd90919063ffffffff16565b3410156105ff57600080fd5b5b600060045490506000600560009054906101000a900473ffffffffffffffffffffffffffffffffffffffff1690503460048190555033600560006101000a81548173ffffffffffffffffffffffffffffffffffffffff021916908373ffffffffffffffffffffffffffffffffffffffff160217905550436008819055507ff4757a49b326036464bec6fe419a4ae38c8a02ce3e68bf0809674f6aab8ad300600560009054906101000a900473ffffffffffffffffffffffffffffffffffffffff166004546040516106d29291906111c2565b60405180910390a1600082141580156107185750600073ffffffffffffffffffffffffffffffffffffffff168173ffffffffffffffffffffffffffffffffffffffff1614155b15610765578073ffffffffffffffffffffffffffffffffffffffff166108fc839081150290604051600060405180830381858888f19350505050158015610763573d6000803e3d6000fd5b505b505050565b600080600080600080600154600454600254600054600760149054906101000a900460ff16600760159054906101000a900460ff16955095509550955095509550909192939495565b6000600454905090565b600760149054906101000a900460ff161561080d576040517f08c379a0000000000000000000000000000000000000000000000000000000008152600401610804906112e7565b60405180910390fd5b600760009054906101000a900473ffffffffffffffffffffffffffffffffffffffff1673ffffffffffffffffffffffffffffffffffffffff163373ffffffffffffffffffffffffffffffffffffffff1614806108b65750600560009054906101000a900473ffffffffffffffffffffffffffffffffffffffff1673ffffffffffffffffffffffffffffffffffffffff163373ffffffffffffffffffffffffffffffffffffffff16145b6108f5576040517f08c379a00000000000000000000000000000000000000000000000000000000081526004016108ec90611327565b60405180910390fd5b4361090d600354600854610dfd90919063ffffffff16565b1061094d576040517f08c379a000000000000000000000000000000000000000000000000000000000815260040161094490611267565b60405180910390fd5b600760169054906101000a900460ff1661099c576040517f08c379a000000000000000000000000000000000000000000000000000000000815260040161099390611347565b60405180910390fd5b6001600760146101000a81548160ff0219169083151502179055507fdaec4582d5d9595688c8c98545fdd1c696d41c6aeaeb636737e84ed2f5c00eda600560009054906101000a900473ffffffffffffffffffffffffffffffffffffffff16600454604051610a0c9291906111c2565b60405180910390a1600760009054906101000a900473ffffffffffffffffffffffffffffffffffffffff1673ffffffffffffffffffffffffffffffffffffffff166108fc6004549081150290604051600060405180830381858888f19350505050158015610a7e573d6000803e3d6000fd5b50565b60015481565b6000600254905090565b600660009054906101000a900473ffffffffffffffffffffffffffffffffffffffff1681565b60025481565b600560009054906101000a900473ffffffffffffffffffffffffffffffffffffffff1681565b600760149054906101000a900460ff1615610b33576040517f08c379a0000000000000000000000000000000000000000000000000000000008152600401610b2a906112e7565b60405180910390fd5b60001515600760159054906101000a900460ff16151514610b89576040517f08c379a0000000000000000000000000000000000000000000000000000000008152600401610b80906112c7565b60405180910390fd5b600254803373ffffffffffffffffffffffffffffffffffffffff16311015610be6576040517f08c379a0000000000000000000000000000000000000000000000000000000008152600401610bdd906112a7565b60405180910390fd5b600760169054906101000a900460ff16610c35576040517f08c379a0000000000000000000000000000000000000000000000000000000008152600401610c2c90611347565b60405180910390fd5b6002543414610c4357600080fd5b7fdaec4582d5d9595688c8c98545fdd1c696d41c6aeaeb636737e84ed2f5c00eda3334604051610c749291906111c2565b60405180910390a16001600760146101000a81548160ff02191690831515021790555033600660006101000a81548173ffffffffffffffffffffffffffffffffffffffff021916908373ffffffffffffffffffffffffffffffffffffffff160217905550600760009054906101000a900473ffffffffffffffffffffffffffffffffffffffff1673ffffffffffffffffffffffffffffffffffffffff166108fc6002549081150290604051600060405180830381858888f19350505050158015610d42573d6000803e3d6000fd5b5050565b6000600154905090565b60045481565b60005481565b60035481565b6000807368add98af4952f1f996a220259716c52f43c8dc190508073ffffffffffffffffffffffffffffffffffffffff1663b906c6b58585600a600960006040518663ffffffff1660e01b8152600401610dc09594939291906111eb565b600060405180830381600087803b158015610dda57600080fd5b505af1158015610dee573d6000803e3d6000fd5b50505050600191505092915050565b600080828401905083811015610e48576040517f08c379a0000000000000000000000000000000000000000000000000000000008152600401610e3f90611287565b60405180910390fd5b8091505092915050565b600081359050610e61816114a8565b92915050565b60008060408385031215610e7a57600080fd5b6000610e8885828601610e52565b9250506020610e9985828601610e52565b9150509250929050565b610eac81611460565b82525050565b610ebb81611418565b82525050565b610eca81611406565b82525050565b610ed98161142a565b82525050565b610ee881611472565b82525050565b600081546001811660008114610f0b5760018114610f3157610f75565b607f6002830416610f1c81876113f5565b955060ff198316865260208601935050610f75565b60028204610f3f81876113f5565b9550610f4a856113e3565b60005b82811015610f6c57815481890152600182019150602081019050610f4d565b80880195505050505b505092915050565b6000610f8a6012836113f5565b91507f41737461206e6f6e207465726d696e61746100000000000000000000000000006000830152602082019050919050565b6000610fca601b836113f5565b91507f536166654d6174683a206164646974696f6e206f766572666c6f7700000000006000830152602082019050919050565b600061100a6017836113f5565b91507f42616c616e6365206e6f6e2073756666696369656e74650000000000000000006000830152602082019050919050565b600061104a601d836113f5565b91507f4e6f6e20616371756973746162696c6520646972657474616d656e74650000006000830152602082019050919050565b600061108a600e836113f5565b91507f41737461207465726d696e6174610000000000000000000000000000000000006000830152602082019050919050565b60006110ca6014836113f5565b91507f4e6f6e20736569206c2761756374696f6e6565720000000000000000000000006000830152602082019050919050565b600061110a600f836113f5565b91507f4e6f6e206175746f72697a7a61746f00000000000000000000000000000000006000830152602082019050919050565b600061114a6010836113f5565b91507f41737461206e6f6e2061767669617461000000000000000000000000000000006000830152602082019050919050565b61118681611456565b82525050565b60006020820190506111a16000830184610ec1565b92915050565b60006020820190506111bc6000830184610eb2565b92915050565b60006040820190506111d76000830185610ea3565b6111e4602083018461117d565b9392505050565b600060a0820190506112006000830188610ec1565b61120d6020830187610ec1565b818103604083015261121f8186610eee565b905081810360608301526112338185610eee565b90506112426080830184610edf565b9695505050505050565b60006020820190506112616000830184610ed0565b92915050565b6000602082019050818103600083015261128081610f7d565b9050919050565b600060208201905081810360008301526112a081610fbd565b9050919050565b600060208201905081810360008301526112c081610ffd565b9050919050565b600060208201905081810360008301526112e08161103d565b9050919050565b600060208201905081810360008301526113008161107d565b9050919050565b60006020820190508181036000830152611320816110bd565b9050919050565b60006020820190508181036000830152611340816110fd565b9050919050565b600060208201905081810360008301526113608161113d565b9050919050565b600060208201905061137c600083018461117d565b92915050565b600060c082019050611397600083018961117d565b6113a4602083018861117d565b6113b1604083018761117d565b6113be606083018661117d565b6113cb6080830185610ed0565b6113d860a0830184610ed0565b979650505050505050565b60008160005260206000209050919050565b600082825260208201905092915050565b600061141182611436565b9050919050565b600061142382611436565b9050919050565b60008115159050919050565b600073ffffffffffffffffffffffffffffffffffffffff82169050919050565b6000819050919050565b600061146b82611484565b9050919050565b600061147d82611456565b9050919050565b600061148f82611496565b9050919050565b60006114a182611436565b9050919050565b6114b181611406565b81146114bc57600080fd5b5056fea265627a7a72305820e1921feafd6388fee42ff1e84c8367e6d999a1747b6a4e4a3eec8ede8f6f88146c6578706572696d656e74616cf50037",
  "source": "pragma solidity ^0.5.1;\nimport \"node_modules/openzeppelin-solidity/contracts/math/SafeMath.sol\";\npragma experimental ABIEncoderV2;\n\ncontract StorageInterface{\n    \n    function addContract(address creator, address contratto, string memory _url, string memory _titolo, uint tipo) public;\n    \n    function removeContract(address contr) public;\n    \n    function getAllContracts() public view returns(address[] memory, address[] memory);\n    \n}\n\n\n\n\ncontract englishAuction {\n    using SafeMath for uint;\n    \n    // Offerta minima che deve essere fatta\n    uint public reservePrice;\n    \n    uint public minIcrement;\n    // Prezzo per l'acquisto diretto senza asta\n    uint public buyoutPrice;\n    \n    // Numero di blocchi che devono passare prima di terminare l'asta\n    uint public minBlocks;\n\n    \n    // Indirizzo che ha fatto l'offerta pi alta e offerta pi alta ricevuta\n    uint public highestBid=0;\n    address payable public highestBidder;\n    \n    // Indirizzo che ha comprato direttamente senza asta\n    address public buyer;\n    // Creatore dell'asta\n    address payable auctioneer;\n    \n    // Booleano usato per capire se l'asta  terminata o no\n    bool ended = false;\n    // booleano per capire se  stato fatto l'acquisto diretto senza asta\n    bool buyoutEnded = false;\n    \n    // usato per capire se l'asta  iniziata\n    bool started = false;\n    \n    // Blocco in cui  stata eseguita l'ultima offerta\n    uint startingBlock;\n    \n    // Due eventi, uno per dire che ho aumentato l'offerta e uno \n    // per indicare che l'asta  terminata\n    event HighestBidIncreased(address bidder, uint amount);\n    event AuctionEnded(address winner, uint amount);\n    \n    // titolo dell'asta e url di una foto del prodotto che voglio vendere\n    string title;\n    string URL;\n    \n    /*\n        Parametri:\n        - _title: nome del prodotto che vogliamo mettere in vendita\n        - _URL: url di una immagine del prodotto che vogliamo vendere\n        - _reservePrice: prezzo base dell'asta \n        - _minIcrement: incremento minimo che deve esserci tra un'offerta e l'altra\n        - _buyoutPrice: prezzo per l'acquisto diretto \n        - _minBlocks: numero minimo di blocchi che devono passare prima di decretare il vincitore dell'asta\n    */\n    constructor(string memory _title, string memory _URL, uint _reservePrice, uint _minIcrement, uint _buyoutPrice, uint _minBlocks) public payable{\n        require(_reservePrice > 0);\n        require(_buyoutPrice > 0);\n        reservePrice = _reservePrice;\n        minIcrement = _minIcrement;\n        buyoutPrice = _buyoutPrice * 1 wei;\n        minBlocks = _minBlocks;\n        auctioneer = msg.sender;\n        title = _title;\n        URL = _URL;\n        require(addToStorage(msg.sender, address(this)));\n    }\n    \n    function addToStorage(address sender, address contractAddress) public returns(bool success){\n        StorageInterface s = StorageInterface(0x68Add98aF4952F1F996a220259716c52F43c8dC1);\n        s.addContract(sender, contractAddress, URL, title, 0);\n        return true;\n    }\n    \n    // Controllo che l'asta non sia terminata\n    modifier only_notEnded(){\n        require(!ended, \"Asta terminata\"); _;\n    }\n    \n    // Controllo che sia ancora possibile acquistare il prodotto\n    // direttamente e senza fare l'asta\n    modifier buyout_available(){\n        require(buyoutEnded == false, \"Non acquistabile direttamente\"); _;\n    }\n    \n    // Controllo che tra l'ultima offerta e quella che provo a fare\n    // non siano passati troppi blocchi\n    modifier bidAvailable(){\n        require(startingBlock < startingBlock.add(minBlocks), \"Bid Phase terminata\"); _;\n    }\n    \n    // Controlla che chi fa l'offerta abbia a disposizione un balance maggiore di \n    // quanto offre\n    modifier balanceAvailable(uint price){\n        require(msg.sender.balance >= price, \"Balance non sufficiente\"); _;\n    }\n    \n    /*\n        Controlla che il chiamante della funzione sia il creatore del contratto\n        oppure quello che ha vinto l'asta.\n    */\n    modifier onlyAuthorized() {\n         require(msg.sender == auctioneer || msg.sender == highestBidder, \"Non autorizzato\"); _;\n    }\n    \n    modifier only_when_FinalizePhase(){\n        require(startingBlock.add(minBlocks) < uint(block.number), \"Asta non terminata\"); _;\n    }\n    \n    // Controlla che la funzione sia stata chiamata dal creatore dell'asta\n    modifier only_auctioneer(){\n        require(msg.sender == auctioneer, \"Non sei l'auctioneer\"); _;\n    }\n    \n     // Controllo che l'asta sia stata avviata\n    modifier only_when_started(){\n        require(started, \"Asta non avviata\"); _;\n    }\n    \n    \n    /*\n        Inizio dell'asta, solamente il creatore dell'asta pu avviarla\n    */\n    function openAuction() public only_auctioneer(){\n        require(started == false);\n        started = true;\n    }\n    \n\n    /*\n        Funzione che permette di acquistare direttamente il prodotto senza \n        dover svolgere l'asta pagando il buyoutPrice.\n        Pu essere chiamata solamente se:\n        - l'asta non  terminata\n        -  ancora disponibile la possibilit di acquistare direttamente\n        - ho un balance sufficiente per acquistare\n        - Il valore di buyout  uguale a quello che invio\n        \n        Alla fine il valore che invio viene trasferito al creatore dell'asta.\n    */\n    function acquistoDiretto() public payable only_notEnded() buyout_available() balanceAvailable(buyoutPrice) only_when_started(){\n        \n        require(msg.value == buyoutPrice);\n        \n        emit AuctionEnded(msg.sender, msg.value);\n        ended = true;\n        buyer = msg.sender;\n        auctioneer.transfer(buyoutPrice);\n        \n    }\n    \n    /*\n        Funzione che permette di eseguire un'offerta.\n        Viene eseguita se:\n        - l'asta non  gi terminata\n        - chi invia l'offerta ha un balance maggiore di quello che offre\n        - Se tra il bid precedente e il successivo non sono passati troppi blocchi\n    */\n    function bid() public payable only_notEnded() balanceAvailable(msg.value) only_when_started(){\n        \n        // Prima offerta che arriva, in questo caso posso fare un'offerta pari al minimo\n        // e non devo controllare che sia terminata la fase di bid\n        if(buyoutEnded == false){\n           \n            require(msg.value >= reservePrice);\n            buyoutEnded = true;\n        }\n        else{\n            // offerte successive alla prima, in questo caso devo fare un'offerta maggiore della precedente pi il minimo incremento\n            // una volta ricevuta l'offerta devo anche restituire i soldi al precedente bidder\n            require(block.number <= startingBlock.add(minBlocks));\n            require(msg.value >= highestBid.add(minIcrement));\n        }\n        \n        uint value = highestBid;\n        address payable receiver = highestBidder;\n        \n        highestBid = msg.value;\n        highestBidder = msg.sender;\n        startingBlock = uint(block.number);\n        emit HighestBidIncreased(highestBidder, highestBid);\n        \n        // Serve l'if perch alla prima offerta che ricevo non devo restituire soldi\n        if(value != 0 && receiver != address(0)){\n            receiver.transfer(value);\n        }\n    }\n    \n    /*\n        Funzione che pu essere chiamata solamente se:\n        - l'asta non  gi terminata\n        - solo dal vincitore o da chi ha creato l'asta\n        - solamente dopo che non posso fare altre offerte\n        Qua trasferisco i soldi che sono stati offerti al creatore del contratto e \n        termino l'asta emettendo anche un evento.\n    */\n    function finalize() external payable only_notEnded() onlyAuthorized() only_when_FinalizePhase() only_when_started(){\n        ended = true;\n        emit AuctionEnded(highestBidder, highestBid);\n        auctioneer.transfer(highestBid);\n    }\n    \n    /*\n        Funzione che restituisce l'address che ha fatto l'offerta pi alta\n    */\n    function getHighestBidder() public view returns(address){\n        return highestBidder;\n    }\n    \n    /*\n        Funzione che restituisce l'offerta pi alta\n    */\n    function getHighestBid() public view returns(uint){\n        return highestBid;\n    }\n    \n    /*\n        Funzione che restituisce il prezzo dell'acquisto diretto\n    */ \n    function getBuyoutPrice() public view returns(uint){\n        return buyoutPrice;\n    }\n    \n    /*\n        Funzione che restituisce l'incremento minimo da fare rispetto all'offerta pi alta\n    */\n    function getMinIncrement() public view returns(uint){\n        return minIcrement;\n    }\n\n    function getAllData() public view returns(uint, uint, uint, uint, bool, bool){\n        \n        return (minIcrement, highestBid, buyoutPrice, reservePrice, ended, buyoutEnded);\n    }\n\n\n    \n}",
  "sourcePath": "/Users/lucacorbucci/Documents/GitHub/SmartAuctions/Frontend/contracts/English.sol",
  "compiler": {
    "name": "solc",
    "version": "0.5.8+commit.23d335f2.Emscripten.clang"
  },
  "schemaVersion": "3.0.11",
  "updatedAt": "2019-06-20T22:19:20.064Z",
  "devdoc": {
    "methods": {}
  },
  "userdoc": {
    "methods": {}
  }
}