{
  "contractName": "Storage",
  "abi": [
    {
      "anonymous": false,
      "inputs": [
        {
          "indexed": false,
          "name": "contractAddress",
          "type": "address"
        },
        {
          "indexed": false,
          "name": "tipo",
          "type": "uint256"
        }
      ],
      "name": "newAuction",
      "type": "event"
    },
    {
      "anonymous": false,
      "inputs": [
        {
          "indexed": false,
          "name": "winner",
          "type": "address"
        }
      ],
      "name": "auctionEnded",
      "type": "event"
    },
    {
      "constant": false,
      "inputs": [
        {
          "name": "creator",
          "type": "address"
        },
        {
          "name": "contratto",
          "type": "address"
        },
        {
          "name": "_url",
          "type": "string"
        },
        {
          "name": "_titolo",
          "type": "string"
        },
        {
          "name": "tipo",
          "type": "uint256"
        },
        {
          "name": "bloccoInizio",
          "type": "uint256"
        }
      ],
      "name": "addContract",
      "outputs": [],
      "payable": false,
      "stateMutability": "nonpayable",
      "type": "function"
    },
    {
      "constant": false,
      "inputs": [
        {
          "name": "contr",
          "type": "address"
        },
        {
          "name": "winner",
          "type": "address"
        }
      ],
      "name": "removeContract",
      "outputs": [],
      "payable": false,
      "stateMutability": "nonpayable",
      "type": "function"
    },
    {
      "constant": true,
      "inputs": [],
      "name": "getAllContracts",
      "outputs": [
        {
          "name": "",
          "type": "address[]"
        },
        {
          "name": "",
          "type": "address[]"
        },
        {
          "name": "",
          "type": "string[]"
        },
        {
          "name": "",
          "type": "string[]"
        },
        {
          "name": "",
          "type": "uint256[]"
        },
        {
          "name": "",
          "type": "uint256[]"
        }
      ],
      "payable": false,
      "stateMutability": "view",
      "type": "function"
    },
    {
      "constant": true,
      "inputs": [],
      "name": "getEndedAuctions",
      "outputs": [
        {
          "name": "countere",
          "type": "uint256"
        },
        {
          "name": "owners",
          "type": "address[]"
        },
        {
          "name": "title",
          "type": "string[]"
        },
        {
          "name": "url",
          "type": "string[]"
        },
        {
          "name": "tipo",
          "type": "uint256[]"
        }
      ],
      "payable": false,
      "stateMutability": "view",
      "type": "function"
    }
  ],
  "bytecode": "0x608060405234801561001057600080fd5b506119f5806100206000396000f3fe608060405234801561001057600080fd5b506004361061004c5760003560e01c806318d3ce9614610051578063cc71d90a14610074578063de0f725d14610090578063f10a69ec146100ac575b600080fd5b6100596100ce565b60405161006b9695949392919061169c565b60405180910390f35b61008e60048036036100899190810190611335565b61058b565b005b6100aa60048036036100a591908101906112f9565b61085b565b005b6100b4610a07565b6040516100c5959493929190611767565b60405180910390f35b60608060608060608060006100f060035460025461118090919063ffffffff16565b90506060816040519080825280602002602001820160405280156101235781602001602082028038833980820191505090505b5090506060826040519080825280602002602001820160405280156101575781602001602082028038833980820191505090505b50905060608360405190808252806020026020018201604052801561019057816020015b606081526020019060019003908161017b5790505b5090506060846040519080825280602002602001820160405280156101c957816020015b60608152602001906001900390816101b45790505b5090506060856040519080825280602002602001820160405280156101fd5781602001602082028038833980820191505090505b5090506060866040519080825280602002602001820160405280156102315781602001602082028038833980820191505090505b509050600080905060008090505b6002548110156105685760008060006001848154811061025b57fe5b9060005260206000200160009054906101000a900473ffffffffffffffffffffffffffffffffffffffff1673ffffffffffffffffffffffffffffffffffffffff1673ffffffffffffffffffffffffffffffffffffffff16815260200190815260200160002090508060030160009054906101000a900460ff161561055a578060000160009054906101000a900473ffffffffffffffffffffffffffffffffffffffff1689848151811061030a57fe5b602002602001019073ffffffffffffffffffffffffffffffffffffffff16908173ffffffffffffffffffffffffffffffffffffffff16815250508060010160009054906101000a900473ffffffffffffffffffffffffffffffffffffffff1688848151811061037557fe5b602002602001019073ffffffffffffffffffffffffffffffffffffffff16908173ffffffffffffffffffffffffffffffffffffffff1681525050806004018054600181600116156101000203166002900480601f0160208091040260200160405190810160405280929190818152602001828054600181600116156101000203166002900480156104475780601f1061041c57610100808354040283529160200191610447565b820191906000526020600020905b81548152906001019060200180831161042a57829003601f168201915b505050505087848151811061045857fe5b6020026020010181905250806005018054600181600116156101000203166002900480601f0160208091040260200160405190810160405280929190818152602001828054600181600116156101000203166002900480156104fb5780601f106104d0576101008083540402835291602001916104fb565b820191906000526020600020905b8154815290600101906020018083116104de57829003601f168201915b505050505086848151811061050c57fe5b6020026020010181905250806006015485848151811061052857fe5b602002602001018181525050806007015484848151811061054557fe5b60200260200101818152505082806001019350505b50808060010191505061023f565b508686868686869d509d509d509d509d509d505050505050505050909192939495565b6040518061012001604052808773ffffffffffffffffffffffffffffffffffffffff1681526020018673ffffffffffffffffffffffffffffffffffffffff1681526020016002548152602001600115158152602001858152602001848152602001838152602001828152602001600073ffffffffffffffffffffffffffffffffffffffff168152506000808773ffffffffffffffffffffffffffffffffffffffff1673ffffffffffffffffffffffffffffffffffffffff16815260200190815260200160002060008201518160000160006101000a81548173ffffffffffffffffffffffffffffffffffffffff021916908373ffffffffffffffffffffffffffffffffffffffff16021790555060208201518160010160006101000a81548173ffffffffffffffffffffffffffffffffffffffff021916908373ffffffffffffffffffffffffffffffffffffffff1602179055506040820151816002015560608201518160030160006101000a81548160ff02191690831515021790555060808201518160040190805190602001906107259291906111d6565b5060a08201518160050190805190602001906107429291906111d6565b5060c0820151816006015560e082015181600701556101008201518160080160006101000a81548173ffffffffffffffffffffffffffffffffffffffff021916908373ffffffffffffffffffffffffffffffffffffffff16021790555090505060026000815480929190600101919050555060018590806001815401808255809150509060018203906000526020600020016000909192909190916101000a81548173ffffffffffffffffffffffffffffffffffffffff021916908373ffffffffffffffffffffffffffffffffffffffff160217905550507f0292387880017238b5bbd6d109c32cb0022ac90e09e8833d3592f5127f1ff03d858360405161084b929190611673565b60405180910390a1505050505050565b60008060008473ffffffffffffffffffffffffffffffffffffffff1673ffffffffffffffffffffffffffffffffffffffff1681526020019081526020016000206002015410156108e0576040517f08c379a00000000000000000000000000000000000000000000000000000000081526004016108d790611727565b60405180910390fd5b60008060008473ffffffffffffffffffffffffffffffffffffffff1673ffffffffffffffffffffffffffffffffffffffff16815260200190815260200160002060030160006101000a81548160ff021916908315150217905550806000808473ffffffffffffffffffffffffffffffffffffffff1673ffffffffffffffffffffffffffffffffffffffff16815260200190815260200160002060080160006101000a81548173ffffffffffffffffffffffffffffffffffffffff021916908373ffffffffffffffffffffffffffffffffffffffff1602179055506003600081548092919060010191905055507f78242003b8ad3aad0add082b53daa94a9de32223a175926b974235d7f856b357816040516109fb9190611658565b60405180910390a15050565b600060608060608060146003541115610dcc5760606014604051908082528060200260200182016040528015610a4c5781602001602082028038833980820191505090505b50905060606014604051908082528060200260200182016040528015610a8657816020015b6060815260200190600190039081610a715790505b50905060606014604051908082528060200260200182016040528015610ac057816020015b6060815260200190600190039081610aab5790505b50905060606014604051908082528060200260200182016040528015610af55781602001602082028038833980820191505090505b5090506000809050600060016003540390505b6014821015610db057600080600060018481548110610b2357fe5b9060005260206000200160009054906101000a900473ffffffffffffffffffffffffffffffffffffffff1673ffffffffffffffffffffffffffffffffffffffff1673ffffffffffffffffffffffffffffffffffffffff1681526020019081526020016000209050600015158160030160009054906101000a900460ff1615151415610da1578060000160009054906101000a900473ffffffffffffffffffffffffffffffffffffffff16878481518110610bd957fe5b602002602001019073ffffffffffffffffffffffffffffffffffffffff16908173ffffffffffffffffffffffffffffffffffffffff1681525050806005018054600181600116156101000203166002900480601f016020809104026020016040519081016040528092919081815260200182805460018160011615610100020316600290048015610cab5780601f10610c8057610100808354040283529160200191610cab565b820191906000526020600020905b815481529060010190602001808311610c8e57829003601f168201915b5050505050868481518110610cbc57fe5b6020026020010181905250806004018054600181600116156101000203166002900480601f016020809104026020016040519081016040528092919081815260200182805460018160011615610100020316600290048015610d5f5780601f10610d3457610100808354040283529160200191610d5f565b820191906000526020600020905b815481529060010190602001808311610d4257829003601f168201915b5050505050858481518110610d7057fe5b60200260200101819052508060060154848481518110610d8c57fe5b60200260200101818152505082806001019350505b50808060019003915050610b08565b5060035485858585995099509950995099505050505050611179565b6060600354604051908082528060200260200182016040528015610dff5781602001602082028038833980820191505090505b5090506060600354604051908082528060200260200182016040528015610e3a57816020015b6060815260200190600190039081610e255790505b5090506060600354604051908082528060200260200182016040528015610e7557816020015b6060815260200190600190039081610e605790505b5090506060600354604051908082528060200260200182016040528015610eab5781602001602082028038833980820191505090505b509050600080905060008090505b60025481101561116157600080600060018481548110610ed557fe5b9060005260206000200160009054906101000a900473ffffffffffffffffffffffffffffffffffffffff1673ffffffffffffffffffffffffffffffffffffffff1673ffffffffffffffffffffffffffffffffffffffff1681526020019081526020016000209050600015158160030160009054906101000a900460ff1615151415611153578060000160009054906101000a900473ffffffffffffffffffffffffffffffffffffffff16878481518110610f8b57fe5b602002602001019073ffffffffffffffffffffffffffffffffffffffff16908173ffffffffffffffffffffffffffffffffffffffff1681525050806005018054600181600116156101000203166002900480601f01602080910402602001604051908101604052809291908181526020018280546001816001161561010002031660029004801561105d5780601f106110325761010080835404028352916020019161105d565b820191906000526020600020905b81548152906001019060200180831161104057829003601f168201915b505050505086848151811061106e57fe5b6020026020010181905250806004018054600181600116156101000203166002900480601f0160208091040260200160405190810160405280929190818152602001828054600181600116156101000203166002900480156111115780601f106110e657610100808354040283529160200191611111565b820191906000526020600020905b8154815290600101906020018083116110f457829003601f168201915b505050505085848151811061112257fe5b6020026020010181905250806006015484848151811061113e57fe5b60200260200101818152505082806001019350505b508080600101915050610eb9565b50600354858585859950995099509950995050505050505b9091929394565b6000828211156111c5576040517f08c379a00000000000000000000000000000000000000000000000000000000081526004016111bc90611747565b60405180910390fd5b600082840390508091505092915050565b828054600181600116156101000203166002900490600052602060002090601f016020900481019282601f1061121757805160ff1916838001178555611245565b82800160010185558215611245579182015b82811115611244578251825591602001919060010190611229565b5b5090506112529190611256565b5090565b61127891905b8082111561127457600081600090555060010161125c565b5090565b90565b60008135905061128a8161198d565b92915050565b600082601f8301126112a157600080fd5b81356112b46112af82611803565b6117d6565b915080825260208301602083018583830111156112d057600080fd5b6112db83828461193a565b50505092915050565b6000813590506112f3816119a4565b92915050565b6000806040838503121561130c57600080fd5b600061131a8582860161127b565b925050602061132b8582860161127b565b9150509250929050565b60008060008060008060c0878903121561134e57600080fd5b600061135c89828a0161127b565b965050602061136d89828a0161127b565b955050604087013567ffffffffffffffff81111561138a57600080fd5b61139689828a01611290565b945050606087013567ffffffffffffffff8111156113b357600080fd5b6113bf89828a01611290565b93505060806113d089828a016112e4565b92505060a06113e189828a016112e4565b9150509295509295509295565b60006113fa8383611432565b60208301905092915050565b60006114128383611581565b905092915050565b6000611426838361163a565b60208301905092915050565b61143b816118fe565b82525050565b61144a816118fe565b82525050565b600061145b82611856565b61146581856118a9565b93506114708361182f565b8060005b838110156114a157815161148888826113ee565b975061149383611882565b925050600181019050611474565b5085935050505092915050565b60006114b982611861565b6114c381856118ba565b9350836020820285016114d58561183c565b8060005b8581101561151157848403895281516114f28582611406565b94506114fd8361188f565b925060208a019950506001810190506114d9565b50829750879550505050505092915050565b600061152e8261186c565b61153881856118cb565b935061154383611849565b8060005b8381101561157457815161155b888261141a565b97506115668361189c565b925050600181019050611547565b5085935050505092915050565b600061158c82611877565b61159681856118dc565b93506115a6818560208601611949565b6115af8161197c565b840191505092915050565b60006115c7600a836118ed565b91507f6e6f6e20657369737465000000000000000000000000000000000000000000006000830152602082019050919050565b6000611607601e836118ed565b91507f536166654d6174683a207375627472616374696f6e206f766572666c6f7700006000830152602082019050919050565b61164381611930565b82525050565b61165281611930565b82525050565b600060208201905061166d6000830184611441565b92915050565b60006040820190506116886000830185611441565b6116956020830184611649565b9392505050565b600060c08201905081810360008301526116b68189611450565b905081810360208301526116ca8188611450565b905081810360408301526116de81876114ae565b905081810360608301526116f281866114ae565b905081810360808301526117068185611523565b905081810360a083015261171a8184611523565b9050979650505050505050565b60006020820190508181036000830152611740816115ba565b9050919050565b60006020820190508181036000830152611760816115fa565b9050919050565b600060a08201905061177c6000830188611649565b818103602083015261178e8187611450565b905081810360408301526117a281866114ae565b905081810360608301526117b681856114ae565b905081810360808301526117ca8184611523565b90509695505050505050565b6000604051905081810181811067ffffffffffffffff821117156117f957600080fd5b8060405250919050565b600067ffffffffffffffff82111561181a57600080fd5b601f19601f8301169050602081019050919050565b6000602082019050919050565b6000602082019050919050565b6000602082019050919050565b600081519050919050565b600081519050919050565b600081519050919050565b600081519050919050565b6000602082019050919050565b6000602082019050919050565b6000602082019050919050565b600082825260208201905092915050565b600082825260208201905092915050565b600082825260208201905092915050565b600082825260208201905092915050565b600082825260208201905092915050565b600061190982611910565b9050919050565b600073ffffffffffffffffffffffffffffffffffffffff82169050919050565b6000819050919050565b82818337600083830152505050565b60005b8381101561196757808201518184015260208101905061194c565b83811115611976576000848401525b50505050565b6000601f19601f8301169050919050565b611996816118fe565b81146119a157600080fd5b50565b6119ad81611930565b81146119b857600080fd5b5056fea265627a7a72305820f400bce252865b83c2964c28d8c4a37ebc88bd6b36f1b5e68553af6f70aca0326c6578706572696d656e74616cf50037",
  "source": "pragma solidity ^0.5.1;\npragma experimental ABIEncoderV2;\nimport \"node_modules/openzeppelin-solidity/contracts/math/SafeMath.sol\";\n\ncontract Storage{\n    using SafeMath for uint;\n    \n    struct myContract {\n        address owner;\n        address contractAddress;\n        uint counter;\n        bool isActive;\n        string url;\n        string titolo;\n        uint tipo;\n        uint bloccoInizio;\n        address winner;\n    }\n\n   \n    \n    mapping (address => myContract) contratti;\n    address[] addContratti;\n\n    uint counter;\n    uint counterEnded;\n\n    event newAuction(address contractAddress, uint tipo);\n    event auctionEnded(address winner);\n    \n    function addContract(address creator, address contratto, string memory _url, string memory _titolo, uint tipo, uint bloccoInizio) public{\n        contratti[contratto] = myContract(creator, contratto, counter, true, _url, _titolo, tipo, bloccoInizio, address(0));\n        counter++;\n        addContratti.push(contratto);\n        emit newAuction(contratto, tipo);\n    }\n    \n    function removeContract(address contr, address winner) public{\n        require(contratti[contr].counter >= 0, \"non esiste\");\n        contratti[contr].isActive = false;\n        contratti[contr].winner = winner;\n        counterEnded++;\n        emit auctionEnded(winner);\n    }\n    \n    function getAllContracts() public view returns(address[] memory, address[] memory, string[] memory, string[] memory, uint[] memory, uint[] memory){\n        uint lng = counter.sub(counterEnded);\n        address[] memory add = new address[](lng);\n        address[] memory con = new address[](lng);\n        string[] memory urls = new string[](lng);\n        string[] memory titles = new string[](lng);\n        uint[] memory tipo = new uint[](lng);\n        uint[] memory blocco = new uint[](lng);\n\n\n        uint y = 0;\n   \n        for(uint i=0; i<counter; i++){\n            myContract storage tmp = contratti[addContratti[i]];\n            if(tmp.isActive){\n                add[y] = tmp.owner;\n                con[y] = tmp.contractAddress;\n                urls[y] = tmp.url;\n                titles[y] = tmp.titolo;\n                tipo[y] = tmp.tipo;\n                blocco[y] = tmp.bloccoInizio;\n                y++;\n            }\n        }\n        return(add, con, urls, titles, tipo, blocco);\n        \n    }\n\n    function getEndedAuctions() public view returns(uint countere, address[] memory owners, string[] memory title, string[] memory url, uint[] memory tipo){\n\n        if(counterEnded > 20){\n            address[] memory owner = new address[](20);\n            string[] memory titolo = new string[](20);\n            string[] memory urlR = new string[](20);\n            uint[] memory tipoR = new uint[](20);\n            \n            uint y = 0;\n            for(uint i=counterEnded-1; y < 20; i--){\n                myContract storage tmp = contratti[addContratti[i]];\n                if(tmp.isActive == false){\n                    owner[y] = tmp.owner;\n                    titolo[y] = tmp.titolo;\n                    urlR[y] = tmp.url;\n                    tipoR[y] = tmp.tipo;\n                    y++;\n                }\n            }\n            return (counterEnded, owner, titolo, urlR, tipoR);\n        }\n        else{\n            address[] memory owner = new address[](counterEnded);\n            string[] memory titolo = new string[](counterEnded);\n            string[] memory urlR = new string[](counterEnded);\n            uint[] memory tipoR = new uint[](counterEnded);\n\n            uint y = 0;\n            for(uint i=0; i<counter; i++){\n                myContract storage tmp = contratti[addContratti[i]];\n                if(tmp.isActive == false){\n                    owner[y] = tmp.owner;\n                    titolo[y] = tmp.titolo;\n                    urlR[y] = tmp.url;\n                    tipoR[y] = tmp.tipo;\n                    y++;\n                }\n                \n            }\n            return (counterEnded, owner, titolo, urlR, tipoR);\n        }\n    }\n    \n    \n}\n",
  "sourcePath": "/Users/lucacorbucci/Documents/GitHub/SmartAuctions/Frontend/contracts/storage.sol",
  "compiler": {
    "name": "solc",
    "version": "0.5.8+commit.23d335f2.Emscripten.clang"
  },
  "schemaVersion": "3.0.11",
  "updatedAt": "2019-06-25T21:30:09.257Z",
  "devdoc": {
    "methods": {}
  },
  "userdoc": {
    "methods": {}
  }
}