{
  "contractName": "Storage",
  "abi": [
    {
      "constant": false,
      "inputs": [
        {
          "name": "creator",
          "type": "address"
        },
        {
          "name": "contratto",
          "type": "address"
        }
      ],
      "name": "addContract",
      "outputs": [],
      "payable": false,
      "stateMutability": "nonpayable",
      "type": "function"
    },
    {
      "constant": false,
      "inputs": [
        {
          "name": "contr",
          "type": "address"
        }
      ],
      "name": "removeContract",
      "outputs": [],
      "payable": false,
      "stateMutability": "nonpayable",
      "type": "function"
    },
    {
      "constant": true,
      "inputs": [],
      "name": "getAllContracts",
      "outputs": [
        {
          "name": "",
          "type": "address[]"
        },
        {
          "name": "",
          "type": "address[]"
        }
      ],
      "payable": false,
      "stateMutability": "view",
      "type": "function"
    }
  ],
  "bytecode": "0x608060405234801561001057600080fd5b5061072e806100206000396000f3fe608060405234801561001057600080fd5b50600436106100415760003560e01c806318d3ce9614610046578063b9858a28146100ed578063c375c2ef14610151575b600080fd5b61004e610195565b604051808060200180602001838103835285818151815260200191508051906020019060200280838360005b8381101561009557808201518184015260208101905061007a565b50505050905001838103825284818151815260200191508051906020019060200280838360005b838110156100d75780820151818401526020810190506100bc565b5050505090500194505050505060405180910390f35b61014f6004803603604081101561010357600080fd5b81019080803573ffffffffffffffffffffffffffffffffffffffff169060200190929190803573ffffffffffffffffffffffffffffffffffffffff16906020019092919050505061037e565b005b6101936004803603602081101561016757600080fd5b81019080803573ffffffffffffffffffffffffffffffffffffffff16906020019092919050505061051c565b005b60608060606002546040519080825280602002602001820160405280156101cb5781602001602082028038833980820191505090505b50905060606002546040519080825280602002602001820160405280156102015781602001602082028038833980820191505090505b50905060008090505b6002548110156103715760008060006001848154811061022657fe5b9060005260206000200160009054906101000a900473ffffffffffffffffffffffffffffffffffffffff1673ffffffffffffffffffffffffffffffffffffffff1673ffffffffffffffffffffffffffffffffffffffff16815260200190815260200160002090508060000160009054906101000a900473ffffffffffffffffffffffffffffffffffffffff168483815181106102be57fe5b602002602001019073ffffffffffffffffffffffffffffffffffffffff16908173ffffffffffffffffffffffffffffffffffffffff16815250508060010160009054906101000a900473ffffffffffffffffffffffffffffffffffffffff1683838151811061032957fe5b602002602001019073ffffffffffffffffffffffffffffffffffffffff16908173ffffffffffffffffffffffffffffffffffffffff168152505050808060010191505061020a565b5081819350935050509091565b60405180606001604052808373ffffffffffffffffffffffffffffffffffffffff1681526020018273ffffffffffffffffffffffffffffffffffffffff1681526020016002548152506000808373ffffffffffffffffffffffffffffffffffffffff1673ffffffffffffffffffffffffffffffffffffffff16815260200190815260200160002060008201518160000160006101000a81548173ffffffffffffffffffffffffffffffffffffffff021916908373ffffffffffffffffffffffffffffffffffffffff16021790555060208201518160010160006101000a81548173ffffffffffffffffffffffffffffffffffffffff021916908373ffffffffffffffffffffffffffffffffffffffff1602179055506040820151816002015590505060026000815480929190600101919050555060018190806001815401808255809150509060018203906000526020600020016000909192909190916101000a81548173ffffffffffffffffffffffffffffffffffffffff021916908373ffffffffffffffffffffffffffffffffffffffff160217905550505050565b60008060008373ffffffffffffffffffffffffffffffffffffffff1673ffffffffffffffffffffffffffffffffffffffff1681526020019081526020016000206002015410156105d4576040517f08c379a000000000000000000000000000000000000000000000000000000000815260040180806020018281038252600a8152602001807f6e6f6e206573697374650000000000000000000000000000000000000000000081525060200191505060405180910390fd5b60008060008373ffffffffffffffffffffffffffffffffffffffff1673ffffffffffffffffffffffffffffffffffffffff1681526020019081526020016000206002015490506000808373ffffffffffffffffffffffffffffffffffffffff1673ffffffffffffffffffffffffffffffffffffffff168152602001908152602001600020600080820160006101000a81549073ffffffffffffffffffffffffffffffffffffffff02191690556001820160006101000a81549073ffffffffffffffffffffffffffffffffffffffff021916905560028201600090555050600181815481106106be57fe5b9060005260206000200160006101000a81549073ffffffffffffffffffffffffffffffffffffffff021916905560026000815480929190600190039190505550505056fea165627a7a72305820361ac59b0d4111dec84fd8d6b705611d00dc3c98c4cf06ce3a2d598635af52b70029",
  "source": "pragma solidity ^0.5.1;\n\ncontract Storage{\n    \n    struct myContract {\n        address owner;\n        address contractAddress;\n        uint counter;\n    }\n    \n    mapping (address => myContract) contratti;\n    address[] addContratti;\n    uint counter;\n    \n    function addContract(address creator, address contratto) public{\n        contratti[contratto] = myContract(creator, contratto, counter);\n        counter++;\n        addContratti.push(contratto);\n    } \n    \n    function removeContract(address contr) public{\n        require(contratti[contr].counter >= 0, \"non esiste\");\n        uint index = contratti[contr].counter;\n        delete(contratti[contr]);\n        delete(addContratti[index]);\n        counter--;\n    }\n    \n    function getAllContracts() public view returns(address[] memory, address[] memory){\n        address[] memory add = new address[](counter);\n        address[] memory con = new address[](counter);\n   \n        for(uint i=0; i<counter; i++){\n            myContract storage tmp = contratti[addContratti[i]];\n            add[i] = tmp.owner;\n            con[i] = tmp.contractAddress;\n        }\n        return(add, con);\n        \n    }\n    \n}\n",
  "sourcePath": "/Users/lucacorbucci/Documents/GitHub/SmartAuctions/Frontend/contracts/storage.sol",
  "compiler": {
    "name": "solc",
    "version": "0.5.8+commit.23d335f2.Emscripten.clang"
  },
  "schemaVersion": "3.0.11",
  "updatedAt": "2019-06-19T23:25:57.511Z",
  "devdoc": {
    "methods": {}
  },
  "userdoc": {
    "methods": {}
  }
}