{
  "contractName": "Storage",
  "abi": [
    {
      "anonymous": false,
      "inputs": [
        {
          "indexed": false,
          "name": "bidder",
          "type": "address"
        }
      ],
      "name": "newAuction",
      "type": "event"
    },
    {
      "anonymous": false,
      "inputs": [
        {
          "indexed": false,
          "name": "winner",
          "type": "address"
        }
      ],
      "name": "auctionEnded",
      "type": "event"
    },
    {
      "constant": false,
      "inputs": [
        {
          "name": "creator",
          "type": "address"
        },
        {
          "name": "contratto",
          "type": "address"
        },
        {
          "name": "_url",
          "type": "string"
        },
        {
          "name": "_titolo",
          "type": "string"
        },
        {
          "name": "tipo",
          "type": "uint256"
        }
      ],
      "name": "addContract",
      "outputs": [],
      "payable": false,
      "stateMutability": "nonpayable",
      "type": "function"
    },
    {
      "constant": false,
      "inputs": [
        {
          "name": "contr",
          "type": "address"
        }
      ],
      "name": "removeContract",
      "outputs": [],
      "payable": false,
      "stateMutability": "nonpayable",
      "type": "function"
    },
    {
      "constant": true,
      "inputs": [],
      "name": "getAllContracts",
      "outputs": [
        {
          "name": "",
          "type": "address[]"
        },
        {
          "name": "",
          "type": "address[]"
        },
        {
          "name": "",
          "type": "string[]"
        },
        {
          "name": "",
          "type": "string[]"
        },
        {
          "name": "",
          "type": "uint256[]"
        }
      ],
      "payable": false,
      "stateMutability": "view",
      "type": "function"
    },
    {
      "constant": true,
      "inputs": [],
      "name": "getEndedAuctions",
      "outputs": [
        {
          "name": "owners",
          "type": "address[]"
        },
        {
          "name": "title",
          "type": "string[]"
        },
        {
          "name": "url",
          "type": "string[]"
        },
        {
          "name": "tipo",
          "type": "uint256[]"
        }
      ],
      "payable": false,
      "stateMutability": "view",
      "type": "function"
    }
  ],
  "bytecode": "0x608060405234801561001057600080fd5b50611815806100206000396000f3fe608060405234801561001057600080fd5b506004361061004c5760003560e01c806318d3ce9614610051578063b906c6b514610073578063c375c2ef1461008f578063f10a69ec146100ab575b600080fd5b6100596100cc565b60405161006a9594939291906114df565b60405180910390f35b61008d600480360361008891908101906111c2565b610532565b005b6100a960048036036100a49190810190611199565b610789565b005b6100b36108b4565b6040516100c39493929190611555565b60405180910390f35b606080606080606060006100ed60035460025461102090919063ffffffff16565b90506060816040519080825280602002602001820160405280156101205781602001602082028038833980820191505090505b5090506060826040519080825280602002602001820160405280156101545781602001602082028038833980820191505090505b50905060608360405190808252806020026020018201604052801561018d57816020015b60608152602001906001900390816101785790505b5090506060846040519080825280602002602001820160405280156101c657816020015b60608152602001906001900390816101b15790505b5090506060856040519080825280602002602001820160405280156101fa5781602001602082028038833980820191505090505b509050600080905060008090505b6002548110156105145760008060006001848154811061022457fe5b9060005260206000200160009054906101000a900473ffffffffffffffffffffffffffffffffffffffff1673ffffffffffffffffffffffffffffffffffffffff1673ffffffffffffffffffffffffffffffffffffffff16815260200190815260200160002090508060030160009054906101000a900460ff1615610506578060000160009054906101000a900473ffffffffffffffffffffffffffffffffffffffff168884815181106102d357fe5b602002602001019073ffffffffffffffffffffffffffffffffffffffff16908173ffffffffffffffffffffffffffffffffffffffff16815250508060010160009054906101000a900473ffffffffffffffffffffffffffffffffffffffff1687848151811061033e57fe5b602002602001019073ffffffffffffffffffffffffffffffffffffffff16908173ffffffffffffffffffffffffffffffffffffffff1681525050806004018054600181600116156101000203166002900480601f0160208091040260200160405190810160405280929190818152602001828054600181600116156101000203166002900480156104105780601f106103e557610100808354040283529160200191610410565b820191906000526020600020905b8154815290600101906020018083116103f357829003601f168201915b505050505086848151811061042157fe5b6020026020010181905250806005018054600181600116156101000203166002900480601f0160208091040260200160405190810160405280929190818152602001828054600181600116156101000203166002900480156104c45780601f10610499576101008083540402835291602001916104c4565b820191906000526020600020905b8154815290600101906020018083116104a757829003601f168201915b50505050508584815181106104d557fe5b602002602001018190525080600601548484815181106104f157fe5b60200260200101818152505082806001019350505b508080600101915050610208565b5085858585859b509b509b509b509b50505050505050509091929394565b6040518060e001604052808673ffffffffffffffffffffffffffffffffffffffff1681526020018573ffffffffffffffffffffffffffffffffffffffff1681526020016002548152602001600115158152602001848152602001838152602001828152506000808673ffffffffffffffffffffffffffffffffffffffff1673ffffffffffffffffffffffffffffffffffffffff16815260200190815260200160002060008201518160000160006101000a81548173ffffffffffffffffffffffffffffffffffffffff021916908373ffffffffffffffffffffffffffffffffffffffff16021790555060208201518160010160006101000a81548173ffffffffffffffffffffffffffffffffffffffff021916908373ffffffffffffffffffffffffffffffffffffffff1602179055506040820151816002015560608201518160030160006101000a81548160ff02191690831515021790555060808201518160040190805190602001906106a8929190611076565b5060a08201518160050190805190602001906106c5929190611076565b5060c0820151816006015590505060026000815480929190600101919050555060018490806001815401808255809150509060018203906000526020600020016000909192909190916101000a81548173ffffffffffffffffffffffffffffffffffffffff021916908373ffffffffffffffffffffffffffffffffffffffff160217905550507f9dc2853fa05a54e1c31cb87878685b663faa3f2d8e0d88ea64903bfa5c4fa5af8460405161077a91906114c4565b60405180910390a15050505050565b60008060008373ffffffffffffffffffffffffffffffffffffffff1673ffffffffffffffffffffffffffffffffffffffff16815260200190815260200160002060020154101561080e576040517f08c379a0000000000000000000000000000000000000000000000000000000008152600401610805906115b6565b60405180910390fd5b60008060008373ffffffffffffffffffffffffffffffffffffffff1673ffffffffffffffffffffffffffffffffffffffff16815260200190815260200160002060030160006101000a81548160ff0219169083151502179055506003600081548092919060010191905055507f78242003b8ad3aad0add082b53daa94a9de32223a175926b974235d7f856b357816040516108a991906114c4565b60405180910390a150565b60608060608060146003541115610c7257606060146040519080825280602002602001820160405280156108f75781602001602082028038833980820191505090505b5090506060601460405190808252806020026020018201604052801561093157816020015b606081526020019060019003908161091c5790505b5090506060601460405190808252806020026020018201604052801561096b57816020015b60608152602001906001900390816109565790505b509050606060146040519080825280602002602001820160405280156109a05781602001602082028038833980820191505090505b5090506000809050600060016003540390505b6014821015610c5b576000806000600184815481106109ce57fe5b9060005260206000200160009054906101000a900473ffffffffffffffffffffffffffffffffffffffff1673ffffffffffffffffffffffffffffffffffffffff1673ffffffffffffffffffffffffffffffffffffffff1681526020019081526020016000209050600015158160030160009054906101000a900460ff1615151415610c4c578060000160009054906101000a900473ffffffffffffffffffffffffffffffffffffffff16878481518110610a8457fe5b602002602001019073ffffffffffffffffffffffffffffffffffffffff16908173ffffffffffffffffffffffffffffffffffffffff1681525050806005018054600181600116156101000203166002900480601f016020809104026020016040519081016040528092919081815260200182805460018160011615610100020316600290048015610b565780601f10610b2b57610100808354040283529160200191610b56565b820191906000526020600020905b815481529060010190602001808311610b3957829003601f168201915b5050505050868481518110610b6757fe5b6020026020010181905250806004018054600181600116156101000203166002900480601f016020809104026020016040519081016040528092919081815260200182805460018160011615610100020316600290048015610c0a5780601f10610bdf57610100808354040283529160200191610c0a565b820191906000526020600020905b815481529060010190602001808311610bed57829003601f168201915b5050505050858481518110610c1b57fe5b60200260200101819052508060060154848481518110610c3757fe5b60200260200101818152505082806001019350505b508080600190039150506109b3565b50848484849850985098509850505050505061101a565b6060600354604051908082528060200260200182016040528015610ca55781602001602082028038833980820191505090505b5090506060600354604051908082528060200260200182016040528015610ce057816020015b6060815260200190600190039081610ccb5790505b5090506060600354604051908082528060200260200182016040528015610d1b57816020015b6060815260200190600190039081610d065790505b5090506060600354604051908082528060200260200182016040528015610d515781602001602082028038833980820191505090505b509050600080905060008090505b60025481101561100757600080600060018481548110610d7b57fe5b9060005260206000200160009054906101000a900473ffffffffffffffffffffffffffffffffffffffff1673ffffffffffffffffffffffffffffffffffffffff1673ffffffffffffffffffffffffffffffffffffffff1681526020019081526020016000209050600015158160030160009054906101000a900460ff1615151415610ff9578060000160009054906101000a900473ffffffffffffffffffffffffffffffffffffffff16878481518110610e3157fe5b602002602001019073ffffffffffffffffffffffffffffffffffffffff16908173ffffffffffffffffffffffffffffffffffffffff1681525050806005018054600181600116156101000203166002900480601f016020809104026020016040519081016040528092919081815260200182805460018160011615610100020316600290048015610f035780601f10610ed857610100808354040283529160200191610f03565b820191906000526020600020905b815481529060010190602001808311610ee657829003601f168201915b5050505050868481518110610f1457fe5b6020026020010181905250806004018054600181600116156101000203166002900480601f016020809104026020016040519081016040528092919081815260200182805460018160011615610100020316600290048015610fb75780601f10610f8c57610100808354040283529160200191610fb7565b820191906000526020600020905b815481529060010190602001808311610f9a57829003601f168201915b5050505050858481518110610fc857fe5b60200260200101819052508060060154848481518110610fe457fe5b60200260200101818152505082806001019350505b508080600101915050610d5f565b5084848484985098509850985050505050505b90919293565b600082821115611065576040517f08c379a000000000000000000000000000000000000000000000000000000000815260040161105c906115d6565b60405180910390fd5b600082840390508091505092915050565b828054600181600116156101000203166002900490600052602060002090601f016020900481019282601f106110b757805160ff19168380011785556110e5565b828001600101855582156110e5579182015b828111156110e45782518255916020019190600101906110c9565b5b5090506110f291906110f6565b5090565b61111891905b808211156111145760008160009055506001016110fc565b5090565b90565b60008135905061112a816117ad565b92915050565b600082601f83011261114157600080fd5b813561115461114f82611623565b6115f6565b9150808252602083016020830185838301111561117057600080fd5b61117b83828461175a565b50505092915050565b600081359050611193816117c4565b92915050565b6000602082840312156111ab57600080fd5b60006111b98482850161111b565b91505092915050565b600080600080600060a086880312156111da57600080fd5b60006111e88882890161111b565b95505060206111f98882890161111b565b945050604086013567ffffffffffffffff81111561121657600080fd5b61122288828901611130565b935050606086013567ffffffffffffffff81111561123f57600080fd5b61124b88828901611130565b925050608061125c88828901611184565b9150509295509295909350565b600061127583836112ad565b60208301905092915050565b600061128d83836113fc565b905092915050565b60006112a183836114b5565b60208301905092915050565b6112b68161171e565b82525050565b6112c58161171e565b82525050565b60006112d682611676565b6112e081856116c9565b93506112eb8361164f565b8060005b8381101561131c5781516113038882611269565b975061130e836116a2565b9250506001810190506112ef565b5085935050505092915050565b600061133482611681565b61133e81856116da565b9350836020820285016113508561165c565b8060005b8581101561138c578484038952815161136d8582611281565b9450611378836116af565b925060208a01995050600181019050611354565b50829750879550505050505092915050565b60006113a98261168c565b6113b381856116eb565b93506113be83611669565b8060005b838110156113ef5781516113d68882611295565b97506113e1836116bc565b9250506001810190506113c2565b5085935050505092915050565b600061140782611697565b61141181856116fc565b9350611421818560208601611769565b61142a8161179c565b840191505092915050565b6000611442600a8361170d565b91507f6e6f6e20657369737465000000000000000000000000000000000000000000006000830152602082019050919050565b6000611482601e8361170d565b91507f536166654d6174683a207375627472616374696f6e206f766572666c6f7700006000830152602082019050919050565b6114be81611750565b82525050565b60006020820190506114d960008301846112bc565b92915050565b600060a08201905081810360008301526114f981886112cb565b9050818103602083015261150d81876112cb565b905081810360408301526115218186611329565b905081810360608301526115358185611329565b90508181036080830152611549818461139e565b90509695505050505050565b6000608082019050818103600083015261156f81876112cb565b905081810360208301526115838186611329565b905081810360408301526115978185611329565b905081810360608301526115ab818461139e565b905095945050505050565b600060208201905081810360008301526115cf81611435565b9050919050565b600060208201905081810360008301526115ef81611475565b9050919050565b6000604051905081810181811067ffffffffffffffff8211171561161957600080fd5b8060405250919050565b600067ffffffffffffffff82111561163a57600080fd5b601f19601f8301169050602081019050919050565b6000602082019050919050565b6000602082019050919050565b6000602082019050919050565b600081519050919050565b600081519050919050565b600081519050919050565b600081519050919050565b6000602082019050919050565b6000602082019050919050565b6000602082019050919050565b600082825260208201905092915050565b600082825260208201905092915050565b600082825260208201905092915050565b600082825260208201905092915050565b600082825260208201905092915050565b600061172982611730565b9050919050565b600073ffffffffffffffffffffffffffffffffffffffff82169050919050565b6000819050919050565b82818337600083830152505050565b60005b8381101561178757808201518184015260208101905061176c565b83811115611796576000848401525b50505050565b6000601f19601f8301169050919050565b6117b68161171e565b81146117c157600080fd5b50565b6117cd81611750565b81146117d857600080fd5b5056fea265627a7a72305820733af5f09400d9760af5e758580aa65746a8cb8104f942941068322f690d88666c6578706572696d656e74616cf50037",
  "source": "pragma solidity ^0.5.1;\npragma experimental ABIEncoderV2;\nimport \"node_modules/openzeppelin-solidity/contracts/math/SafeMath.sol\";\n\ncontract Storage{\n    using SafeMath for uint;\n    \n    struct myContract {\n        address owner;\n        address contractAddress;\n        uint counter;\n        bool isActive;\n        string url;\n        string titolo;\n        uint tipo;\n    }\n\n   \n    \n    mapping (address => myContract) contratti;\n    address[] addContratti;\n\n    uint counter;\n    uint counterEnded;\n\n    event newAuction(address bidder);\n    event auctionEnded(address winner);\n    \n    function addContract(address creator, address contratto, string memory _url, string memory _titolo, uint tipo) public{\n        contratti[contratto] = myContract(creator, contratto, counter, true, _url, _titolo, tipo);\n        counter++;\n        addContratti.push(contratto);\n        emit newAuction(contratto);\n    }\n    \n    function removeContract(address contr) public{\n        require(contratti[contr].counter >= 0, \"non esiste\");\n        contratti[contr].isActive = false;\n        counterEnded++;\n        emit auctionEnded(contr);\n    }\n    \n    function getAllContracts() public view returns(address[] memory, address[] memory, string[] memory, string[] memory, uint[] memory){\n        uint lng = counter.sub(counterEnded);\n        address[] memory add = new address[](lng);\n        address[] memory con = new address[](lng);\n        string[] memory urls = new string[](lng);\n        string[] memory titles = new string[](lng);\n        uint[] memory tipo = new uint[](lng);\n\n        uint y = 0;\n   \n        for(uint i=0; i<counter; i++){\n            myContract storage tmp = contratti[addContratti[i]];\n            if(tmp.isActive){\n                add[y] = tmp.owner;\n                con[y] = tmp.contractAddress;\n                urls[y] = tmp.url;\n                titles[y] = tmp.titolo;\n                tipo[y] = tmp.tipo;\n                y++;\n            }\n        }\n        return(add, con, urls, titles, tipo);\n        \n    }\n\n    function getEndedAuctions() public view returns(address[] memory owners, string[] memory title, string[] memory url, uint[] memory tipo){\n\n        if(counterEnded > 20){\n            address[] memory owner = new address[](20);\n            string[] memory titolo = new string[](20);\n            string[] memory urlR = new string[](20);\n            uint[] memory tipoR = new uint[](20);\n            \n            uint y = 0;\n            for(uint i=counterEnded-1; y < 20; i--){\n                myContract storage tmp = contratti[addContratti[i]];\n                if(tmp.isActive == false){\n                    owner[y] = tmp.owner;\n                    titolo[y] = tmp.titolo;\n                    urlR[y] = tmp.url;\n                    tipoR[y] = tmp.tipo;\n                    y++;\n                }\n            }\n            return (owner, titolo, urlR, tipoR);\n        }\n        else{\n            address[] memory owner = new address[](counterEnded);\n            string[] memory titolo = new string[](counterEnded);\n            string[] memory urlR = new string[](counterEnded);\n            uint[] memory tipoR = new uint[](counterEnded);\n\n            uint y = 0;\n            for(uint i=0; i<counter; i++){\n                myContract storage tmp = contratti[addContratti[i]];\n                if(tmp.isActive == false){\n                    owner[y] = tmp.owner;\n                    titolo[y] = tmp.titolo;\n                    urlR[y] = tmp.url;\n                    tipoR[y] = tmp.tipo;\n                    y++;\n                }\n                \n            }\n            return (owner, titolo, urlR, tipoR);\n        }\n    }\n    \n    \n}\n",
  "sourcePath": "/Users/lucacorbucci/Documents/GitHub/SmartAuctions/Frontend/contracts/storage.sol",
  "compiler": {
    "name": "solc",
    "version": "0.5.8+commit.23d335f2.Emscripten.clang"
  },
  "schemaVersion": "3.0.11",
  "updatedAt": "2019-06-22T16:19:38.841Z",
  "devdoc": {
    "methods": {}
  },
  "userdoc": {
    "methods": {}
  }
}