{
  "contractName": "Storage",
  "abi": [
    {
      "constant": false,
      "inputs": [
        {
          "name": "creator",
          "type": "address"
        },
        {
          "name": "contratto",
          "type": "address"
        },
        {
          "name": "_url",
          "type": "string"
        },
        {
          "name": "_titolo",
          "type": "string"
        },
        {
          "name": "tipo",
          "type": "uint256"
        }
      ],
      "name": "addContract",
      "outputs": [],
      "payable": false,
      "stateMutability": "nonpayable",
      "type": "function"
    },
    {
      "constant": false,
      "inputs": [
        {
          "name": "contr",
          "type": "address"
        }
      ],
      "name": "removeContract",
      "outputs": [],
      "payable": false,
      "stateMutability": "nonpayable",
      "type": "function"
    },
    {
      "constant": true,
      "inputs": [],
      "name": "getAllContracts",
      "outputs": [
        {
          "name": "",
          "type": "address[]"
        },
        {
          "name": "",
          "type": "address[]"
        },
        {
          "name": "",
          "type": "string[]"
        },
        {
          "name": "",
          "type": "string[]"
        }
      ],
      "payable": false,
      "stateMutability": "view",
      "type": "function"
    }
  ],
  "bytecode": "0x608060405234801561001057600080fd5b50610eae806100206000396000f3fe608060405234801561001057600080fd5b50600436106100415760003560e01c806318d3ce9614610046578063b906c6b514610067578063c375c2ef14610083575b600080fd5b61004e61009f565b60405161005e9493929190610c44565b60405180910390f35b610081600480360361007c9190810190610a16565b610473565b005b61009d600480360361009891908101906109ed565b610693565b005b60608060608060606002546040519080825280602002602001820160405280156100d85781602001602082028038833980820191505090505b509050606060025460405190808252806020026020018201604052801561010e5781602001602082028038833980820191505090505b509050606060025460405190808252806020026020018201604052801561014957816020015b60608152602001906001900390816101345790505b509050606060025460405190808252806020026020018201604052801561018457816020015b606081526020019060019003908161016f5790505b50905060008090505b60025481101561045c576000806000600184815481106101a957fe5b9060005260206000200160009054906101000a900473ffffffffffffffffffffffffffffffffffffffff1673ffffffffffffffffffffffffffffffffffffffff1673ffffffffffffffffffffffffffffffffffffffff16815260200190815260200160002090508060000160009054906101000a900473ffffffffffffffffffffffffffffffffffffffff1686838151811061024157fe5b602002602001019073ffffffffffffffffffffffffffffffffffffffff16908173ffffffffffffffffffffffffffffffffffffffff16815250508060010160009054906101000a900473ffffffffffffffffffffffffffffffffffffffff168583815181106102ac57fe5b602002602001019073ffffffffffffffffffffffffffffffffffffffff16908173ffffffffffffffffffffffffffffffffffffffff1681525050806004018054600181600116156101000203166002900480601f01602080910402602001604051908101604052809291908181526020018280546001816001161561010002031660029004801561037e5780601f106103535761010080835404028352916020019161037e565b820191906000526020600020905b81548152906001019060200180831161036157829003601f168201915b505050505084838151811061038f57fe5b6020026020010181905250806005018054600181600116156101000203166002900480601f0160208091040260200160405190810160405280929190818152602001828054600181600116156101000203166002900480156104325780601f1061040757610100808354040283529160200191610432565b820191906000526020600020905b81548152906001019060200180831161041557829003601f168201915b505050505083838151811061044357fe5b602002602001018190525050808060010191505061018d565b508383838397509750975097505050505090919293565b6040518060e001604052808673ffffffffffffffffffffffffffffffffffffffff1681526020018573ffffffffffffffffffffffffffffffffffffffff1681526020016002548152602001600115158152602001848152602001838152602001828152506000808673ffffffffffffffffffffffffffffffffffffffff1673ffffffffffffffffffffffffffffffffffffffff16815260200190815260200160002060008201518160000160006101000a81548173ffffffffffffffffffffffffffffffffffffffff021916908373ffffffffffffffffffffffffffffffffffffffff16021790555060208201518160010160006101000a81548173ffffffffffffffffffffffffffffffffffffffff021916908373ffffffffffffffffffffffffffffffffffffffff1602179055506040820151816002015560608201518160030160006101000a81548160ff02191690831515021790555060808201518160040190805190602001906105e9929190610882565b5060a0820151816005019080519060200190610606929190610882565b5060c0820151816006015590505060026000815480929190600101919050555060018490806001815401808255809150509060018203906000526020600020016000909192909190916101000a81548173ffffffffffffffffffffffffffffffffffffffff021916908373ffffffffffffffffffffffffffffffffffffffff160217905550505050505050565b60008060008373ffffffffffffffffffffffffffffffffffffffff1673ffffffffffffffffffffffffffffffffffffffff168152602001908152602001600020600201541015610718576040517f08c379a000000000000000000000000000000000000000000000000000000000815260040161070f90610ca5565b60405180910390fd5b60008060008373ffffffffffffffffffffffffffffffffffffffff1673ffffffffffffffffffffffffffffffffffffffff1681526020019081526020016000206002015490506000808373ffffffffffffffffffffffffffffffffffffffff1673ffffffffffffffffffffffffffffffffffffffff168152602001908152602001600020600080820160006101000a81549073ffffffffffffffffffffffffffffffffffffffff02191690556001820160006101000a81549073ffffffffffffffffffffffffffffffffffffffff021916905560028201600090556003820160006101000a81549060ff02191690556004820160006108179190610902565b6005820160006108279190610902565b600682016000905550506001818154811061083e57fe5b9060005260206000200160006101000a81549073ffffffffffffffffffffffffffffffffffffffff0219169055600260008154809291906001900391905055505050565b828054600181600116156101000203166002900490600052602060002090601f016020900481019282601f106108c357805160ff19168380011785556108f1565b828001600101855582156108f1579182015b828111156108f05782518255916020019190600101906108d5565b5b5090506108fe919061094a565b5090565b50805460018160011615610100020316600290046000825580601f106109285750610947565b601f016020900490600052602060002090810190610946919061094a565b5b50565b61096c91905b80821115610968576000816000905550600101610950565b5090565b90565b60008135905061097e81610e46565b92915050565b600082601f83011261099557600080fd5b81356109a86109a382610cf2565b610cc5565b915080825260208301602083018583830111156109c457600080fd5b6109cf838284610df3565b50505092915050565b6000813590506109e781610e5d565b92915050565b6000602082840312156109ff57600080fd5b6000610a0d8482850161096f565b91505092915050565b600080600080600060a08688031215610a2e57600080fd5b6000610a3c8882890161096f565b9550506020610a4d8882890161096f565b945050604086013567ffffffffffffffff811115610a6a57600080fd5b610a7688828901610984565b935050606086013567ffffffffffffffff811115610a9357600080fd5b610a9f88828901610984565b9250506080610ab0888289016109d8565b9150509295509295909350565b6000610ac98383610ae9565b60208301905092915050565b6000610ae18383610bcb565b905092915050565b610af281610db7565b82525050565b6000610b0382610d38565b610b0d8185610d73565b9350610b1883610d1e565b8060005b83811015610b49578151610b308882610abd565b9750610b3b83610d59565b925050600181019050610b1c565b5085935050505092915050565b6000610b6182610d43565b610b6b8185610d84565b935083602082028501610b7d85610d2b565b8060005b85811015610bb95784840389528151610b9a8582610ad5565b9450610ba583610d66565b925060208a01995050600181019050610b81565b50829750879550505050505092915050565b6000610bd682610d4e565b610be08185610d95565b9350610bf0818560208601610e02565b610bf981610e35565b840191505092915050565b6000610c11600a83610da6565b91507f6e6f6e20657369737465000000000000000000000000000000000000000000006000830152602082019050919050565b60006080820190508181036000830152610c5e8187610af8565b90508181036020830152610c728186610af8565b90508181036040830152610c868185610b56565b90508181036060830152610c9a8184610b56565b905095945050505050565b60006020820190508181036000830152610cbe81610c04565b9050919050565b6000604051905081810181811067ffffffffffffffff82111715610ce857600080fd5b8060405250919050565b600067ffffffffffffffff821115610d0957600080fd5b601f19601f8301169050602081019050919050565b6000602082019050919050565b6000602082019050919050565b600081519050919050565b600081519050919050565b600081519050919050565b6000602082019050919050565b6000602082019050919050565b600082825260208201905092915050565b600082825260208201905092915050565b600082825260208201905092915050565b600082825260208201905092915050565b6000610dc282610dc9565b9050919050565b600073ffffffffffffffffffffffffffffffffffffffff82169050919050565b6000819050919050565b82818337600083830152505050565b60005b83811015610e20578082015181840152602081019050610e05565b83811115610e2f576000848401525b50505050565b6000601f19601f8301169050919050565b610e4f81610db7565b8114610e5a57600080fd5b50565b610e6681610de9565b8114610e7157600080fd5b5056fea265627a7a723058209ada6d98c16978bddc48dcf70a4fac90eb38253266b4115daa6c3ac4aae6a7196c6578706572696d656e74616cf50037",
  "source": "pragma solidity ^0.5.1;\npragma experimental ABIEncoderV2;\n\ncontract Storage{\n    \n    struct myContract {\n        address owner;\n        address contractAddress;\n        uint counter;\n        bool isActive;\n        string url;\n        string titolo;\n        uint tipo;\n    }\n    \n    mapping (address => myContract) contratti;\n    address[] addContratti;\n    uint counter;\n    \n    function addContract(address creator, address contratto, string memory _url, string memory _titolo, uint tipo) public{\n        contratti[contratto] = myContract(creator, contratto, counter, true, _url, _titolo, tipo);\n        counter++;\n        addContratti.push(contratto);\n    }\n    \n    function removeContract(address contr) public{\n        require(contratti[contr].counter >= 0, \"non esiste\");\n        uint index = contratti[contr].counter;\n        delete(contratti[contr]);\n        delete(addContratti[index]);\n        counter--;\n    }\n    \n    function getAllContracts() public view returns(address[] memory, address[] memory, string[] memory, string[] memory){\n        address[] memory add = new address[](counter);\n        address[] memory con = new address[](counter);\n        string[] memory urls = new string[](counter);\n        string[] memory titles = new string[](counter);\n   \n        for(uint i=0; i<counter; i++){\n            myContract storage tmp = contratti[addContratti[i]];\n            add[i] = tmp.owner;\n            con[i] = tmp.contractAddress;\n            urls[i] = tmp.url;\n            titles[i] = tmp.titolo;\n        }\n        return(add, con, urls, titles);\n        \n    }\n    \n    \n    \n}\n",
  "sourcePath": "/Users/lucacorbucci/Documents/GitHub/SmartAuctions/Frontend/contracts/storage.sol",
  "compiler": {
    "name": "solc",
    "version": "0.5.8+commit.23d335f2.Emscripten.clang"
  },
  "schemaVersion": "3.0.11",
  "updatedAt": "2019-06-20T22:19:20.080Z",
  "devdoc": {
    "methods": {}
  },
  "userdoc": {
    "methods": {}
  }
}