{
  "contractName": "Storage",
  "abi": [
    {
      "constant": false,
      "inputs": [
        {
          "name": "creator",
          "type": "address"
        },
        {
          "name": "contratto",
          "type": "address"
        },
        {
          "name": "_url",
          "type": "string"
        },
        {
          "name": "_titolo",
          "type": "string"
        },
        {
          "name": "tipo",
          "type": "uint256"
        }
      ],
      "name": "addContract",
      "outputs": [],
      "payable": false,
      "stateMutability": "nonpayable",
      "type": "function"
    },
    {
      "constant": false,
      "inputs": [
        {
          "name": "contr",
          "type": "address"
        }
      ],
      "name": "removeContract",
      "outputs": [],
      "payable": false,
      "stateMutability": "nonpayable",
      "type": "function"
    },
    {
      "constant": true,
      "inputs": [],
      "name": "getAllContracts",
      "outputs": [
        {
          "name": "",
          "type": "address[]"
        },
        {
          "name": "",
          "type": "address[]"
        },
        {
          "name": "",
          "type": "string[]"
        },
        {
          "name": "",
          "type": "string[]"
        },
        {
          "name": "",
          "type": "uint256[]"
        }
      ],
      "payable": false,
      "stateMutability": "view",
      "type": "function"
    },
    {
      "constant": true,
      "inputs": [],
      "name": "getEndedAuctions",
      "outputs": [
        {
          "name": "owners",
          "type": "address[]"
        },
        {
          "name": "title",
          "type": "string[]"
        },
        {
          "name": "url",
          "type": "string[]"
        },
        {
          "name": "tipo",
          "type": "uint256[]"
        }
      ],
      "payable": false,
      "stateMutability": "view",
      "type": "function"
    }
  ],
  "bytecode": "0x608060405234801561001057600080fd5b5061177d806100206000396000f3fe608060405234801561001057600080fd5b506004361061004c5760003560e01c806318d3ce9614610051578063b906c6b514610073578063c375c2ef1461008f578063f10a69ec146100ab575b600080fd5b6100596100cc565b60405161006a959493929190611447565b60405180910390f35b61008d60048036036100889190810190611154565b610532565b005b6100a960048036036100a4919081019061112b565b610752565b005b6100b3610846565b6040516100c394939291906114bd565b60405180910390f35b606080606080606060006100ed600354600254610fb290919063ffffffff16565b90506060816040519080825280602002602001820160405280156101205781602001602082028038833980820191505090505b5090506060826040519080825280602002602001820160405280156101545781602001602082028038833980820191505090505b50905060608360405190808252806020026020018201604052801561018d57816020015b60608152602001906001900390816101785790505b5090506060846040519080825280602002602001820160405280156101c657816020015b60608152602001906001900390816101b15790505b5090506060856040519080825280602002602001820160405280156101fa5781602001602082028038833980820191505090505b509050600080905060008090505b6002548110156105145760008060006001848154811061022457fe5b9060005260206000200160009054906101000a900473ffffffffffffffffffffffffffffffffffffffff1673ffffffffffffffffffffffffffffffffffffffff1673ffffffffffffffffffffffffffffffffffffffff16815260200190815260200160002090508060030160009054906101000a900460ff1615610506578060000160009054906101000a900473ffffffffffffffffffffffffffffffffffffffff168884815181106102d357fe5b602002602001019073ffffffffffffffffffffffffffffffffffffffff16908173ffffffffffffffffffffffffffffffffffffffff16815250508060010160009054906101000a900473ffffffffffffffffffffffffffffffffffffffff1687848151811061033e57fe5b602002602001019073ffffffffffffffffffffffffffffffffffffffff16908173ffffffffffffffffffffffffffffffffffffffff1681525050806004018054600181600116156101000203166002900480601f0160208091040260200160405190810160405280929190818152602001828054600181600116156101000203166002900480156104105780601f106103e557610100808354040283529160200191610410565b820191906000526020600020905b8154815290600101906020018083116103f357829003601f168201915b505050505086848151811061042157fe5b6020026020010181905250806005018054600181600116156101000203166002900480601f0160208091040260200160405190810160405280929190818152602001828054600181600116156101000203166002900480156104c45780601f10610499576101008083540402835291602001916104c4565b820191906000526020600020905b8154815290600101906020018083116104a757829003601f168201915b50505050508584815181106104d557fe5b602002602001018190525080600601548484815181106104f157fe5b60200260200101818152505082806001019350505b508080600101915050610208565b5085858585859b509b509b509b509b50505050505050509091929394565b6040518060e001604052808673ffffffffffffffffffffffffffffffffffffffff1681526020018573ffffffffffffffffffffffffffffffffffffffff1681526020016002548152602001600115158152602001848152602001838152602001828152506000808673ffffffffffffffffffffffffffffffffffffffff1673ffffffffffffffffffffffffffffffffffffffff16815260200190815260200160002060008201518160000160006101000a81548173ffffffffffffffffffffffffffffffffffffffff021916908373ffffffffffffffffffffffffffffffffffffffff16021790555060208201518160010160006101000a81548173ffffffffffffffffffffffffffffffffffffffff021916908373ffffffffffffffffffffffffffffffffffffffff1602179055506040820151816002015560608201518160030160006101000a81548160ff02191690831515021790555060808201518160040190805190602001906106a8929190611008565b5060a08201518160050190805190602001906106c5929190611008565b5060c0820151816006015590505060026000815480929190600101919050555060018490806001815401808255809150509060018203906000526020600020016000909192909190916101000a81548173ffffffffffffffffffffffffffffffffffffffff021916908373ffffffffffffffffffffffffffffffffffffffff160217905550505050505050565b60008060008373ffffffffffffffffffffffffffffffffffffffff1673ffffffffffffffffffffffffffffffffffffffff1681526020019081526020016000206002015410156107d7576040517f08c379a00000000000000000000000000000000000000000000000000000000081526004016107ce9061151e565b60405180910390fd5b60008060008373ffffffffffffffffffffffffffffffffffffffff1673ffffffffffffffffffffffffffffffffffffffff16815260200190815260200160002060030160006101000a81548160ff02191690831515021790555060036000815480929190600101919050555050565b60608060608060146003541115610c0457606060146040519080825280602002602001820160405280156108895781602001602082028038833980820191505090505b509050606060146040519080825280602002602001820160405280156108c357816020015b60608152602001906001900390816108ae5790505b509050606060146040519080825280602002602001820160405280156108fd57816020015b60608152602001906001900390816108e85790505b509050606060146040519080825280602002602001820160405280156109325781602001602082028038833980820191505090505b5090506000809050600060016003540390505b6014821015610bed5760008060006001848154811061096057fe5b9060005260206000200160009054906101000a900473ffffffffffffffffffffffffffffffffffffffff1673ffffffffffffffffffffffffffffffffffffffff1673ffffffffffffffffffffffffffffffffffffffff1681526020019081526020016000209050600015158160030160009054906101000a900460ff1615151415610bde578060000160009054906101000a900473ffffffffffffffffffffffffffffffffffffffff16878481518110610a1657fe5b602002602001019073ffffffffffffffffffffffffffffffffffffffff16908173ffffffffffffffffffffffffffffffffffffffff1681525050806005018054600181600116156101000203166002900480601f016020809104026020016040519081016040528092919081815260200182805460018160011615610100020316600290048015610ae85780601f10610abd57610100808354040283529160200191610ae8565b820191906000526020600020905b815481529060010190602001808311610acb57829003601f168201915b5050505050868481518110610af957fe5b6020026020010181905250806004018054600181600116156101000203166002900480601f016020809104026020016040519081016040528092919081815260200182805460018160011615610100020316600290048015610b9c5780601f10610b7157610100808354040283529160200191610b9c565b820191906000526020600020905b815481529060010190602001808311610b7f57829003601f168201915b5050505050858481518110610bad57fe5b60200260200101819052508060060154848481518110610bc957fe5b60200260200101818152505082806001019350505b50808060019003915050610945565b508484848498509850985098505050505050610fac565b6060600354604051908082528060200260200182016040528015610c375781602001602082028038833980820191505090505b5090506060600354604051908082528060200260200182016040528015610c7257816020015b6060815260200190600190039081610c5d5790505b5090506060600354604051908082528060200260200182016040528015610cad57816020015b6060815260200190600190039081610c985790505b5090506060600354604051908082528060200260200182016040528015610ce35781602001602082028038833980820191505090505b509050600080905060008090505b600254811015610f9957600080600060018481548110610d0d57fe5b9060005260206000200160009054906101000a900473ffffffffffffffffffffffffffffffffffffffff1673ffffffffffffffffffffffffffffffffffffffff1673ffffffffffffffffffffffffffffffffffffffff1681526020019081526020016000209050600015158160030160009054906101000a900460ff1615151415610f8b578060000160009054906101000a900473ffffffffffffffffffffffffffffffffffffffff16878481518110610dc357fe5b602002602001019073ffffffffffffffffffffffffffffffffffffffff16908173ffffffffffffffffffffffffffffffffffffffff1681525050806005018054600181600116156101000203166002900480601f016020809104026020016040519081016040528092919081815260200182805460018160011615610100020316600290048015610e955780601f10610e6a57610100808354040283529160200191610e95565b820191906000526020600020905b815481529060010190602001808311610e7857829003601f168201915b5050505050868481518110610ea657fe5b6020026020010181905250806004018054600181600116156101000203166002900480601f016020809104026020016040519081016040528092919081815260200182805460018160011615610100020316600290048015610f495780601f10610f1e57610100808354040283529160200191610f49565b820191906000526020600020905b815481529060010190602001808311610f2c57829003601f168201915b5050505050858481518110610f5a57fe5b60200260200101819052508060060154848481518110610f7657fe5b60200260200101818152505082806001019350505b508080600101915050610cf1565b5084848484985098509850985050505050505b90919293565b600082821115610ff7576040517f08c379a0000000000000000000000000000000000000000000000000000000008152600401610fee9061153e565b60405180910390fd5b600082840390508091505092915050565b828054600181600116156101000203166002900490600052602060002090601f016020900481019282601f1061104957805160ff1916838001178555611077565b82800160010185558215611077579182015b8281111561107657825182559160200191906001019061105b565b5b5090506110849190611088565b5090565b6110aa91905b808211156110a657600081600090555060010161108e565b5090565b90565b6000813590506110bc81611715565b92915050565b600082601f8301126110d357600080fd5b81356110e66110e18261158b565b61155e565b9150808252602083016020830185838301111561110257600080fd5b61110d8382846116c2565b50505092915050565b6000813590506111258161172c565b92915050565b60006020828403121561113d57600080fd5b600061114b848285016110ad565b91505092915050565b600080600080600060a0868803121561116c57600080fd5b600061117a888289016110ad565b955050602061118b888289016110ad565b945050604086013567ffffffffffffffff8111156111a857600080fd5b6111b4888289016110c2565b935050606086013567ffffffffffffffff8111156111d157600080fd5b6111dd888289016110c2565b92505060806111ee88828901611116565b9150509295509295909350565b6000611207838361123f565b60208301905092915050565b600061121f838361137f565b905092915050565b60006112338383611438565b60208301905092915050565b61124881611686565b82525050565b6000611259826115de565b6112638185611631565b935061126e836115b7565b8060005b8381101561129f57815161128688826111fb565b97506112918361160a565b925050600181019050611272565b5085935050505092915050565b60006112b7826115e9565b6112c18185611642565b9350836020820285016112d3856115c4565b8060005b8581101561130f57848403895281516112f08582611213565b94506112fb83611617565b925060208a019950506001810190506112d7565b50829750879550505050505092915050565b600061132c826115f4565b6113368185611653565b9350611341836115d1565b8060005b838110156113725781516113598882611227565b975061136483611624565b925050600181019050611345565b5085935050505092915050565b600061138a826115ff565b6113948185611664565b93506113a48185602086016116d1565b6113ad81611704565b840191505092915050565b60006113c5600a83611675565b91507f6e6f6e20657369737465000000000000000000000000000000000000000000006000830152602082019050919050565b6000611405601e83611675565b91507f536166654d6174683a207375627472616374696f6e206f766572666c6f7700006000830152602082019050919050565b611441816116b8565b82525050565b600060a0820190508181036000830152611461818861124e565b90508181036020830152611475818761124e565b9050818103604083015261148981866112ac565b9050818103606083015261149d81856112ac565b905081810360808301526114b18184611321565b90509695505050505050565b600060808201905081810360008301526114d7818761124e565b905081810360208301526114eb81866112ac565b905081810360408301526114ff81856112ac565b905081810360608301526115138184611321565b905095945050505050565b60006020820190508181036000830152611537816113b8565b9050919050565b60006020820190508181036000830152611557816113f8565b9050919050565b6000604051905081810181811067ffffffffffffffff8211171561158157600080fd5b8060405250919050565b600067ffffffffffffffff8211156115a257600080fd5b601f19601f8301169050602081019050919050565b6000602082019050919050565b6000602082019050919050565b6000602082019050919050565b600081519050919050565b600081519050919050565b600081519050919050565b600081519050919050565b6000602082019050919050565b6000602082019050919050565b6000602082019050919050565b600082825260208201905092915050565b600082825260208201905092915050565b600082825260208201905092915050565b600082825260208201905092915050565b600082825260208201905092915050565b600061169182611698565b9050919050565b600073ffffffffffffffffffffffffffffffffffffffff82169050919050565b6000819050919050565b82818337600083830152505050565b60005b838110156116ef5780820151818401526020810190506116d4565b838111156116fe576000848401525b50505050565b6000601f19601f8301169050919050565b61171e81611686565b811461172957600080fd5b50565b611735816116b8565b811461174057600080fd5b5056fea265627a7a7230582012b93c09926b01ce8ee7dc3eb6901f9fd68d51e257d4d5a7be4545e4daa513416c6578706572696d656e74616cf50037",
  "source": "pragma solidity ^0.5.1;\npragma experimental ABIEncoderV2;\nimport \"node_modules/openzeppelin-solidity/contracts/math/SafeMath.sol\";\n\ncontract Storage{\n    using SafeMath for uint;\n    \n    struct myContract {\n        address owner;\n        address contractAddress;\n        uint counter;\n        bool isActive;\n        string url;\n        string titolo;\n        uint tipo;\n    }\n\n   \n    \n    mapping (address => myContract) contratti;\n    address[] addContratti;\n\n    uint counter;\n    uint counterEnded;\n    \n    function addContract(address creator, address contratto, string memory _url, string memory _titolo, uint tipo) public{\n        contratti[contratto] = myContract(creator, contratto, counter, true, _url, _titolo, tipo);\n        counter++;\n        addContratti.push(contratto);\n    }\n    \n    function removeContract(address contr) public{\n        require(contratti[contr].counter >= 0, \"non esiste\");\n        contratti[contr].isActive = false;\n        counterEnded++;\n    }\n    \n    function getAllContracts() public view returns(address[] memory, address[] memory, string[] memory, string[] memory, uint[] memory){\n        uint lng = counter.sub(counterEnded);\n        address[] memory add = new address[](lng);\n        address[] memory con = new address[](lng);\n        string[] memory urls = new string[](lng);\n        string[] memory titles = new string[](lng);\n        uint[] memory tipo = new uint[](lng);\n\n        uint y = 0;\n   \n        for(uint i=0; i<counter; i++){\n            myContract storage tmp = contratti[addContratti[i]];\n            if(tmp.isActive){\n                add[y] = tmp.owner;\n                con[y] = tmp.contractAddress;\n                urls[y] = tmp.url;\n                titles[y] = tmp.titolo;\n                tipo[y] = tmp.tipo;\n                y++;\n            }\n        }\n        return(add, con, urls, titles, tipo);\n        \n    }\n\n    function getEndedAuctions() public view returns(address[] memory owners, string[] memory title, string[] memory url, uint[] memory tipo){\n\n        if(counterEnded > 20){\n            address[] memory owner = new address[](20);\n            string[] memory titolo = new string[](20);\n            string[] memory urlR = new string[](20);\n            uint[] memory tipoR = new uint[](20);\n            \n            uint y = 0;\n            for(uint i=counterEnded-1; y < 20; i--){\n                myContract storage tmp = contratti[addContratti[i]];\n                if(tmp.isActive == false){\n                    owner[y] = tmp.owner;\n                    titolo[y] = tmp.titolo;\n                    urlR[y] = tmp.url;\n                    tipoR[y] = tmp.tipo;\n                    y++;\n                }\n            }\n            return (owner, titolo, urlR, tipoR);\n        }\n        else{\n            address[] memory owner = new address[](counterEnded);\n            string[] memory titolo = new string[](counterEnded);\n            string[] memory urlR = new string[](counterEnded);\n            uint[] memory tipoR = new uint[](counterEnded);\n\n            uint y = 0;\n            for(uint i=0; i<counter; i++){\n                myContract storage tmp = contratti[addContratti[i]];\n                if(tmp.isActive == false){\n                    owner[y] = tmp.owner;\n                    titolo[y] = tmp.titolo;\n                    urlR[y] = tmp.url;\n                    tipoR[y] = tmp.tipo;\n                    y++;\n                }\n                \n            }\n            return (owner, titolo, urlR, tipoR);\n        }\n    }\n    \n    \n}\n",
  "sourcePath": "/Users/lucacorbucci/Documents/GitHub/SmartAuctions/Frontend/contracts/storage.sol",
  "compiler": {
    "name": "solc",
    "version": "0.5.8+commit.23d335f2.Emscripten.clang"
  },
  "schemaVersion": "3.0.11",
  "updatedAt": "2019-06-21T20:49:41.401Z",
  "devdoc": {
    "methods": {}
  },
  "userdoc": {
    "methods": {}
  }
}