{
  "contractName": "Vickrey",
  "abi": [
    {
      "constant": true,
      "inputs": [],
      "name": "bidDeposit",
      "outputs": [
        {
          "name": "",
          "type": "uint256"
        }
      ],
      "payable": false,
      "stateMutability": "view",
      "type": "function"
    },
    {
      "constant": true,
      "inputs": [],
      "name": "secondHighestBid",
      "outputs": [
        {
          "name": "",
          "type": "uint256"
        }
      ],
      "payable": false,
      "stateMutability": "view",
      "type": "function"
    },
    {
      "constant": true,
      "inputs": [],
      "name": "highestBid",
      "outputs": [
        {
          "name": "",
          "type": "uint256"
        }
      ],
      "payable": false,
      "stateMutability": "view",
      "type": "function"
    },
    {
      "inputs": [
        {
          "name": "_title",
          "type": "string"
        },
        {
          "name": "_URL",
          "type": "string"
        },
        {
          "name": "_reservePrice",
          "type": "uint256"
        },
        {
          "name": "_bidTime",
          "type": "uint256"
        },
        {
          "name": "_withdrawalTime",
          "type": "uint256"
        },
        {
          "name": "_bidOpeningTime",
          "type": "uint256"
        },
        {
          "name": "_bidDeposit",
          "type": "uint256"
        }
      ],
      "payable": true,
      "stateMutability": "payable",
      "type": "constructor"
    },
    {
      "anonymous": false,
      "inputs": [
        {
          "indexed": false,
          "name": "bidder",
          "type": "address"
        },
        {
          "indexed": false,
          "name": "secondBidder",
          "type": "address"
        }
      ],
      "name": "HighestBidIncreased",
      "type": "event"
    },
    {
      "anonymous": false,
      "inputs": [
        {
          "indexed": false,
          "name": "winner",
          "type": "address"
        },
        {
          "indexed": false,
          "name": "amount",
          "type": "uint256"
        }
      ],
      "name": "AuctionEnded",
      "type": "event"
    },
    {
      "constant": false,
      "inputs": [],
      "name": "openAuction",
      "outputs": [],
      "payable": false,
      "stateMutability": "nonpayable",
      "type": "function"
    },
    {
      "constant": false,
      "inputs": [
        {
          "name": "bid",
          "type": "bytes32"
        }
      ],
      "name": "addBid",
      "outputs": [],
      "payable": true,
      "stateMutability": "payable",
      "type": "function"
    },
    {
      "constant": false,
      "inputs": [
        {
          "name": "bid",
          "type": "bytes32"
        }
      ],
      "name": "withdrawal",
      "outputs": [],
      "payable": false,
      "stateMutability": "nonpayable",
      "type": "function"
    },
    {
      "constant": false,
      "inputs": [
        {
          "name": "_nonce",
          "type": "uint256"
        }
      ],
      "name": "openBid",
      "outputs": [],
      "payable": true,
      "stateMutability": "payable",
      "type": "function"
    },
    {
      "constant": false,
      "inputs": [],
      "name": "finalize",
      "outputs": [],
      "payable": true,
      "stateMutability": "payable",
      "type": "function"
    },
    {
      "constant": true,
      "inputs": [],
      "name": "getHighestBidder",
      "outputs": [
        {
          "name": "",
          "type": "address"
        }
      ],
      "payable": false,
      "stateMutability": "view",
      "type": "function"
    },
    {
      "constant": true,
      "inputs": [],
      "name": "getHighestBid",
      "outputs": [
        {
          "name": "",
          "type": "uint256"
        }
      ],
      "payable": false,
      "stateMutability": "view",
      "type": "function"
    },
    {
      "constant": true,
      "inputs": [],
      "name": "getDeposit",
      "outputs": [
        {
          "name": "",
          "type": "uint256"
        }
      ],
      "payable": false,
      "stateMutability": "view",
      "type": "function"
    }
  ],
  "bytecode": "0x60806040526000600d60006101000a81548160ff0219169083151502179055506000600d60016101000a81548160ff02191690831515021790555060405162001c3038038062001c30833981018060405260e08110156200005f57600080fd5b8101908080516401000000008111156200007857600080fd5b828101905060208101848111156200008f57600080fd5b8151856001820283011164010000000082111715620000ad57600080fd5b50509291906020018051640100000000811115620000ca57600080fd5b82810190506020810184811115620000e157600080fd5b8151856001820283011164010000000082111715620000ff57600080fd5b5050929190602001805190602001909291908051906020019092919080519060200190929190805190602001909291908051906020019092919050505060008511620001b3576040517f08c379a000000000000000000000000000000000000000000000000000000000815260040180806020018281038252600b8152602001807f72657365727665203e203000000000000000000000000000000000000000000081525060200191505060405180910390fd5b8460008190555033600360006101000a81548173ffffffffffffffffffffffffffffffffffffffff021916908373ffffffffffffffffffffffffffffffffffffffff16021790555083600581905550826006819055508160078190555080600181905550620002326002826200028060201b620017a51790919060201c565b60028190555060005460098190555086600e90805190602001906200025992919062000311565b5085600f90805190602001906200027292919062000311565b5050505050505050620003c0565b6000808211620002f8576040517f08c379a000000000000000000000000000000000000000000000000000000000815260040180806020018281038252601a8152602001807f536166654d6174683a206469766973696f6e206279207a65726f00000000000081525060200191505060405180910390fd5b60008284816200030457fe5b0490508091505092915050565b828054600181600116156101000203166002900490600052602060002090601f016020900481019282601f106200035457805160ff191683800117855562000385565b8280016001018555821562000385579182015b828111156200038457825182559160200191906001019062000367565b5b50905062000394919062000398565b5090565b620003bd91905b80821115620003b95760008160009055506001016200039f565b5090565b90565b61186080620003d06000396000f3fe60806040526004361061009b5760003560e01c80634d8b0ea4116100645780634d8b0ea414610171578063a6596a08146101ac578063acb902f6146101d7578063b354d04514610202578063c399ec8814610230578063d57bde791461025b5761009b565b80623495a4146100a057806304cb72f9146100f757806323b6b7c41461010e5780634979440a1461013c5780634bb278f314610167575b600080fd5b3480156100ac57600080fd5b506100b5610286565b604051808273ffffffffffffffffffffffffffffffffffffffff1673ffffffffffffffffffffffffffffffffffffffff16815260200191505060405180910390f35b34801561010357600080fd5b5061010c6102b0565b005b61013a6004803603602081101561012457600080fd5b81019080803590602001909291905050506103b7565b005b34801561014857600080fd5b50610151610a4c565b6040518082815260200191505060405180910390f35b61016f610a56565b005b34801561017d57600080fd5b506101aa6004803603602081101561019457600080fd5b8101908080359060200190929190505050611042565b005b3480156101b857600080fd5b506101c1611339565b6040518082815260200191505060405180910390f35b3480156101e357600080fd5b506101ec61133f565b6040518082815260200191505060405180910390f35b61022e6004803603602081101561021857600080fd5b8101908080359060200190929190505050611345565b005b34801561023c57600080fd5b50610245611684565b6040518082815260200191505060405180910390f35b34801561026757600080fd5b5061027061168e565b6040518082815260200191505060405180910390f35b6000600a60009054906101000a900473ffffffffffffffffffffffffffffffffffffffff16905090565b600360009054906101000a900473ffffffffffffffffffffffffffffffffffffffff1673ffffffffffffffffffffffffffffffffffffffff163373ffffffffffffffffffffffffffffffffffffffff1614610373576040517f08c379a00000000000000000000000000000000000000000000000000000000081526004018080602001828103825260148152602001807f6e6f6e20736569206c2761756374696f6e65657200000000000000000000000081525060200191505060405180910390fd5b60001515600d60009054906101000a900460ff1615151461039357600080fd5b6001600d60006101000a81548160ff02191690831515021790555043600481905550565b60011515600d60009054906101000a900460ff16151514610440576040517f08c379a00000000000000000000000000000000000000000000000000000000081526004018080602001828103825260118152602001807f41737461206e6f6e20696e697a6961746100000000000000000000000000000081525060200191505060405180910390fd5b61046b60065461045d60055460045461169490919063ffffffff16565b61169490919063ffffffff16565b43116104df576040517f08c379a000000000000000000000000000000000000000000000000000000000815260040180806020018281038252601e8152602001807f5769746864726177616c205068617365206e6f6e207465726d696e617461000081525060200191505060405180910390fd5b61051e60075461051060065461050260055460045461169490919063ffffffff16565b61169490919063ffffffff16565b61169490919063ffffffff16565b431115610593576040517f08c379a00000000000000000000000000000000000000000000000000000000081526004018080602001828103825260188152602001807f4f70656e20426964205068617365207465726d696e617461000000000000000081525060200191505060405180910390fd5b34803373ffffffffffffffffffffffffffffffffffffffff16311015610621576040517f08c379a00000000000000000000000000000000000000000000000000000000081526004018080602001828103825260178152602001807f42616c616e6365206e6f6e2073756666696369656e746500000000000000000081525060200191505060405180910390fd5b600c60003373ffffffffffffffffffffffffffffffffffffffff1673ffffffffffffffffffffffffffffffffffffffff16815260200190815260200160002054823460405160200180838152602001828152602001925050506040516020818303038152906040528051906020012014610703576040517f08c379a00000000000000000000000000000000000000000000000000000000081526004018080602001828103825260128152602001807f496d706f73736962696c6520617072697265000000000000000000000000000081525060200191505060405180910390fd5b6000806008543411156109195760006008541415610768573460088190555033600a60006101000a81548173ffffffffffffffffffffffffffffffffffffffff021916908373ffffffffffffffffffffffffffffffffffffffff16021790555061085b565b600b60009054906101000a900473ffffffffffffffffffffffffffffffffffffffff1691506107a460015460095461169490919063ffffffff16565b9050600a60009054906101000a900473ffffffffffffffffffffffffffffffffffffffff16600b60006101000a81548173ffffffffffffffffffffffffffffffffffffffff021916908373ffffffffffffffffffffffffffffffffffffffff1602179055506008546009819055503460088190555033600a60006101000a81548173ffffffffffffffffffffffffffffffffffffffff021916908373ffffffffffffffffffffffffffffffffffffffff1602179055505b7fd206cf269674fbc0d2a31ca1f49f3b19ecf78d09f660e746a83ecf8b2a96767033600b60009054906101000a900473ffffffffffffffffffffffffffffffffffffffff16604051808373ffffffffffffffffffffffffffffffffffffffff1673ffffffffffffffffffffffffffffffffffffffff1681526020018273ffffffffffffffffffffffffffffffffffffffff1673ffffffffffffffffffffffffffffffffffffffff1681526020019250505060405180910390a16109ca565b6009543411156109ae57600b60009054906101000a900473ffffffffffffffffffffffffffffffffffffffff16915061095f60015460095461169490919063ffffffff16565b905033600b60006101000a81548173ffffffffffffffffffffffffffffffffffffffff021916908373ffffffffffffffffffffffffffffffffffffffff160217905550346009819055506109c9565b3391506109c66001543461169490919063ffffffff16565b90505b5b600073ffffffffffffffffffffffffffffffffffffffff168273ffffffffffffffffffffffffffffffffffffffff1614610a46578173ffffffffffffffffffffffffffffffffffffffff166108fc829081150290604051600060405180830381858888f19350505050158015610a44573d6000803e3d6000fd5b505b50505050565b6000600854905090565b60011515600d60009054906101000a900460ff16151514610adf576040517f08c379a00000000000000000000000000000000000000000000000000000000081526004018080602001828103825260118152602001807f41737461206e6f6e20696e697a6961746100000000000000000000000000000081525060200191505060405180910390fd5b60001515600d60019054906101000a900460ff16151514610b68576040517f08c379a000000000000000000000000000000000000000000000000000000000815260040180806020018281038252600e8152602001807f41737461207465726d696e61746100000000000000000000000000000000000081525060200191505060405180910390fd5b610ba7600754610b99600654610b8b60055460045461169490919063ffffffff16565b61169490919063ffffffff16565b61169490919063ffffffff16565b4311610c1b576040517f08c379a000000000000000000000000000000000000000000000000000000000815260040180806020018281038252601c8152602001807f4f70656e20426964205068617365206e6f6e207465726d696e6174610000000081525060200191505060405180910390fd5b600a60009054906101000a900473ffffffffffffffffffffffffffffffffffffffff1673ffffffffffffffffffffffffffffffffffffffff163373ffffffffffffffffffffffffffffffffffffffff161480610cc45750600360009054906101000a900473ffffffffffffffffffffffffffffffffffffffff1673ffffffffffffffffffffffffffffffffffffffff163373ffffffffffffffffffffffffffffffffffffffff16145b610d36576040517f08c379a00000000000000000000000000000000000000000000000000000000081526004018080602001828103825260128152602001807f4e6f6e206861692069207065726d65737369000000000000000000000000000081525060200191505060405180910390fd5b7fdaec4582d5d9595688c8c98545fdd1c696d41c6aeaeb636737e84ed2f5c00eda600a60009054906101000a900473ffffffffffffffffffffffffffffffffffffffff16600954604051808373ffffffffffffffffffffffffffffffffffffffff1673ffffffffffffffffffffffffffffffffffffffff1681526020018281526020019250505060405180910390a16001600d60016101000a81548160ff021916908315150217905550600073ffffffffffffffffffffffffffffffffffffffff16600a60009054906101000a900473ffffffffffffffffffffffffffffffffffffffff1673ffffffffffffffffffffffffffffffffffffffff1614610eca57600a60009054906101000a900473ffffffffffffffffffffffffffffffffffffffff1673ffffffffffffffffffffffffffffffffffffffff166108fc610e9d600154610e8f60095460085461171c90919063ffffffff16565b61169490919063ffffffff16565b9081150290604051600060405180830381858888f19350505050158015610ec8573d6000803e3d6000fd5b505b600073ffffffffffffffffffffffffffffffffffffffff16600b60009054906101000a900473ffffffffffffffffffffffffffffffffffffffff1673ffffffffffffffffffffffffffffffffffffffff1614610fa057600b60009054906101000a900473ffffffffffffffffffffffffffffffffffffffff1673ffffffffffffffffffffffffffffffffffffffff166108fc610f7360015460095461169490919063ffffffff16565b9081150290604051600060405180830381858888f19350505050158015610f9e573d6000803e3d6000fd5b505b60003073ffffffffffffffffffffffffffffffffffffffff16311461104057600360009054906101000a900473ffffffffffffffffffffffffffffffffffffffff1673ffffffffffffffffffffffffffffffffffffffff166108fc3073ffffffffffffffffffffffffffffffffffffffff16319081150290604051600060405180830381858888f1935050505015801561103e573d6000803e3d6000fd5b505b565b60011515600d60009054906101000a900460ff161515146110cb576040517f08c379a00000000000000000000000000000000000000000000000000000000081526004018080602001828103825260118152602001807f41737461206e6f6e20696e697a6961746100000000000000000000000000000081525060200191505060405180910390fd5b6110e260055460045461169490919063ffffffff16565b4311611156576040517f08c379a00000000000000000000000000000000000000000000000000000000081526004018080602001828103825260178152602001807f426964205068617365206e6f6e207465726d696e61746100000000000000000081525060200191505060405180910390fd5b61118160065461117360055460045461169490919063ffffffff16565b61169490919063ffffffff16565b4311156111f6576040517f08c379a000000000000000000000000000000000000000000000000000000000815260040180806020018281038252601a8152602001807f5769746864726177616c205068617365207465726d696e61746100000000000081525060200191505060405180910390fd5b600c60003373ffffffffffffffffffffffffffffffffffffffff1673ffffffffffffffffffffffffffffffffffffffff1681526020019081526020016000205481146112aa576040517f08c379a00000000000000000000000000000000000000000000000000000000081526004018080602001828103825260118152602001807f4e6f6e2070756f6920726974697261726500000000000000000000000000000081525060200191505060405180910390fd5b600c60003373ffffffffffffffffffffffffffffffffffffffff1673ffffffffffffffffffffffffffffffffffffffff168152602001908152602001600020600090553373ffffffffffffffffffffffffffffffffffffffff166108fc6002549081150290604051600060405180830381858888f19350505050158015611335573d6000803e3d6000fd5b5050565b60015481565b60095481565b60011515600d60009054906101000a900460ff161515146113ce576040517f08c379a00000000000000000000000000000000000000000000000000000000081526004018080602001828103825260118152602001807f41737461206e6f6e20696e697a6961746100000000000000000000000000000081525060200191505060405180910390fd5b6113e560055460045461169490919063ffffffff16565b43111561145a576040517f08c379a000000000000000000000000000000000000000000000000000000000815260040180806020018281038252600f8152602001807f42696420506861736520656e646564000000000000000000000000000000000081525060200191505060405180910390fd5b600154803373ffffffffffffffffffffffffffffffffffffffff163110156114ea576040517f08c379a00000000000000000000000000000000000000000000000000000000081526004018080602001828103825260178152602001807f42616c616e6365206e6f6e2073756666696369656e746500000000000000000081525060200191505060405180910390fd5b6001543414611561576040517f08c379a00000000000000000000000000000000000000000000000000000000081526004018080602001828103825260118152602001807f6269644465706f7369742065727261746f00000000000000000000000000000081525060200191505060405180910390fd5b6000801b600c60003373ffffffffffffffffffffffffffffffffffffffff1673ffffffffffffffffffffffffffffffffffffffff1681526020019081526020016000205414156115f45781600c60003373ffffffffffffffffffffffffffffffffffffffff1673ffffffffffffffffffffffffffffffffffffffff16815260200190815260200160002081905550611680565b81600c60003373ffffffffffffffffffffffffffffffffffffffff1673ffffffffffffffffffffffffffffffffffffffff168152602001908152602001600020819055503373ffffffffffffffffffffffffffffffffffffffff166108fc349081150290604051600060405180830381858888f1935050505015801561167e573d6000803e3d6000fd5b505b5050565b6000600154905090565b60085481565b600080828401905083811015611712576040517f08c379a000000000000000000000000000000000000000000000000000000000815260040180806020018281038252601b8152602001807f536166654d6174683a206164646974696f6e206f766572666c6f77000000000081525060200191505060405180910390fd5b8091505092915050565b600082821115611794576040517f08c379a000000000000000000000000000000000000000000000000000000000815260040180806020018281038252601e8152602001807f536166654d6174683a207375627472616374696f6e206f766572666c6f77000081525060200191505060405180910390fd5b600082840390508091505092915050565b600080821161181c576040517f08c379a000000000000000000000000000000000000000000000000000000000815260040180806020018281038252601a8152602001807f536166654d6174683a206469766973696f6e206279207a65726f00000000000081525060200191505060405180910390fd5b600082848161182757fe5b049050809150509291505056fea165627a7a72305820c6398012123717bef090ee5b9bd8a69cdf74deff13fcda4f1d6a24e4d3390d2c0029",
  "source": "pragma solidity ^0.5.1;\nimport \"node_modules/openzeppelin-solidity/contracts/math/SafeMath.sol\";\n\n\ncontract Vickrey {\n    using SafeMath for uint;\n    \n    // Prezzo minimo dell'asta\n    uint reservePrice;\n    // Deposito minimo\n    uint public bidDeposit;\n    // Prezzo che viene restituito in caso di ritiro\n    uint refundPrice;\n    // Creatore dell'asta\n    address payable auctioneer;\n    \n    // blocco in cui inizia l'asta e durata della bid Phase\n    uint bidTimeStart;\n    uint bidTime;\n\n    // tempo (in blocchi) della withdrawal phase\n    uint withdrawalTime;\n    \n    // tempo (in blocchi) della fase di apertura delle offerte\n    uint bidOpeningTime;\n    \n    // variabili usate per memorizzare l'offerta più alta e chi l'ha presentata\n    // stesso discorso con la seconda offerta più alta.\n    uint public highestBid;\n    uint public secondHighestBid;\n    address payable highestBidder;\n    address payable secondhighestBidder;\n    \n    // Memorizzo la coppia (indirizzo, hash offerta)\n    mapping (address => bytes32) bids;\n    \n    // Un booleano per capire se l'asta è iniziata e uno per capire se è finita\n    bool started = false;\n    bool ended = false;\n    \n    // Nome del prodotto che viene messo in vendita e URL di una foto\n    string title;\n    string URL;\n    \n    /*\n        Parametri:\n        - _title = nome del prodotto che viene messo in vendita con l'asta\n        - _URL = url di una foto del prodotto\n        - _reservePrice = prezzo minimo che deve essere pagato\n        - _bidTime = tempo (misurato in numero di blocchi) della fase in cui è possibile\n        fare le offerte\n        - _withdrawalTime = tempo (misurato in numero di blocchi) della fase in cui è possibile\n        ritirare le offerte\n        - _bidOpeningTime = tempo (misurato in numero di blocchi) della fase in cui è possibile\n        aprire le \"buste\" con le offerte\n        - _bidDeposit = deposito che deve essere lasciato da chi fa un'offerta\n    */\n    constructor(string memory _title, string memory _URL, uint _reservePrice, uint _bidTime, uint _withdrawalTime, uint _bidOpeningTime, uint _bidDeposit) public payable{\n        require(_reservePrice > 0, \"reserve > 0\");\n        reservePrice = _reservePrice;\n        auctioneer = msg.sender;\n        bidTime = _bidTime;\n        withdrawalTime = _withdrawalTime;\n        bidOpeningTime = _bidOpeningTime;\n        bidDeposit = _bidDeposit;\n        // a refundPrice assegno la metà del _bidDeposit perchè quando ritiro l'offferta\n        // dobbiamo restituire la metà di quanto è stato lasciato come deposito. \n        refundPrice = _bidDeposit.div(2);\n        secondHighestBid = reservePrice;\n        title = _title;\n        URL = _URL;\n    }\n    \n    // Controlla che l'asta sia stata avviata e che la fase di invio delle offerte non \n    // sia ancora completata\n    modifier only_when_BidPhase(){\n        require(started == true, \"Asta non iniziata\");\n        require(block.number <= bidTimeStart.add(bidTime), \"Bid Phase ended\"); _;\n    }\n    \n    // Controlla che la fase di invio delle offerte sia terminata, che siamo nella fase Withdrawal\n    // e che l'asta è stata avviata\n    modifier only_when_WithdrawalPhase(){\n        require(started == true, \"Asta non iniziata\");\n        require(block.number > bidTimeStart.add(bidTime), \"Bid Phase non terminata\");\n        require(block.number <= (bidTimeStart.add(bidTime)).add(withdrawalTime), \"Withdrawal Phase terminata\"); _;\n    }\n    \n    // Controlla che l'asta sia iniziata, che la fase di ritiro delle offerte non sia terminata\n    // e che la fase di apertura delle buste sia iniziata\n    modifier only_when_openBid(){\n        require(started == true, \"Asta non iniziata\");\n        require(block.number > (bidTimeStart.add(bidTime)).add(withdrawalTime), \"Withdrawal Phase non terminata\");\n        require(block.number <= ((bidTimeStart.add(bidTime)).add(withdrawalTime)).add(bidOpeningTime), \"Open Bid Phase terminata\"); _;\n    }\n    \n     // Controlla che l'asta sia stata avviata\n    modifier only_when_auctionStarted(){\n        require(started == true, \"asta non iniziata\"); _;\n    }\n    \n    // Controlla che la funzione sia stata chiamata dal creatore dell'asta\n    modifier only_auctioneer(){\n        require(msg.sender == auctioneer, \"non sei l'auctioneer\"); _;\n    }\n    \n    // Controlla che l'asta sia iniziata, che non sia terminata e che la fase di apertura delle buste sia iniziata\n    modifier only_when_openBidPhaseEnded(){\n        require(started == true, \"Asta non iniziata\");\n        require(ended == false, \"Asta terminata\");\n        require(block.number > ((bidTimeStart.add(bidTime)).add(withdrawalTime)).add(bidOpeningTime), \"Open Bid Phase non terminata\"); _;\n    }\n    \n    // Controlla che chi fa l'offerta abbia a disposizione un balance maggiore di \n    // quanto offre\n    modifier balanceAvailable(uint price){\n        require(msg.sender.balance >= price, \"Balance non sufficiente\"); _;\n    }\n    \n    // Eventi che vengono emessi nelle funzioni, uno lo uso per segnalare che l'offerta massima \n    // è stata aumentata e una per segnalare che l'asta è terminata\n    event HighestBidIncreased(address bidder, address secondBidder);\n    event AuctionEnded(address winner, uint amount);\n    \n    /*\n        Inizio dell'asta, solamente il creatore dell'asta può avviarla\n    */\n    function openAuction() public only_auctioneer(){\n        require(started == false);\n        started = true;\n        bidTimeStart = block.number;\n    }\n    \n    /*\n        Aggiunta di una nuova offerta, possiamo aggiungere l'offerta solamente dopo\n        che l'asta è stata avviata e solamente prima che inizi la fase di ritiro delle offerte.\n        Prima di far aggiungere una nuova offerta devo anche contorllare che il deposito\n        che viene inviato sia corretto.\n        Un utente può fare più di una offerta (modificando la precedente) lasciando solamente\n        una volta il deposito.\n        \n        Parametri:\n        - Hash dell'offerta che vogliamo inviare (Nonce + valore denaro da inviare)\n    */\n    function addBid(bytes32 bid) public payable only_when_BidPhase() balanceAvailable(bidDeposit){\n        require(msg.value == bidDeposit, \"bidDeposit errato\");\n        \n        // Se ho già fatto un'offerta restituisco il value inviato con questa transazione\n        if(bids[msg.sender] == 0){\n            bids[msg.sender] = bid;\n        }\n        else{\n            bids[msg.sender] = bid;\n            msg.sender.transfer(msg.value);\n        }\n    }\n    \n    \n    /*\n        Ritiro dell'offerta, viene restituito metà del bidDeposit.\n        Questa funzione la posso chiamare solamente prima che finisca la fase di withdrawal e dopo\n        che è finita quella di invio delle offerte. Inoltre si controlla che l'utente che\n        chiede il rimborso abbia effettivamente inviato un'offerta.\n        \n        Parametri:\n        - Hash dell'offerta che è stata precedentemente inviata\n    */\n    function withdrawal(bytes32 bid) public only_when_WithdrawalPhase(){\n        require(bid == bids[msg.sender], \"Non puoi ritirare\");\n        \n        delete bids[msg.sender];\n        msg.sender.transfer(refundPrice);\n    }\n    \n    \n    /*\n        Apertura delle buste con le offerte. Questa funzione la posso chiamare\n        solamente dopo che sono finite le precedenti due fasi e prima che termini questa.\n        Devo controllare che l'hash che ho inviato quando ho fatto l'offerta sia lo stesso che \n        calcolo qua usando il nonce e il valore che invio.\n        Devo controllare anche che la mia offerta sia maggiore del reservePrice.\n        Se ho fatto un'offerta minore del reservePrice perdo anche il deposito.\n        Parametri:\n        - Nonce usato quando abbiamo calcolato l'hash \n    */\n    function openBid(uint _nonce) public payable only_when_openBid()  balanceAvailable(msg.value){\n        require(keccak256(abi.encode(_nonce, msg.value)) == bids[msg.sender], \"Impossibile aprire\");\n        \n        // Indirizzo a cui va inviato il rimborso\n        address payable toRefund;\n        // rimborso da inviare\n        uint val;\n        \n        \n        // Caso in cui supero l'highest Bid, devo vedere anche se è la prima offerta\n        // che lo supera o no, altrimenti rischio di azzerare il secondhighestBidder\n        if(msg.value > highestBid) {\n            // se è la prima offerta che supera l'highest Bidder non devo \n            // rimborsare nessuno perchè il secondhighestBidder è il valore del \n            // reservePrice. Faccio questo controllo per evitare che Highest = X \n            // e secondHighest = 0\n            if(highestBid == 0){\n                highestBid = msg.value;\n                highestBidder = msg.sender;\n            }\n            // se invece sono offerte successive allora devo fare un rimborso \n            else{\n                toRefund = secondhighestBidder;\n                val = secondHighestBid.add(bidDeposit);\n                secondhighestBidder = highestBidder;\n                secondHighestBid = highestBid;\n                highestBid = msg.value;\n                highestBidder = msg.sender;\n            }\n            \n            emit HighestBidIncreased(msg.sender, secondhighestBidder);\n        }\n        // Caso in cui faccio un'offerta che supera solamente la seconda, in questo caso \n        // il precedente bidder viene rimborsato dell'offerta e del deposito.\n        else if(msg.value > secondHighestBid){\n            toRefund = secondhighestBidder;\n            val = secondHighestBid.add(bidDeposit);\n            secondhighestBidder = msg.sender;\n            secondHighestBid = msg.value;\n        }\n        /* \n            La mia offerta non supera la prima o la seconda quindi dovrò essere\n            rimborsato sia dell'offerta che del deposito. Qua ci finisco anche se l'offerta\n            non supera il reservePrice perchè inizialmente il reservePrice è fissato come \n            seconda offerta più alta, quindi se non supero la seconda non supero nemmeno il reservePrice,\n            questo serve quando ad esempio abbiamo tutte le offerte sotto al reservePrice e non vogliamo\n            che la vendita avvenga comunque\n        */\n        else{\n            toRefund = msg.sender;\n            val = msg.value.add(bidDeposit);\n        }\n        \n        // Eseguo il rimborso \n        if(toRefund != address(0)){\n            toRefund.transfer(val);\n        }\n        \n    }\n    \n\n   \n    /*\n        Funzione che chiude l'asta, viene chiamata solamente da chi ha creato \n        l'asta o da chi ha vinto, solamente quando le fasi precedenti sono terminate. Serve per segnare l'asta come chiusa e anche per\n        fare il rimborso a chi ha vinto.\n    */  \n    function finalize() public payable only_when_openBidPhaseEnded() {\n        require(msg.sender == highestBidder || msg.sender == auctioneer, \"Non hai i permessi\");\n        \n        emit AuctionEnded(highestBidder, secondHighestBid);\n        ended = true;\n        \n        // Controlliamo che sia stata eseguita un'offerta valida.\n        if(highestBidder != address(0)){\n            highestBidder.transfer((highestBid.sub(secondHighestBid)).add(bidDeposit));\n        }\n        \n        // Restituisco quanto offerto più il bidDeposit al secondo classificato\n        if(secondhighestBidder != address(0)){\n            secondhighestBidder.transfer(secondHighestBid.add(bidDeposit));\n        }\n    \n       \n        // trasferisco il balance del contratto al creatore dell'asta \n        if(address(this).balance != 0){\n            auctioneer.transfer(address(this).balance);\n        }\n    }\n    \n    \n    /*\n        Funzione che restituisce l'address che ha fatto l'offerta più alta\n    */\n    function getHighestBidder() public view returns(address){\n        return highestBidder;\n    }\n    \n    /*\n        Funzione che restituisce l'offerta più alta\n    */\n    function getHighestBid() public view returns(uint){\n        return highestBid;\n    }\n    \n    /*\n        Funzione che restituisce il bidDeposit\n    */\n    function getDeposit() public view returns(uint){\n        return bidDeposit;\n    }\n \n}",
  "sourcePath": "/Users/lucacorbucci/Documents/GitHub/SmartAuctions/Frontend/contracts/Vickrey.sol",
  "compiler": {
    "name": "solc",
    "version": "0.5.8+commit.23d335f2.Emscripten.clang"
  },
  "schemaVersion": "3.0.11",
  "updatedAt": "2019-06-19T23:25:56.898Z",
  "devdoc": {
    "methods": {}
  },
  "userdoc": {
    "methods": {}
  }
}