{
  "contractName": "Vickrey",
  "abi": [
    {
      "constant": true,
      "inputs": [],
      "name": "bidDeposit",
      "outputs": [
        {
          "name": "",
          "type": "uint256"
        }
      ],
      "payable": false,
      "stateMutability": "view",
      "type": "function"
    },
    {
      "constant": true,
      "inputs": [],
      "name": "secondHighestBid",
      "outputs": [
        {
          "name": "",
          "type": "uint256"
        }
      ],
      "payable": false,
      "stateMutability": "view",
      "type": "function"
    },
    {
      "constant": true,
      "inputs": [],
      "name": "highestBid",
      "outputs": [
        {
          "name": "",
          "type": "uint256"
        }
      ],
      "payable": false,
      "stateMutability": "view",
      "type": "function"
    },
    {
      "inputs": [
        {
          "name": "_title",
          "type": "string"
        },
        {
          "name": "_URL",
          "type": "string"
        },
        {
          "name": "_reservePrice",
          "type": "uint256"
        },
        {
          "name": "_bidTime",
          "type": "uint256"
        },
        {
          "name": "_withdrawalTime",
          "type": "uint256"
        },
        {
          "name": "_bidOpeningTime",
          "type": "uint256"
        },
        {
          "name": "_bidDeposit",
          "type": "uint256"
        },
        {
          "name": "_numBlockStart",
          "type": "uint256"
        }
      ],
      "payable": true,
      "stateMutability": "payable",
      "type": "constructor"
    },
    {
      "anonymous": false,
      "inputs": [
        {
          "indexed": false,
          "name": "bidder",
          "type": "address"
        },
        {
          "indexed": false,
          "name": "secondBidder",
          "type": "address"
        }
      ],
      "name": "HighestBidIncreased",
      "type": "event"
    },
    {
      "anonymous": false,
      "inputs": [
        {
          "indexed": false,
          "name": "winner",
          "type": "address"
        },
        {
          "indexed": false,
          "name": "amount",
          "type": "uint256"
        }
      ],
      "name": "AuctionEnded",
      "type": "event"
    },
    {
      "anonymous": false,
      "inputs": [
        {
          "indexed": false,
          "name": "",
          "type": "string"
        },
        {
          "indexed": false,
          "name": "",
          "type": "bytes32"
        }
      ],
      "name": "LogBytes32",
      "type": "event"
    },
    {
      "anonymous": false,
      "inputs": [
        {
          "indexed": false,
          "name": "",
          "type": "string"
        },
        {
          "indexed": false,
          "name": "",
          "type": "uint256"
        }
      ],
      "name": "LogUint",
      "type": "event"
    },
    {
      "constant": false,
      "inputs": [
        {
          "name": "sender",
          "type": "address"
        },
        {
          "name": "contractAddress",
          "type": "address"
        }
      ],
      "name": "addToStorage",
      "outputs": [
        {
          "name": "success",
          "type": "bool"
        }
      ],
      "payable": false,
      "stateMutability": "nonpayable",
      "type": "function"
    },
    {
      "constant": false,
      "inputs": [],
      "name": "removeFromStorage",
      "outputs": [
        {
          "name": "success",
          "type": "bool"
        }
      ],
      "payable": false,
      "stateMutability": "nonpayable",
      "type": "function"
    },
    {
      "constant": false,
      "inputs": [
        {
          "name": "bid",
          "type": "bytes32"
        }
      ],
      "name": "addBid",
      "outputs": [],
      "payable": true,
      "stateMutability": "payable",
      "type": "function"
    },
    {
      "constant": false,
      "inputs": [
        {
          "name": "bid",
          "type": "bytes32"
        }
      ],
      "name": "withdrawal",
      "outputs": [],
      "payable": false,
      "stateMutability": "nonpayable",
      "type": "function"
    },
    {
      "constant": false,
      "inputs": [
        {
          "name": "_nonce",
          "type": "uint256"
        }
      ],
      "name": "openBid",
      "outputs": [],
      "payable": true,
      "stateMutability": "payable",
      "type": "function"
    },
    {
      "constant": false,
      "inputs": [],
      "name": "finalize",
      "outputs": [],
      "payable": true,
      "stateMutability": "payable",
      "type": "function"
    },
    {
      "constant": true,
      "inputs": [],
      "name": "getHighestBidder",
      "outputs": [
        {
          "name": "",
          "type": "address"
        }
      ],
      "payable": false,
      "stateMutability": "view",
      "type": "function"
    },
    {
      "constant": true,
      "inputs": [],
      "name": "getHighestBid",
      "outputs": [
        {
          "name": "",
          "type": "uint256"
        }
      ],
      "payable": false,
      "stateMutability": "view",
      "type": "function"
    },
    {
      "constant": true,
      "inputs": [],
      "name": "getDeposit",
      "outputs": [
        {
          "name": "",
          "type": "uint256"
        }
      ],
      "payable": false,
      "stateMutability": "view",
      "type": "function"
    },
    {
      "constant": true,
      "inputs": [],
      "name": "getAllData",
      "outputs": [
        {
          "name": "",
          "type": "uint256"
        },
        {
          "name": "",
          "type": "uint256"
        },
        {
          "name": "",
          "type": "uint256"
        },
        {
          "name": "",
          "type": "uint256"
        },
        {
          "name": "",
          "type": "uint256"
        },
        {
          "name": "",
          "type": "uint256"
        },
        {
          "name": "",
          "type": "uint256"
        },
        {
          "name": "",
          "type": "uint256"
        },
        {
          "name": "",
          "type": "uint256"
        },
        {
          "name": "",
          "type": "uint256"
        },
        {
          "name": "",
          "type": "bool"
        },
        {
          "name": "",
          "type": "bool"
        },
        {
          "name": "",
          "type": "address"
        }
      ],
      "payable": false,
      "stateMutability": "view",
      "type": "function"
    }
  ],
  "bytecode": "0x60806040526000600d60006101000a81548160ff0219169083151502179055506000600d60016101000a81548160ff021916908315150217905550604051620022363803806200223683398101806040526101008110156200006057600080fd5b8101908080516401000000008111156200007957600080fd5b828101905060208101848111156200009057600080fd5b8151856001820283011164010000000082111715620000ae57600080fd5b50509291906020018051640100000000811115620000cb57600080fd5b82810190506020810184811115620000e257600080fd5b81518560018202830111640100000000821117156200010057600080fd5b505092919060200180519060200190929190805190602001909291908051906020019092919080519060200190929190805190602001909291908051906020019092919050505060008611620001be576040517f08c379a000000000000000000000000000000000000000000000000000000000815260040180806020018281038252600b8152602001807f72657365727665203e203000000000000000000000000000000000000000000081525060200191505060405180910390fd5b8560008190555033600360006101000a81548173ffffffffffffffffffffffffffffffffffffffff021916908373ffffffffffffffffffffffffffffffffffffffff160217905550846005819055508360068190555082600781905550816001819055506200023d6002836200032260201b62001a671790919060201c565b60028190555060005460098190555087600e90805190602001906200026492919062000655565b5086600f90805190602001906200027d92919062000655565b508060118190555043601081905550620002aa601154601054620003b360201b620019561790919060201c565b601281905550620002ce600554601254620003b360201b620019561790919060201c565b601381905550620002f2600654601354620003b360201b620019561790919060201c565b6014819055506200030a33306200043c60201b60201c565b6200031457600080fd5b505050505050505062000704565b60008082116200039a576040517f08c379a000000000000000000000000000000000000000000000000000000000815260040180806020018281038252601a8152602001807f536166654d6174683a206469766973696f6e206279207a65726f00000000000081525060200191505060405180910390fd5b6000828481620003a657fe5b0490508091505092915050565b60008082840190508381101562000432576040517f08c379a000000000000000000000000000000000000000000000000000000000815260040180806020018281038252601b8152602001807f536166654d6174683a206164646974696f6e206f766572666c6f77000000000081525060200191505060405180910390fd5b8091505092915050565b60008073f95bb3e0f604a899679c322a32185cbd0a73c0ad90508073ffffffffffffffffffffffffffffffffffffffff1663b906c6b58585600f600e60016040518663ffffffff1660e01b8152600401808673ffffffffffffffffffffffffffffffffffffffff1673ffffffffffffffffffffffffffffffffffffffff1681526020018573ffffffffffffffffffffffffffffffffffffffff1673ffffffffffffffffffffffffffffffffffffffff1681526020018060200180602001848152602001838103835286818154600181600116156101000203166002900481526020019150805460018160011615610100020316600290048015620005845780601f10620005585761010080835404028352916020019162000584565b820191906000526020600020905b8154815290600101906020018083116200056657829003601f168201915b50508381038252858181546001816001161561010002031660029004815260200191508054600181600116156101000203166002900480156200060b5780601f10620005df576101008083540402835291602001916200060b565b820191906000526020600020905b815481529060010190602001808311620005ed57829003601f168201915b5050975050505050505050600060405180830381600087803b1580156200063157600080fd5b505af115801562000646573d6000803e3d6000fd5b50505050600191505092915050565b828054600181600116156101000203166002900490600052602060002090601f016020900481019282601f106200069857805160ff1916838001178555620006c9565b82800160010185558215620006c9579182015b82811115620006c8578251825591602001919060010190620006ab565b5b509050620006d89190620006dc565b5090565b6200070191905b80821115620006fd576000816000905550600101620006e3565b5090565b90565b611b2280620007146000396000f3fe6080604052600436106100c15760003560e01c80638025856f1161007f578063b354d04511610059578063b354d045146102f3578063c399ec8814610321578063d57bde791461034c578063ff29059914610377576100c1565b80638025856f1461026e578063a6596a081461029d578063acb902f6146102c8576100c1565b80623495a4146100c657806323b6b7c41461011d5780632d10fa281461014b5780634979440a146101fe5780634bb278f3146102295780634d8b0ea414610233575b600080fd5b3480156100d257600080fd5b506100db610400565b604051808273ffffffffffffffffffffffffffffffffffffffff1673ffffffffffffffffffffffffffffffffffffffff16815260200191505060405180910390f35b6101496004803603602081101561013357600080fd5b810190808035906020019092919050505061042a565b005b34801561015757600080fd5b50610160610b30565b604051808e81526020018d81526020018c81526020018b81526020018a815260200189815260200188815260200187815260200186815260200185815260200184151515158152602001831515151581526020018273ffffffffffffffffffffffffffffffffffffffff1673ffffffffffffffffffffffffffffffffffffffff1681526020019d505050505050505050505050505060405180910390f35b34801561020a57600080fd5b50610213610bd1565b6040518082815260200191505060405180910390f35b610231610bdb565b005b34801561023f57600080fd5b5061026c6004803603602081101561025657600080fd5b8101908080359060200190929190505050611127565b005b34801561027a57600080fd5b50610283611359565b604051808215151515815260200191505060405180910390f35b3480156102a957600080fd5b506102b2611412565b6040518082815260200191505060405180910390f35b3480156102d457600080fd5b506102dd611418565b6040518082815260200191505060405180910390f35b61031f6004803603602081101561030957600080fd5b810190808035906020019092919050505061141e565b005b34801561032d57600080fd5b50610336611737565b6040518082815260200191505060405180910390f35b34801561035857600080fd5b50610361611741565b6040518082815260200191505060405180910390f35b34801561038357600080fd5b506103e66004803603604081101561039a57600080fd5b81019080803573ffffffffffffffffffffffffffffffffffffffff169060200190929190803573ffffffffffffffffffffffffffffffffffffffff169060200190929190505050611747565b604051808215151515815260200191505060405180910390f35b6000600a60009054906101000a900473ffffffffffffffffffffffffffffffffffffffff16905090565b60145443116104a1576040517f08c379a000000000000000000000000000000000000000000000000000000000815260040180806020018281038252601e8152602001807f5769746864726177616c205068617365206e6f6e207465726d696e617461000081525060200191505060405180910390fd5b6104b860075460145461195690919063ffffffff16565b43111561052d576040517f08c379a00000000000000000000000000000000000000000000000000000000081526004018080602001828103825260188152602001807f4f70656e20426964205068617365207465726d696e617461000000000000000081525060200191505060405180910390fd5b34803373ffffffffffffffffffffffffffffffffffffffff163110156105bb576040517f08c379a00000000000000000000000000000000000000000000000000000000081526004018080602001828103825260178152602001807f42616c616e6365206e6f6e2073756666696369656e746500000000000000000081525060200191505060405180910390fd5b7f6369616f000000000000000000000000000000000000000000000000000000008214610650576040517f08c379a00000000000000000000000000000000000000000000000000000000081526004018080602001828103825260058152602001807f6e6f6e636500000000000000000000000000000000000000000000000000000081525060200191505060405180910390fd5b7388a5719d805aefb4379ffcb736f2608d37ce531273ffffffffffffffffffffffffffffffffffffffff163373ffffffffffffffffffffffffffffffffffffffff1614610705576040517f08c379a00000000000000000000000000000000000000000000000000000000081526004018080602001828103825260078152602001807f616464726573730000000000000000000000000000000000000000000000000081525060200191505060405180910390fd5b600c60003373ffffffffffffffffffffffffffffffffffffffff1673ffffffffffffffffffffffffffffffffffffffff168152602001908152602001600020548234604051602001808381526020018281526020019250505060405160208183030381529060405280519060200120146107e7576040517f08c379a00000000000000000000000000000000000000000000000000000000081526004018080602001828103825260128152602001807f496d706f73736962696c6520617072697265000000000000000000000000000081525060200191505060405180910390fd5b6000806008543411156109fd576000600854141561084c573460088190555033600a60006101000a81548173ffffffffffffffffffffffffffffffffffffffff021916908373ffffffffffffffffffffffffffffffffffffffff16021790555061093f565b600b60009054906101000a900473ffffffffffffffffffffffffffffffffffffffff16915061088860015460095461195690919063ffffffff16565b9050600a60009054906101000a900473ffffffffffffffffffffffffffffffffffffffff16600b60006101000a81548173ffffffffffffffffffffffffffffffffffffffff021916908373ffffffffffffffffffffffffffffffffffffffff1602179055506008546009819055503460088190555033600a60006101000a81548173ffffffffffffffffffffffffffffffffffffffff021916908373ffffffffffffffffffffffffffffffffffffffff1602179055505b7fd206cf269674fbc0d2a31ca1f49f3b19ecf78d09f660e746a83ecf8b2a96767033600b60009054906101000a900473ffffffffffffffffffffffffffffffffffffffff16604051808373ffffffffffffffffffffffffffffffffffffffff1673ffffffffffffffffffffffffffffffffffffffff1681526020018273ffffffffffffffffffffffffffffffffffffffff1673ffffffffffffffffffffffffffffffffffffffff1681526020019250505060405180910390a1610aae565b600954341115610a9257600b60009054906101000a900473ffffffffffffffffffffffffffffffffffffffff169150610a4360015460095461195690919063ffffffff16565b905033600b60006101000a81548173ffffffffffffffffffffffffffffffffffffffff021916908373ffffffffffffffffffffffffffffffffffffffff16021790555034600981905550610aad565b339150610aaa6001543461195690919063ffffffff16565b90505b5b600073ffffffffffffffffffffffffffffffffffffffff168273ffffffffffffffffffffffffffffffffffffffff1614610b2a578173ffffffffffffffffffffffffffffffffffffffff166108fc829081150290604051600060405180830381858888f19350505050158015610b28573d6000803e3d6000fd5b505b50505050565b6000806000806000806000806000806000806000600854600954601254601354601454600554600654600754600154600054600d60019054906101000a900460ff16600d60009054906101000a900460ff16600a60009054906101000a900473ffffffffffffffffffffffffffffffffffffffff168090509c509c509c509c509c509c509c509c509c509c509c509c509c50909192939495969798999a9b9c565b6000600854905090565b60001515600d60019054906101000a900460ff16151514610c64576040517f08c379a000000000000000000000000000000000000000000000000000000000815260040180806020018281038252600e8152602001807f41737461207465726d696e61746100000000000000000000000000000000000081525060200191505060405180910390fd5b610c7b60075460145461195690919063ffffffff16565b4311610cef576040517f08c379a000000000000000000000000000000000000000000000000000000000815260040180806020018281038252601c8152602001807f4f70656e20426964205068617365206e6f6e207465726d696e6174610000000081525060200191505060405180910390fd5b600a60009054906101000a900473ffffffffffffffffffffffffffffffffffffffff1673ffffffffffffffffffffffffffffffffffffffff163373ffffffffffffffffffffffffffffffffffffffff161480610d985750600360009054906101000a900473ffffffffffffffffffffffffffffffffffffffff1673ffffffffffffffffffffffffffffffffffffffff163373ffffffffffffffffffffffffffffffffffffffff16145b610e0a576040517f08c379a00000000000000000000000000000000000000000000000000000000081526004018080602001828103825260128152602001807f4e6f6e206861692069207065726d65737369000000000000000000000000000081525060200191505060405180910390fd5b7fdaec4582d5d9595688c8c98545fdd1c696d41c6aeaeb636737e84ed2f5c00eda600a60009054906101000a900473ffffffffffffffffffffffffffffffffffffffff16600954604051808373ffffffffffffffffffffffffffffffffffffffff1673ffffffffffffffffffffffffffffffffffffffff1681526020018281526020019250505060405180910390a16001600d60016101000a81548160ff021916908315150217905550610ebc611359565b610ec557600080fd5b600073ffffffffffffffffffffffffffffffffffffffff16600a60009054906101000a900473ffffffffffffffffffffffffffffffffffffffff1673ffffffffffffffffffffffffffffffffffffffff1614610faf57600a60009054906101000a900473ffffffffffffffffffffffffffffffffffffffff1673ffffffffffffffffffffffffffffffffffffffff166108fc610f82600154610f746009546008546119de90919063ffffffff16565b61195690919063ffffffff16565b9081150290604051600060405180830381858888f19350505050158015610fad573d6000803e3d6000fd5b505b600073ffffffffffffffffffffffffffffffffffffffff16600b60009054906101000a900473ffffffffffffffffffffffffffffffffffffffff1673ffffffffffffffffffffffffffffffffffffffff161461108557600b60009054906101000a900473ffffffffffffffffffffffffffffffffffffffff1673ffffffffffffffffffffffffffffffffffffffff166108fc61105860015460095461195690919063ffffffff16565b9081150290604051600060405180830381858888f19350505050158015611083573d6000803e3d6000fd5b505b60003073ffffffffffffffffffffffffffffffffffffffff16311461112557600360009054906101000a900473ffffffffffffffffffffffffffffffffffffffff1673ffffffffffffffffffffffffffffffffffffffff166108fc3073ffffffffffffffffffffffffffffffffffffffff16319081150290604051600060405180830381858888f19350505050158015611123573d6000803e3d6000fd5b505b565b601354431161119e576040517f08c379a00000000000000000000000000000000000000000000000000000000081526004018080602001828103825260178152602001807f426964205068617365206e6f6e207465726d696e61746100000000000000000081525060200191505060405180910390fd5b601454431115611216576040517f08c379a000000000000000000000000000000000000000000000000000000000815260040180806020018281038252601a8152602001807f5769746864726177616c205068617365207465726d696e61746100000000000081525060200191505060405180910390fd5b600c60003373ffffffffffffffffffffffffffffffffffffffff1673ffffffffffffffffffffffffffffffffffffffff1681526020019081526020016000205481146112ca576040517f08c379a00000000000000000000000000000000000000000000000000000000081526004018080602001828103825260118152602001807f4e6f6e2070756f6920726974697261726500000000000000000000000000000081525060200191505060405180910390fd5b600c60003373ffffffffffffffffffffffffffffffffffffffff1673ffffffffffffffffffffffffffffffffffffffff168152602001908152602001600020600090553373ffffffffffffffffffffffffffffffffffffffff166108fc6002549081150290604051600060405180830381858888f19350505050158015611355573d6000803e3d6000fd5b5050565b60008073f95bb3e0f604a899679c322a32185cbd0a73c0ad90508073ffffffffffffffffffffffffffffffffffffffff1663c375c2ef306040518263ffffffff1660e01b8152600401808273ffffffffffffffffffffffffffffffffffffffff1673ffffffffffffffffffffffffffffffffffffffff168152602001915050600060405180830381600087803b1580156113f257600080fd5b505af1158015611406573d6000803e3d6000fd5b50505050600191505090565b60015481565b60095481565b6012544311611495576040517f08c379a00000000000000000000000000000000000000000000000000000000081526004018080602001828103825260118152602001807f41737461206e6f6e20696e697a6961746100000000000000000000000000000081525060200191505060405180910390fd5b60135443111561150d576040517f08c379a000000000000000000000000000000000000000000000000000000000815260040180806020018281038252600f8152602001807f42696420506861736520656e646564000000000000000000000000000000000081525060200191505060405180910390fd5b600154803373ffffffffffffffffffffffffffffffffffffffff1631101561159d576040517f08c379a00000000000000000000000000000000000000000000000000000000081526004018080602001828103825260178152602001807f42616c616e6365206e6f6e2073756666696369656e746500000000000000000081525060200191505060405180910390fd5b6001543414611614576040517f08c379a00000000000000000000000000000000000000000000000000000000081526004018080602001828103825260118152602001807f6269644465706f7369742065727261746f00000000000000000000000000000081525060200191505060405180910390fd5b6000801b600c60003373ffffffffffffffffffffffffffffffffffffffff1673ffffffffffffffffffffffffffffffffffffffff1681526020019081526020016000205414156116a75781600c60003373ffffffffffffffffffffffffffffffffffffffff1673ffffffffffffffffffffffffffffffffffffffff16815260200190815260200160002081905550611733565b81600c60003373ffffffffffffffffffffffffffffffffffffffff1673ffffffffffffffffffffffffffffffffffffffff168152602001908152602001600020819055503373ffffffffffffffffffffffffffffffffffffffff166108fc349081150290604051600060405180830381858888f19350505050158015611731573d6000803e3d6000fd5b505b5050565b6000600154905090565b60085481565b60008073f95bb3e0f604a899679c322a32185cbd0a73c0ad90508073ffffffffffffffffffffffffffffffffffffffff1663b906c6b58585600f600e60016040518663ffffffff1660e01b8152600401808673ffffffffffffffffffffffffffffffffffffffff1673ffffffffffffffffffffffffffffffffffffffff1681526020018573ffffffffffffffffffffffffffffffffffffffff1673ffffffffffffffffffffffffffffffffffffffff168152602001806020018060200184815260200183810383528681815460018160011615610100020316600290048152602001915080546001816001161561010002031660029004801561188b5780601f106118605761010080835404028352916020019161188b565b820191906000526020600020905b81548152906001019060200180831161186e57829003601f168201915b505083810382528581815460018160011615610100020316600290048152602001915080546001816001161561010002031660029004801561190e5780601f106118e35761010080835404028352916020019161190e565b820191906000526020600020905b8154815290600101906020018083116118f157829003601f168201915b5050975050505050505050600060405180830381600087803b15801561193357600080fd5b505af1158015611947573d6000803e3d6000fd5b50505050600191505092915050565b6000808284019050838110156119d4576040517f08c379a000000000000000000000000000000000000000000000000000000000815260040180806020018281038252601b8152602001807f536166654d6174683a206164646974696f6e206f766572666c6f77000000000081525060200191505060405180910390fd5b8091505092915050565b600082821115611a56576040517f08c379a000000000000000000000000000000000000000000000000000000000815260040180806020018281038252601e8152602001807f536166654d6174683a207375627472616374696f6e206f766572666c6f77000081525060200191505060405180910390fd5b600082840390508091505092915050565b6000808211611ade576040517f08c379a000000000000000000000000000000000000000000000000000000000815260040180806020018281038252601a8152602001807f536166654d6174683a206469766973696f6e206279207a65726f00000000000081525060200191505060405180910390fd5b6000828481611ae957fe5b049050809150509291505056fea165627a7a72305820d32f0b94442a39bad01f5ec984a901d00c5667f79e234b1668106eaf9762b89a0029",
  "source": "pragma solidity ^0.5.1;\nimport \"node_modules/openzeppelin-solidity/contracts/math/SafeMath.sol\";\n\ncontract StorageInterface{\n    \n    function addContract(address creator, address contratto, string memory _url, string memory _titolo, uint tipo) public;\n    \n    function removeContract(address contr) public;\n    \n    function getAllContracts() public view returns(address[] memory, address[] memory);\n    \n}\n\ncontract Vickrey {\n    using SafeMath for uint;\n    \n    // Prezzo minimo dell'asta\n    uint reservePrice;\n    // Deposito minimo\n    uint public bidDeposit;\n    // Prezzo che viene restituito in caso di ritiro\n    uint refundPrice;\n    // Creatore dell'asta\n    address payable auctioneer;\n    \n    // blocco in cui inizia l'asta e durata della bid Phase\n    uint bidTimeStart;\n    uint bidTime;\n\n    // tempo (in blocchi) della withdrawal phase\n    uint withdrawalTime;\n    \n    // tempo (in blocchi) della fase di apertura delle offerte\n    uint bidOpeningTime;\n    \n    // variabili usate per memorizzare l'offerta pi alta e chi l'ha presentata\n    // stesso discorso con la seconda offerta pi alta.\n    uint public highestBid;\n    uint public secondHighestBid;\n    address payable highestBidder;\n    address payable secondhighestBidder;\n    \n    // Memorizzo la coppia (indirizzo, hash offerta)\n    mapping (address => bytes32) bids;\n    \n    // Un booleano per capire se l'asta  iniziata e uno per capire se  finita\n    bool started = false;\n    bool ended = false;\n    \n    // Nome del prodotto che viene messo in vendita e URL di una foto\n    string title;\n    string URL;\n    \n    // blocco in cui creo l'asta\n    uint auctionStart;\n    // numero di blocchi che devono passare prima di iniziare l'asta\n    uint numBlockStart;\n\n    uint bidPhaseStart;\n    uint withDrawalPhaseStart;\n    uint bidOpeningPhaseStart;\n    /*\n        Parametri:\n        - _title = nome del prodotto che viene messo in vendita con l'asta\n        - _URL = url di una foto del prodotto\n        - _reservePrice = prezzo minimo che deve essere pagato\n        - _bidTime = tempo (misurato in numero di blocchi) della fase in cui  possibile\n        fare le offerte\n        - _withdrawalTime = tempo (misurato in numero di blocchi) della fase in cui  possibile\n        ritirare le offerte\n        - _bidOpeningTime = tempo (misurato in numero di blocchi) della fase in cui  possibile\n        aprire le \"buste\" con le offerte\n        - _bidDeposit = deposito che deve essere lasciato da chi fa un'offerta\n    */\n    constructor(string memory _title, string memory _URL, uint _reservePrice, uint _bidTime, uint _withdrawalTime, uint _bidOpeningTime, uint _bidDeposit, uint _numBlockStart) public payable{\n        require(_reservePrice > 0, \"reserve > 0\");\n        reservePrice = _reservePrice;\n        auctioneer = msg.sender;\n        bidTime = _bidTime;\n        withdrawalTime = _withdrawalTime;\n        bidOpeningTime = _bidOpeningTime;\n        bidDeposit = _bidDeposit;\n        // a refundPrice assegno la met del _bidDeposit perch quando ritiro l'offferta\n        // dobbiamo restituire la met di quanto  stato lasciato come deposito. \n        refundPrice = _bidDeposit.div(2);\n        secondHighestBid = reservePrice;\n        title = _title;\n        URL = _URL;\n        numBlockStart = _numBlockStart;\n        auctionStart = block.number;\n        // memorizzo quando iniziano le varie fasi, la prima  la fase in cui posso inviare offerte\n        bidPhaseStart = auctionStart.add(numBlockStart);\n        // la seconda  la fase in cui ritiro\n        withDrawalPhaseStart = bidPhaseStart.add(bidTime);\n        // questa  la fase in cui apro le buste\n        bidOpeningPhaseStart = withDrawalPhaseStart.add(withdrawalTime);\n        require(addToStorage(msg.sender, address(this)));\n    }\n\n    \n    function addToStorage(address sender, address contractAddress) public returns(bool success){\n        StorageInterface s = StorageInterface(0xf95bB3E0F604a899679C322A32185Cbd0a73c0Ad);\n        s.addContract(sender, contractAddress, URL, title, 1);\n        return true;\n    }\n\n    function removeFromStorage() public returns(bool success){\n        StorageInterface s = StorageInterface(0xf95bB3E0F604a899679C322A32185Cbd0a73c0Ad);\n        s.removeContract(address(this));\n        return true;\n    }\n    \n    // Controlla che l'asta sia stata avviata e che la fase di invio delle offerte non \n    // sia ancora completata\n    modifier only_when_BidPhase(){\n        require(block.number > bidPhaseStart, \"Asta non iniziata\");\n        require(block.number <= withDrawalPhaseStart, \"Bid Phase ended\"); _;\n    }\n    \n    // Controlla che la fase di invio delle offerte sia terminata, che siamo nella fase Withdrawal\n    // e che l'asta  stata avviata\n    modifier only_when_WithdrawalPhase(){\n        require(block.number > withDrawalPhaseStart, \"Bid Phase non terminata\");\n        require(block.number <= bidOpeningPhaseStart, \"Withdrawal Phase terminata\"); _;\n    }\n    \n    // Controlla che l'asta sia iniziata, che la fase di ritiro delle offerte non sia terminata\n    // e che la fase di apertura delle buste sia iniziata\n    modifier only_when_openBid(){\n        require(block.number > bidOpeningPhaseStart, \"Withdrawal Phase non terminata\");\n        require(block.number <= bidOpeningPhaseStart.add(bidOpeningTime), \"Open Bid Phase terminata\"); _;\n    }\n    \n    \n    // Controlla che la funzione sia stata chiamata dal creatore dell'asta\n    modifier only_auctioneer(){\n        require(msg.sender == auctioneer, \"non sei l'auctioneer\"); _;\n    }\n    \n    // Controlla che l'asta sia iniziata, che non sia terminata e che la fase di apertura delle buste sia iniziata\n    modifier only_when_openBidPhaseEnded(){\n        require(ended == false, \"Asta terminata\");\n        require(block.number > bidOpeningPhaseStart.add(bidOpeningTime), \"Open Bid Phase non terminata\"); _;\n    }\n    \n    // Controlla che chi fa l'offerta abbia a disposizione un balance maggiore di \n    // quanto offre\n    modifier balanceAvailable(uint price){\n        require(msg.sender.balance >= price, \"Balance non sufficiente\"); _;\n    }\n    \n    // Eventi che vengono emessi nelle funzioni, uno lo uso per segnalare che l'offerta massima \n    //  stata aumentata e una per segnalare che l'asta  terminata\n    event HighestBidIncreased(address bidder, address secondBidder);\n    event AuctionEnded(address winner, uint amount);\n    \n    /*\n        Inizio dell'asta, solamente il creatore dell'asta pu avviarla\n    function openAuction() public only_auctioneer(){\n        require(started == false);\n        started = true;\n        bidTimeStart = block.number;\n    }\n    */\n    \n    /*\n        Aggiunta di una nuova offerta, possiamo aggiungere l'offerta solamente dopo\n        che l'asta  stata avviata e solamente prima che inizi la fase di ritiro delle offerte.\n        Prima di far aggiungere una nuova offerta devo anche contorllare che il deposito\n        che viene inviato sia corretto.\n        Un utente pu fare pi di una offerta (modificando la precedente) lasciando solamente\n        una volta il deposito.\n        \n        Parametri:\n        - Hash dell'offerta che vogliamo inviare (Nonce + valore denaro da inviare)\n    */\n    function addBid(bytes32 bid) public payable only_when_BidPhase() balanceAvailable(bidDeposit){\n        require(msg.value == bidDeposit, \"bidDeposit errato\");\n        \n        // Se ho gi fatto un'offerta restituisco il value inviato con questa transazione\n        if(bids[msg.sender] == 0){\n            bids[msg.sender] = bid;\n        }\n        else{\n            bids[msg.sender] = bid;\n            msg.sender.transfer(msg.value);\n        }\n    }\n    \n    \n    /*\n        Ritiro dell'offerta, viene restituito met del bidDeposit.\n        Questa funzione la posso chiamare solamente prima che finisca la fase di withdrawal e dopo\n        che  finita quella di invio delle offerte. Inoltre si controlla che l'utente che\n        chiede il rimborso abbia effettivamente inviato un'offerta.\n        \n        Parametri:\n        - Hash dell'offerta che  stata precedentemente inviata\n    */\n    function withdrawal(bytes32 bid) public only_when_WithdrawalPhase(){\n        require(bid == bids[msg.sender], \"Non puoi ritirare\");\n        \n        delete bids[msg.sender];\n        msg.sender.transfer(refundPrice);\n    }\n    \n    \n    /*\n        Apertura delle buste con le offerte. Questa funzione la posso chiamare\n        solamente dopo che sono finite le precedenti due fasi e prima che termini questa.\n        Devo controllare che l'hash che ho inviato quando ho fatto l'offerta sia lo stesso che \n        calcolo qua usando il nonce e il valore che invio.\n        Devo controllare anche che la mia offerta sia maggiore del reservePrice.\n        Se ho fatto un'offerta minore del reservePrice perdo anche il deposito.\n        Parametri:\n        - Nonce usato quando abbiamo calcolato l'hash \n    */\n    event LogBytes32(string, bytes32);\n \n    \n    event LogUint(string, uint);\n    \n    function openBid(uint _nonce) public payable only_when_openBid()  balanceAvailable(msg.value){\n        require(_nonce == uint(0x6369616f00000000000000000000000000000000000000000000000000000000), \"nonce\");\n        require(msg.sender == address(0x88a5719D805aEfB4379fFcB736f2608D37Ce5312), \"address\");\n        require(keccak256(abi.encode(_nonce, msg.value)) == bids[msg.sender], \"Impossibile aprire\");\n        \n        // Indirizzo a cui va inviato il rimborso\n        address payable toRefund;\n        // rimborso da inviare\n        uint val;\n        \n        \n        // Caso in cui supero l'highest Bid, devo vedere anche se  la prima offerta\n        // che lo supera o no, altrimenti rischio di azzerare il secondhighestBidder\n        if(msg.value > highestBid) {\n            // se  la prima offerta che supera l'highest Bidder non devo \n            // rimborsare nessuno perch il secondhighestBidder  il valore del \n            // reservePrice. Faccio questo controllo per evitare che Highest = X \n            // e secondHighest = 0\n            if(highestBid == 0){\n                highestBid = msg.value;\n                highestBidder = msg.sender;\n            }\n            // se invece sono offerte successive allora devo fare un rimborso \n            else{\n                toRefund = secondhighestBidder;\n                val = secondHighestBid.add(bidDeposit);\n                secondhighestBidder = highestBidder;\n                secondHighestBid = highestBid;\n                highestBid = msg.value;\n                highestBidder = msg.sender;\n            }\n            \n            emit HighestBidIncreased(msg.sender, secondhighestBidder);\n        }\n        // Caso in cui faccio un'offerta che supera solamente la seconda, in questo caso \n        // il precedente bidder viene rimborsato dell'offerta e del deposito.\n        else if(msg.value > secondHighestBid){\n            toRefund = secondhighestBidder;\n            val = secondHighestBid.add(bidDeposit);\n            secondhighestBidder = msg.sender;\n            secondHighestBid = msg.value;\n        }\n        /* \n            La mia offerta non supera la prima o la seconda quindi dovr essere\n            rimborsato sia dell'offerta che del deposito. Qua ci finisco anche se l'offerta\n            non supera il reservePrice perch inizialmente il reservePrice  fissato come \n            seconda offerta pi alta, quindi se non supero la seconda non supero nemmeno il reservePrice,\n            questo serve quando ad esempio abbiamo tutte le offerte sotto al reservePrice e non vogliamo\n            che la vendita avvenga comunque\n        */\n        else{\n            toRefund = msg.sender;\n            val = msg.value.add(bidDeposit);\n        }\n        \n        // Eseguo il rimborso \n        if(toRefund != address(0)){\n            toRefund.transfer(val);\n        }\n        \n    }\n    \n\n   \n    /*\n        Funzione che chiude l'asta, viene chiamata solamente da chi ha creato \n        l'asta o da chi ha vinto, solamente quando le fasi precedenti sono terminate. Serve per segnare l'asta come chiusa e anche per\n        fare il rimborso a chi ha vinto.\n    */  \n    function finalize() public payable only_when_openBidPhaseEnded() {\n        require(msg.sender == highestBidder || msg.sender == auctioneer, \"Non hai i permessi\");\n        \n        emit AuctionEnded(highestBidder, secondHighestBid);\n        ended = true;\n\n        require(removeFromStorage());\n        \n        // Controlliamo che sia stata eseguita un'offerta valida.\n        if(highestBidder != address(0)){\n            highestBidder.transfer((highestBid.sub(secondHighestBid)).add(bidDeposit));\n        }\n        \n        // Restituisco quanto offerto pi il bidDeposit al secondo classificato\n        if(secondhighestBidder != address(0)){\n            secondhighestBidder.transfer(secondHighestBid.add(bidDeposit));\n        }\n    \n       \n        // trasferisco il balance del contratto al creatore dell'asta \n        if(address(this).balance != 0){\n            auctioneer.transfer(address(this).balance);\n        }\n    }\n    \n    \n    /*\n        Funzione che restituisce l'address che ha fatto l'offerta pi alta\n    */\n    function getHighestBidder() public view returns(address){\n        return highestBidder;\n    }\n    \n    /*\n        Funzione che restituisce l'offerta pi alta\n    */\n    function getHighestBid() public view returns(uint){\n        return highestBid;\n    }\n    \n    /*\n        Funzione che restituisce il bidDeposit\n    */\n    function getDeposit() public view returns(uint){\n        return bidDeposit;\n    }\n\n    function getAllData() public view returns(uint, uint, uint, uint, uint, uint, uint, uint, uint, uint, bool, bool, address){\n        return (highestBid, secondHighestBid, bidPhaseStart, withDrawalPhaseStart, bidOpeningPhaseStart, bidTime, withdrawalTime, bidOpeningTime, bidDeposit, reservePrice, ended, started, highestBidder);\n    }\n \n}",
  "sourcePath": "/Users/lucacorbucci/Documents/GitHub/SmartAuctions/Frontend/contracts/Vickrey.sol",
  "compiler": {
    "name": "solc",
    "version": "0.5.8+commit.23d335f2.Emscripten.clang"
  },
  "schemaVersion": "3.0.11",
  "updatedAt": "2019-06-22T15:49:06.524Z",
  "devdoc": {
    "methods": {}
  },
  "userdoc": {
    "methods": {}
  }
}